{
  "contractName": "Post",
  "abi": [
    {
      "constant": true,
      "inputs": [],
      "name": "total_posts",
      "outputs": [
        {
          "internalType": "uint256",
          "name": "",
          "type": "uint256"
        }
      ],
      "payable": false,
      "stateMutability": "view",
      "type": "function"
    },
    {
      "constant": false,
      "inputs": [
        {
          "internalType": "uint256",
          "name": "_owner",
          "type": "uint256"
        },
        {
          "internalType": "string",
          "name": "_title",
          "type": "string"
        },
        {
          "internalType": "string",
          "name": "_text",
          "type": "string"
        },
        {
          "internalType": "uint256",
          "name": "_date",
          "type": "uint256"
        }
      ],
      "name": "create_post",
      "outputs": [
        {
          "internalType": "bool",
          "name": "",
          "type": "bool"
        }
      ],
      "payable": false,
      "stateMutability": "nonpayable",
      "type": "function"
    },
    {
      "constant": true,
      "inputs": [],
      "name": "getPostid",
      "outputs": [
        {
          "internalType": "uint256",
          "name": "",
          "type": "uint256"
        }
      ],
      "payable": false,
      "stateMutability": "view",
      "type": "function"
    }
  ],
  "bytecode": "0x608060405234801561001057600080fd5b506104a0806100206000396000f3fe608060405234801561001057600080fd5b50600436106100415760003560e01c80630dae1ffa146100465780638635970914610064578063a8d5de4f146101e2575b600080fd5b61004e610200565b6040518082815260200191505060405180910390f35b6101c86004803603608081101561007a57600080fd5b8101908080359060200190929190803590602001906401000000008111156100a157600080fd5b8201836020820111156100b357600080fd5b803590602001918460018302840111640100000000831117156100d557600080fd5b91908080601f016020809104026020016040519081016040528093929190818152602001838380828437600081840152601f19601f8201169050808301925050505050505091929192908035906020019064010000000081111561013857600080fd5b82018360208201111561014a57600080fd5b8035906020019184600183028401116401000000008311171561016c57600080fd5b91908080601f016020809104026020016040519081016040528093929190818152602001838380828437600081840152601f19601f82011690508083019250505050505050919291929080359060200190929190505050610206565b604051808215151515815260200191505060405180910390f35b6101ea6103b9565b6040518082815260200191505060405180910390f35b60005481565b60006060849050606084905060008251141561028a576040517f08c379a000000000000000000000000000000000000000000000000000000000815260040180806020018281038252601a8152602001807f506c6561736520656e746572207469746c65206f6620706f737400000000000081525060200191505060405180910390fd5b600081511415610302576040517f08c379a00000000000000000000000000000000000000000000000000000000081526004018080602001828103825260148152602001807f506f73742063616e6e6f7420626520656d70747900000000000000000000000081525060200191505060405180910390fd5b6040518060a0016040528088815260200160005481526020018781526020018681526020018581525060016000805481526020019081526020016000206000820151816000015560208201518160010155604082015181600201908051906020019061036f9291906103c6565b50606082015181600301908051906020019061038c9291906103c6565b50608082015181600401559050506000808154809291906001019190505550600192505050949350505050565b6000600160005403905090565b828054600181600116156101000203166002900490600052602060002090601f016020900481019282601f1061040757805160ff1916838001178555610435565b82800160010185558215610435579182015b82811115610434578251825591602001919060010190610419565b5b5090506104429190610446565b5090565b61046891905b8082111561046457600081600090555060010161044c565b5090565b9056fea265627a7a72315820f959fcddba0ed65ac7114592241d47d799618e8a04be3ae79bf187648cec8d8c64736f6c63430005100032",
  "source": "pragma solidity >=0.4.21 <0.7.0;\n\ncontract Post {\n\n    struct postS {\n        uint owner;\n        uint postindex;\n        // Why will the post have address \n        // Address is of the user\n        // address postid;\n        string Title;\n        string PostText;\n        // bytes32 PostPic;\n        uint256 Date;\n    }\n\n    uint public total_posts;\n    mapping(uint=>postS) postsM;\n\n\n    // Function to create post and return its postindex which is later stored in user post array\n    function create_post(uint _owner, string memory _title, string memory _text, uint256 _date) public returns (bool)\n    {\n        bytes memory title = bytes(_title);\n        bytes memory text = bytes(_text);\n        require(title.length!=0, \"Please enter title of post\");\n        require(text.length!=0, \"Post cannot be empty\");\n\n        postsM[total_posts] = postS({owner: _owner, postindex: total_posts, Title:_title, PostText: _text, Date: _date});\n        total_posts++;\n        return true;\n    }\n\n    function getPostid() public view returns(uint) {\n        return total_posts-1;\n    }\n\n    \n}",
  "sourcePath": "/home/arpit/Desktop/github_repos/Dconnect/contracts/Post.sol",
  "compiler": {
    "name": "solc",
    "version": "0.5.16+commit.9c3226ce.Emscripten.clang"
  },
  "schemaVersion": "3.0.23",
  "updatedAt": "2020-03-10T13:32:01.362Z",
  "networkType": "ethereum",
  "devdoc": {
    "methods": {}
  },
  "userdoc": {
    "methods": {}
  }
}