{
  "contractName": "Post",
  "abi": [
    {
      "constant": true,
      "inputs": [
        {
          "internalType": "uint256",
          "name": "",
          "type": "uint256"
        }
      ],
      "name": "postsM",
      "outputs": [
        {
          "internalType": "uint256",
          "name": "owner",
          "type": "uint256"
        },
        {
          "internalType": "uint256",
          "name": "postindex",
          "type": "uint256"
        },
        {
          "internalType": "string",
          "name": "Title",
          "type": "string"
        },
        {
          "internalType": "string",
          "name": "PostText",
          "type": "string"
        },
        {
          "internalType": "uint256",
          "name": "Date",
          "type": "uint256"
        },
        {
          "internalType": "uint256",
          "name": "upvotes",
          "type": "uint256"
        }
      ],
      "payable": false,
      "stateMutability": "view",
      "type": "function"
    },
    {
      "constant": true,
      "inputs": [],
      "name": "total_posts",
      "outputs": [
        {
          "internalType": "uint256",
          "name": "",
          "type": "uint256"
        }
      ],
      "payable": false,
      "stateMutability": "view",
      "type": "function"
    },
    {
      "constant": false,
      "inputs": [
        {
          "internalType": "uint256",
          "name": "_owner",
          "type": "uint256"
        },
        {
          "internalType": "string",
          "name": "_title",
          "type": "string"
        },
        {
          "internalType": "string",
          "name": "_text",
          "type": "string"
        },
        {
          "internalType": "uint256",
          "name": "_date",
          "type": "uint256"
        }
      ],
      "name": "create_post",
      "outputs": [
        {
          "internalType": "bool",
          "name": "",
          "type": "bool"
        }
      ],
      "payable": false,
      "stateMutability": "nonpayable",
      "type": "function"
    },
    {
      "constant": true,
      "inputs": [],
      "name": "getPostid",
      "outputs": [
        {
          "internalType": "uint256",
          "name": "",
          "type": "uint256"
        }
      ],
      "payable": false,
      "stateMutability": "view",
      "type": "function"
    },
    {
      "constant": true,
      "inputs": [
        {
          "internalType": "uint256",
          "name": "postid",
          "type": "uint256"
        }
      ],
      "name": "getPostInfo",
      "outputs": [
        {
          "internalType": "string",
          "name": "",
          "type": "string"
        },
        {
          "internalType": "string",
          "name": "",
          "type": "string"
        },
        {
          "internalType": "uint256",
          "name": "",
          "type": "uint256"
        },
        {
          "internalType": "uint256",
          "name": "",
          "type": "uint256"
        },
        {
          "internalType": "uint256",
          "name": "",
          "type": "uint256"
        }
      ],
      "payable": false,
      "stateMutability": "view",
      "type": "function"
    },
    {
      "constant": false,
      "inputs": [
        {
          "internalType": "uint256",
          "name": "postid",
          "type": "uint256"
        },
        {
          "internalType": "uint256",
          "name": "userid",
          "type": "uint256"
        }
      ],
      "name": "upvote",
      "outputs": [
        {
          "internalType": "uint256",
          "name": "",
          "type": "uint256"
        }
      ],
      "payable": false,
      "stateMutability": "nonpayable",
      "type": "function"
    },
    {
      "constant": true,
      "inputs": [
        {
          "internalType": "uint256",
          "name": "postid",
          "type": "uint256"
        },
        {
          "internalType": "uint256",
          "name": "userid",
          "type": "uint256"
        }
      ],
      "name": "checkupvote",
      "outputs": [
        {
          "internalType": "bool",
          "name": "",
          "type": "bool"
        }
      ],
      "payable": false,
      "stateMutability": "view",
      "type": "function"
    }
  ],
  "bytecode": "0x608060405234801561001057600080fd5b50610c9b806100206000396000f3fe608060405234801561001057600080fd5b506004361061007d5760003560e01c8063863597091161005b578063863597091461013c578063a8d5de4f146102ba578063d2e11c4b146102d8578063eba1e3b3146104075761007d565b80630dae1ffa146100825780635e7ce9f8146100a05780636461dd90146100ec575b600080fd5b61008a61052f565b6040518082815260200191505060405180910390f35b6100d6600480360360408110156100b657600080fd5b810190808035906020019092919080359060200190929190505050610535565b6040518082815260200191505060405180910390f35b6101226004803603604081101561010257600080fd5b8101908080359060200190929190803590602001909291905050506105c8565b604051808215151515815260200191505060405180910390f35b6102a06004803603608081101561015257600080fd5b81019080803590602001909291908035906020019064010000000081111561017957600080fd5b82018360208201111561018b57600080fd5b803590602001918460018302840111640100000000831117156101ad57600080fd5b91908080601f016020809104026020016040519081016040528093929190818152602001838380828437600081840152601f19601f8201169050808301925050505050505091929192908035906020019064010000000081111561021057600080fd5b82018360208201111561022257600080fd5b8035906020019184600183028401116401000000008311171561024457600080fd5b91908080601f016020809104026020016040519081016040528093929190818152602001838380828437600081840152601f19601f8201169050808301925050505050505091929192908035906020019092919050505061067f565b604051808215151515815260200191505060405180910390f35b6102c2610843565b6040518082815260200191505060405180910390f35b610304600480360360208110156102ee57600080fd5b8101908080359060200190929190505050610850565b604051808781526020018681526020018060200180602001858152602001848152602001838103835287818151815260200191508051906020019080838360005b83811015610360578082015181840152602081019050610345565b50505050905090810190601f16801561038d5780820380516001836020036101000a031916815260200191505b50838103825286818151815260200191508051906020019080838360005b838110156103c65780820151818401526020810190506103ab565b50505050905090810190601f1680156103f35780820380516001836020036101000a031916815260200191505b509850505050505050505060405180910390f35b6104336004803603602081101561041d57600080fd5b81019080803590602001909291905050506109bc565b604051808060200180602001868152602001858152602001848152602001838103835288818151815260200191508051906020019080838360005b8381101561048957808201518184015260208101905061046e565b50505050905090810190601f1680156104b65780820380516001836020036101000a031916815260200191505b50838103825287818151815260200191508051906020019080838360005b838110156104ef5780820151818401526020810190506104d4565b50505050905090810190601f16801561051c5780820380516001836020036101000a031916815260200191505b5097505050505050505060405180910390f35b60005481565b60008060016000858152602001908152602001600020905061055784846105c8565b6105685780600501549150506105c2565b60026000858152602001908152602001600020839080600181540180825580915050906001820390600052602060002001600090919290919091505550806005016000815480929190600101919050555080600501549150505b92915050565b600060606002600085815260200190815260200160002080548060200260200160405190810160405280929190818152602001828054801561062957602002820191906000526020600020905b815481526020019060010190808311610615575b5050505050905060008090505b8151811015610672578382828151811061064c57fe5b6020026020010151141561066557600092505050610679565b8080600101915050610636565b5060019150505b92915050565b600060608490506060849050600082511415610703576040517f08c379a000000000000000000000000000000000000000000000000000000000815260040180806020018281038252601a8152602001807f506c6561736520656e746572207469746c65206f6620706f737400000000000081525060200191505060405180910390fd5b60008151141561077b576040517f08c379a00000000000000000000000000000000000000000000000000000000081526004018080602001828103825260148152602001807f506f73742063616e6e6f7420626520656d70747900000000000000000000000081525060200191505060405180910390fd5b6040518060c00160405280888152602001600054815260200187815260200186815260200185815260200160008152506001600080548152602001908152602001600020600082015181600001556020820151816001015560408201518160020190805190602001906107ef929190610b8b565b50606082015181600301908051906020019061080c929190610b8b565b506080820151816004015560a082015181600501559050506000808154809291906001019190505550600192505050949350505050565b6000600160005403905090565b6001602052806000526040600020600091509050806000015490806001015490806002018054600181600116156101000203166002900480601f0160208091040260200160405190810160405280929190818152602001828054600181600116156101000203166002900480156109085780601f106108dd57610100808354040283529160200191610908565b820191906000526020600020905b8154815290600101906020018083116108eb57829003601f168201915b505050505090806003018054600181600116156101000203166002900480601f0160208091040260200160405190810160405280929190818152602001828054600181600116156101000203166002900480156109a65780601f1061097b576101008083540402835291602001916109a6565b820191906000526020600020905b81548152906001019060200180831161098957829003601f168201915b5050505050908060040154908060050154905086565b60608060008060006109cc610c0b565b600160008881526020019081526020016000206040518060c00160405290816000820154815260200160018201548152602001600282018054600181600116156101000203166002900480601f016020809104026020016040519081016040528092919081815260200182805460018160011615610100020316600290048015610a975780601f10610a6c57610100808354040283529160200191610a97565b820191906000526020600020905b815481529060010190602001808311610a7a57829003601f168201915b50505050508152602001600382018054600181600116156101000203166002900480601f016020809104026020016040519081016040528092919081815260200182805460018160011615610100020316600290048015610b395780601f10610b0e57610100808354040283529160200191610b39565b820191906000526020600020905b815481529060010190602001808311610b1c57829003601f168201915b5050505050815260200160048201548152602001600582015481525050905080604001518160600151826080015183600001518460a00151849450839350955095509550955095505091939590929450565b828054600181600116156101000203166002900490600052602060002090601f016020900481019282601f10610bcc57805160ff1916838001178555610bfa565b82800160010185558215610bfa579182015b82811115610bf9578251825591602001919060010190610bde565b5b509050610c079190610c41565b5090565b6040518060c001604052806000815260200160008152602001606081526020016060815260200160008152602001600081525090565b610c6391905b80821115610c5f576000816000905550600101610c47565b5090565b9056fea265627a7a72315820fa02a3b8b603e9cb48224c4a8cba3cb8230d8b34e97fcda0c5618125ef8e2ffe64736f6c63430005100032",
  "source": "pragma solidity >=0.4.21 <0.7.0;\n\ncontract Post {\n\n    struct postS {\n        uint owner;\n        uint postindex;\n        string Title;\n        string PostText;\n        uint256 Date;\n        uint upvotes;\n    }\n\n    uint public total_posts;\n    mapping(uint=>postS) public postsM;\n\n    // If postid => userids then the user has upvoted this post\n    // uint[][] public upvoted;\n    mapping(uint=> uint[]) upvoted;\n\n\n    // Function to create post and return its postindex which is later stored in user post array\n    function create_post(uint _owner, string memory _title, string memory _text, uint256 _date) public returns (bool)\n    {\n        bytes memory title = bytes(_title);\n        bytes memory text = bytes(_text);\n        require(title.length!=0, \"Please enter title of post\");\n        require(text.length!=0, \"Post cannot be empty\");\n        postsM[total_posts] = postS({owner: _owner, postindex: total_posts, Title:_title, PostText: _text, Date: _date, upvotes:0});\n        total_posts++;\n        return true;\n    }\n\n    function getPostid() public view returns(uint) {\n        return total_posts-1;\n    }\n\n    function getPostInfo(uint postid) public view returns(string memory, string memory, uint, uint, uint) {\n        postS memory p = postsM[postid];\n        return (p.Title, p.PostText, p.Date, p.owner, p.upvotes);\n    }\n\n    function upvote(uint postid, uint userid) public returns(uint)\n    {\n        // First check if this user has already upvoted\n        // If already upvoted then same upvotes\n        postS storage p = postsM[postid];\n        if(!checkupvote(postid, userid))\n        {\n            return p.upvotes;\n        }\n        // Else add this userid to this posts upvoted array and increase count of upvotes by 1\n        else\n        {\n            upvoted[postid].push(userid);\n            p.upvotes++;\n            return p.upvotes;\n        }\n    }\n\n    function checkupvote(uint postid, uint userid) public view returns(bool)\n    {\n        uint[] memory voters = upvoted[postid];\n        for (uint index = 0; index < voters.length; index++) {\n            if(voters[index]==userid)\n            {\n                return false;\n            }\n        }\n        return true;\n    }\n}",
  "sourcePath": "/home/arpit/Desktop/github_repos/Dconnect/contracts/Post.sol",
  "compiler": {
    "name": "solc",
    "version": "0.5.16+commit.9c3226ce.Emscripten.clang"
  },
  "schemaVersion": "3.0.23",
  "updatedAt": "2020-03-29T05:31:54.854Z",
  "networkType": "ethereum",
  "devdoc": {
    "methods": {}
  },
  "userdoc": {
    "methods": {}
  }
}