{
  "contractName": "Post",
  "abi": [
    {
      "constant": true,
      "inputs": [
        {
          "internalType": "uint256",
          "name": "",
          "type": "uint256"
        }
      ],
      "name": "postsM",
      "outputs": [
        {
          "internalType": "uint256",
          "name": "owner",
          "type": "uint256"
        },
        {
          "internalType": "uint256",
          "name": "postindex",
          "type": "uint256"
        },
        {
          "internalType": "string",
          "name": "Title",
          "type": "string"
        },
        {
          "internalType": "string",
          "name": "PostText",
          "type": "string"
        },
        {
          "internalType": "uint256",
          "name": "Date",
          "type": "uint256"
        }
      ],
      "payable": false,
      "stateMutability": "view",
      "type": "function"
    },
    {
      "constant": true,
      "inputs": [],
      "name": "total_posts",
      "outputs": [
        {
          "internalType": "uint256",
          "name": "",
          "type": "uint256"
        }
      ],
      "payable": false,
      "stateMutability": "view",
      "type": "function"
    },
    {
      "constant": false,
      "inputs": [
        {
          "internalType": "uint256",
          "name": "_owner",
          "type": "uint256"
        },
        {
          "internalType": "string",
          "name": "_title",
          "type": "string"
        },
        {
          "internalType": "string",
          "name": "_text",
          "type": "string"
        },
        {
          "internalType": "uint256",
          "name": "_date",
          "type": "uint256"
        }
      ],
      "name": "create_post",
      "outputs": [
        {
          "internalType": "bool",
          "name": "",
          "type": "bool"
        }
      ],
      "payable": false,
      "stateMutability": "nonpayable",
      "type": "function"
    },
    {
      "constant": true,
      "inputs": [],
      "name": "getPostid",
      "outputs": [
        {
          "internalType": "uint256",
          "name": "",
          "type": "uint256"
        }
      ],
      "payable": false,
      "stateMutability": "view",
      "type": "function"
    },
    {
      "constant": true,
      "inputs": [
        {
          "internalType": "uint256",
          "name": "postid",
          "type": "uint256"
        }
      ],
      "name": "getPostInfo",
      "outputs": [
        {
          "internalType": "string",
          "name": "",
          "type": "string"
        },
        {
          "internalType": "string",
          "name": "",
          "type": "string"
        },
        {
          "internalType": "uint256",
          "name": "",
          "type": "uint256"
        },
        {
          "internalType": "uint256",
          "name": "",
          "type": "uint256"
        }
      ],
      "payable": false,
      "stateMutability": "view",
      "type": "function"
    }
  ],
  "bytecode": "0x608060405234801561001057600080fd5b50610a4e806100206000396000f3fe608060405234801561001057600080fd5b50600436106100575760003560e01c80630dae1ffa1461005c578063863597091461007a578063a8d5de4f146101f8578063d2e11c4b14610216578063eba1e3b31461033e575b600080fd5b61006461045f565b6040518082815260200191505060405180910390f35b6101de6004803603608081101561009057600080fd5b8101908080359060200190929190803590602001906401000000008111156100b757600080fd5b8201836020820111156100c957600080fd5b803590602001918460018302840111640100000000831117156100eb57600080fd5b91908080601f016020809104026020016040519081016040528093929190818152602001838380828437600081840152601f19601f8201169050808301925050505050505091929192908035906020019064010000000081111561014e57600080fd5b82018360208201111561016057600080fd5b8035906020019184600183028401116401000000008311171561018257600080fd5b91908080601f016020809104026020016040519081016040528093929190818152602001838380828437600081840152601f19601f82011690508083019250505050505050919291929080359060200190929190505050610465565b604051808215151515815260200191505060405180910390f35b610200610618565b6040518082815260200191505060405180910390f35b6102426004803603602081101561022c57600080fd5b8101908080359060200190929190505050610625565b604051808681526020018581526020018060200180602001848152602001838103835286818151815260200191508051906020019080838360005b8381101561029857808201518184015260208101905061027d565b50505050905090810190601f1680156102c55780820380516001836020036101000a031916815260200191505b50838103825285818151815260200191508051906020019080838360005b838110156102fe5780820151818401526020810190506102e3565b50505050905090810190601f16801561032b5780820380516001836020036101000a031916815260200191505b5097505050505050505060405180910390f35b61036a6004803603602081101561035457600080fd5b810190808035906020019092919050505061078b565b604051808060200180602001858152602001848152602001838103835287818151815260200191508051906020019080838360005b838110156103ba57808201518184015260208101905061039f565b50505050905090810190601f1680156103e75780820380516001836020036101000a031916815260200191505b50838103825286818151815260200191508051906020019080838360005b83811015610420578082015181840152602081019050610405565b50505050905090810190601f16801561044d5780820380516001836020036101000a031916815260200191505b50965050505050505060405180910390f35b60005481565b6000606084905060608490506000825114156104e9576040517f08c379a000000000000000000000000000000000000000000000000000000000815260040180806020018281038252601a8152602001807f506c6561736520656e746572207469746c65206f6620706f737400000000000081525060200191505060405180910390fd5b600081511415610561576040517f08c379a00000000000000000000000000000000000000000000000000000000081526004018080602001828103825260148152602001807f506f73742063616e6e6f7420626520656d70747900000000000000000000000081525060200191505060405180910390fd5b6040518060a001604052808881526020016000548152602001878152602001868152602001858152506001600080548152602001908152602001600020600082015181600001556020820151816001015560408201518160020190805190602001906105ce929190610945565b5060608201518160030190805190602001906105eb929190610945565b50608082015181600401559050506000808154809291906001019190505550600192505050949350505050565b6000600160005403905090565b6001602052806000526040600020600091509050806000015490806001015490806002018054600181600116156101000203166002900480601f0160208091040260200160405190810160405280929190818152602001828054600181600116156101000203166002900480156106dd5780601f106106b2576101008083540402835291602001916106dd565b820191906000526020600020905b8154815290600101906020018083116106c057829003601f168201915b505050505090806003018054600181600116156101000203166002900480601f01602080910402602001604051908101604052809291908181526020018280546001816001161561010002031660029004801561077b5780601f106107505761010080835404028352916020019161077b565b820191906000526020600020905b81548152906001019060200180831161075e57829003601f168201915b5050505050908060040154905085565b6060806000806107996109c5565b600160008781526020019081526020016000206040518060a00160405290816000820154815260200160018201548152602001600282018054600181600116156101000203166002900480601f0160208091040260200160405190810160405280929190818152602001828054600181600116156101000203166002900480156108645780601f1061083957610100808354040283529160200191610864565b820191906000526020600020905b81548152906001019060200180831161084757829003601f168201915b50505050508152602001600382018054600181600116156101000203166002900480601f0160208091040260200160405190810160405280929190818152602001828054600181600116156101000203166002900480156109065780601f106108db57610100808354040283529160200191610906565b820191906000526020600020905b8154815290600101906020018083116108e957829003601f168201915b50505050508152602001600482015481525050905080604001518160600151826080015183600001518393508292509450945094509450509193509193565b828054600181600116156101000203166002900490600052602060002090601f016020900481019282601f1061098657805160ff19168380011785556109b4565b828001600101855582156109b4579182015b828111156109b3578251825591602001919060010190610998565b5b5090506109c191906109f4565b5090565b6040518060a0016040528060008152602001600081526020016060815260200160608152602001600081525090565b610a1691905b80821115610a125760008160009055506001016109fa565b5090565b9056fea265627a7a72315820678f495c910cbfd5b07ce416264801226d650cd35374e8f374a65522f872933e64736f6c63430005100032",
  "source": "pragma solidity >=0.4.21 <0.7.0;\n\ncontract Post {\n\n    struct postS {\n        uint owner;\n        uint postindex;\n        // Why will the post have address \n        // Address is of the user\n        // address postid;\n        string Title;\n        string PostText;\n        // bytes32 PostPic;\n        uint256 Date;\n    }\n\n    uint public total_posts;\n    mapping(uint=>postS) public postsM;\n\n\n    // Function to create post and return its postindex which is later stored in user post array\n    function create_post(uint _owner, string memory _title, string memory _text, uint256 _date) public returns (bool)\n    {\n        bytes memory title = bytes(_title);\n        bytes memory text = bytes(_text);\n        require(title.length!=0, \"Please enter title of post\");\n        require(text.length!=0, \"Post cannot be empty\");\n\n        postsM[total_posts] = postS({owner: _owner, postindex: total_posts, Title:_title, PostText: _text, Date: _date});\n        total_posts++;\n        return true;\n    }\n\n    function getPostid() public view returns(uint) {\n        return total_posts-1;\n    }\n\n    function getPostInfo(uint postid) public view returns(string memory, string memory, uint, uint) {\n        postS memory p = postsM[postid];\n        return (p.Title, p.PostText, p.Date, p.owner);\n    }\n\n    \n}",
  "sourcePath": "/home/arpit/Desktop/github_repos/Dconnect/contracts/Post.sol",
  "compiler": {
    "name": "solc",
    "version": "0.5.16+commit.9c3226ce.Emscripten.clang"
  },
  "schemaVersion": "3.0.23",
  "updatedAt": "2020-03-11T12:35:31.791Z",
  "networkType": "ethereum",
  "devdoc": {
    "methods": {}
  },
  "userdoc": {
    "methods": {}
  }
}