{
  "contractName": "User",
  "abi": [
    {
      "constant": true,
      "inputs": [
        {
          "internalType": "uint256",
          "name": "",
          "type": "uint256"
        },
        {
          "internalType": "uint256",
          "name": "",
          "type": "uint256"
        }
      ],
      "name": "followM",
      "outputs": [
        {
          "internalType": "int256",
          "name": "",
          "type": "int256"
        }
      ],
      "payable": false,
      "stateMutability": "view",
      "type": "function"
    },
    {
      "constant": true,
      "inputs": [],
      "name": "total_users",
      "outputs": [
        {
          "internalType": "uint256",
          "name": "",
          "type": "uint256"
        }
      ],
      "payable": false,
      "stateMutability": "view",
      "type": "function"
    },
    {
      "constant": true,
      "inputs": [
        {
          "internalType": "uint256",
          "name": "",
          "type": "uint256"
        }
      ],
      "name": "usersM",
      "outputs": [
        {
          "internalType": "string",
          "name": "Name",
          "type": "string"
        },
        {
          "internalType": "uint8",
          "name": "Age",
          "type": "uint8"
        },
        {
          "internalType": "string",
          "name": "Gender",
          "type": "string"
        },
        {
          "internalType": "address",
          "name": "userid",
          "type": "address"
        },
        {
          "internalType": "uint256",
          "name": "index",
          "type": "uint256"
        },
        {
          "internalType": "bool",
          "name": "Isuser",
          "type": "bool"
        }
      ],
      "payable": false,
      "stateMutability": "view",
      "type": "function"
    },
    {
      "constant": true,
      "inputs": [
        {
          "internalType": "uint256",
          "name": "idx",
          "type": "uint256"
        }
      ],
      "name": "getusersAAt",
      "outputs": [
        {
          "internalType": "address",
          "name": "",
          "type": "address"
        }
      ],
      "payable": false,
      "stateMutability": "view",
      "type": "function"
    },
    {
      "constant": true,
      "inputs": [
        {
          "internalType": "uint256",
          "name": "idx",
          "type": "uint256"
        }
      ],
      "name": "getUserInfo",
      "outputs": [
        {
          "internalType": "string",
          "name": "",
          "type": "string"
        },
        {
          "internalType": "uint8",
          "name": "",
          "type": "uint8"
        },
        {
          "internalType": "string",
          "name": "",
          "type": "string"
        },
        {
          "internalType": "uint256",
          "name": "",
          "type": "uint256"
        },
        {
          "internalType": "address[]",
          "name": "",
          "type": "address[]"
        },
        {
          "internalType": "uint256[]",
          "name": "",
          "type": "uint256[]"
        },
        {
          "internalType": "uint256[]",
          "name": "",
          "type": "uint256[]"
        }
      ],
      "payable": false,
      "stateMutability": "view",
      "type": "function"
    },
    {
      "constant": false,
      "inputs": [
        {
          "internalType": "string",
          "name": "_name",
          "type": "string"
        },
        {
          "internalType": "uint8",
          "name": "_age",
          "type": "uint8"
        },
        {
          "internalType": "string",
          "name": "_gender",
          "type": "string"
        }
      ],
      "name": "registerUser",
      "outputs": [
        {
          "internalType": "bool",
          "name": "",
          "type": "bool"
        }
      ],
      "payable": false,
      "stateMutability": "nonpayable",
      "type": "function"
    },
    {
      "constant": true,
      "inputs": [
        {
          "internalType": "string",
          "name": "_address",
          "type": "string"
        }
      ],
      "name": "userpresent",
      "outputs": [
        {
          "internalType": "bool",
          "name": "",
          "type": "bool"
        }
      ],
      "payable": false,
      "stateMutability": "view",
      "type": "function"
    },
    {
      "constant": true,
      "inputs": [
        {
          "internalType": "string",
          "name": "_address",
          "type": "string"
        }
      ],
      "name": "getidxFromAddress",
      "outputs": [
        {
          "internalType": "uint256",
          "name": "",
          "type": "uint256"
        }
      ],
      "payable": false,
      "stateMutability": "view",
      "type": "function"
    },
    {
      "constant": false,
      "inputs": [
        {
          "internalType": "uint256",
          "name": "this_user",
          "type": "uint256"
        },
        {
          "internalType": "uint256",
          "name": "to_follow",
          "type": "uint256"
        }
      ],
      "name": "Follow",
      "outputs": [
        {
          "internalType": "bool",
          "name": "",
          "type": "bool"
        }
      ],
      "payable": false,
      "stateMutability": "nonpayable",
      "type": "function"
    }
  ],
  "bytecode": "0x608060405234801561001057600080fd5b50611913806100206000396000f3fe608060405234801561001057600080fd5b50600436106100935760003560e01c80634a30ff0a116100665780634a30ff0a146102755780639e37121914610344578063a2b5e320146104a9578063d379dadf14610620578063e7cc62bd1461081f57610093565b806311796bfb1461009857806316bdce191461016b5780631e79869b146101bb57806323dfe81414610207575b600080fd5b610151600480360360208110156100ae57600080fd5b81019080803590602001906401000000008111156100cb57600080fd5b8201836020820111156100dd57600080fd5b803590602001918460018302840111640100000000831117156100ff57600080fd5b91908080601f016020809104026020016040519081016040528093929190818152602001838380828437600081840152601f19601f82011690508083019250505050505050919291929050505061083d565b604051808215151515815260200191505060405180910390f35b6101a16004803603604081101561018157600080fd5b810190808035906020019092919080359060200190929190505050610940565b604051808215151515815260200191505060405180910390f35b6101f1600480360360408110156101d157600080fd5b8101908080359060200190929190803590602001909291905050506109d2565b6040518082815260200191505060405180910390f35b6102336004803603602081101561021d57600080fd5b81019080803590602001909291905050506109f7565b604051808273ffffffffffffffffffffffffffffffffffffffff1673ffffffffffffffffffffffffffffffffffffffff16815260200191505060405180910390f35b61032e6004803603602081101561028b57600080fd5b81019080803590602001906401000000008111156102a857600080fd5b8201836020820111156102ba57600080fd5b803590602001918460018302840111640100000000831117156102dc57600080fd5b91908080601f016020809104026020016040519081016040528093929190818152602001838380828437600081840152601f19601f820116905080830192505050505050509192919290505050610a38565b6040518082815260200191505060405180910390f35b6103706004803603602081101561035a57600080fd5b8101908080359060200190929190505050610ae6565b60405180806020018760ff1660ff168152602001806020018673ffffffffffffffffffffffffffffffffffffffff1673ffffffffffffffffffffffffffffffffffffffff16815260200185815260200184151515158152602001838103835289818151815260200191508051906020019080838360005b838110156104025780820151818401526020810190506103e7565b50505050905090810190601f16801561042f5780820380516001836020036101000a031916815260200191505b50838103825287818151815260200191508051906020019080838360005b8381101561046857808201518184015260208101905061044d565b50505050905090810190601f1680156104955780820380516001836020036101000a031916815260200191505b509850505050505050505060405180910390f35b610606600480360360608110156104bf57600080fd5b81019080803590602001906401000000008111156104dc57600080fd5b8201836020820111156104ee57600080fd5b8035906020019184600183028401116401000000008311171561051057600080fd5b91908080601f016020809104026020016040519081016040528093929190818152602001838380828437600081840152601f19601f820116905080830192505050505050509192919290803560ff1690602001909291908035906020019064010000000081111561058057600080fd5b82018360208201111561059257600080fd5b803590602001918460018302840111640100000000831117156105b457600080fd5b91908080601f016020809104026020016040519081016040528093929190818152602001838380828437600081840152601f19601f820116905080830192505050505050509192919290505050610c8c565b604051808215151515815260200191505060405180910390f35b61064c6004803603602081101561063657600080fd5b81019080803590602001909291905050506110be565b60405180806020018860ff1660ff1681526020018060200187815260200180602001806020018060200186810386528d818151815260200191508051906020019080838360005b838110156106ae578082015181840152602081019050610693565b50505050905090810190601f1680156106db5780820380516001836020036101000a031916815260200191505b5086810385528b818151815260200191508051906020019080838360005b838110156107145780820151818401526020810190506106f9565b50505050905090810190601f1680156107415780820380516001836020036101000a031916815260200191505b50868103845289818151815260200191508051906020019060200280838360005b8381101561077d578082015181840152602081019050610762565b50505050905001868103835288818151815260200191508051906020019060200280838360005b838110156107bf5780820151818401526020810190506107a4565b50505050905001868103825287818151815260200191508051906020019060200280838360005b838110156108015780820151818401526020810190506107e6565b505050509050019c5050505050505050505050505060405180910390f35b610827611459565b6040518082815260200191505060405180910390f35b6000806108498361145f565b905060007fffffffffffffffffffffffffffffffffffffffffffffffffffffffffffffffff905060008090505b600354811015610900578273ffffffffffffffffffffffffffffffffffffffff16600282815481106108a457fe5b9060005260206000200160009054906101000a900473ffffffffffffffffffffffffffffffffffffffff1673ffffffffffffffffffffffffffffffffffffffff1614156108f357809150610900565b8080600101915050610876565b507fffffffffffffffffffffffffffffffffffffffffffffffffffffffffffffffff8114156109345760009250505061093b565b6001925050505b919050565b600080600080858152602001908152602001600020905080600701839080600181540180825580915050906001820390600052602060002001600090919290919091505550600080848152602001908152602001600020905080600601849080600181540180825580915050906001820390600052602060002001600090919290919091505550600191505092915050565b6001602052816000526040600020602052806000526040600020600091509150505481565b600060028281548110610a0657fe5b9060005260206000200160009054906101000a900473ffffffffffffffffffffffffffffffffffffffff169050919050565b600080610a448361145f565b9050600080905060008090505b600354811015610adb578273ffffffffffffffffffffffffffffffffffffffff1660028281548110610a7f57fe5b9060005260206000200160009054906101000a900473ffffffffffffffffffffffffffffffffffffffff1673ffffffffffffffffffffffffffffffffffffffff161415610ace57809150610adb565b8080600101915050610a51565b508092505050919050565b6000602052806000526040600020600091509050806000018054600181600116156101000203166002900480601f016020809104026020016040519081016040528092919081815260200182805460018160011615610100020316600290048015610b925780601f10610b6757610100808354040283529160200191610b92565b820191906000526020600020905b815481529060010190602001808311610b7557829003601f168201915b5050505050908060010160009054906101000a900460ff1690806002018054600181600116156101000203166002900480601f016020809104026020016040519081016040528092919081815260200182805460018160011615610100020316600290048015610c435780601f10610c1857610100808354040283529160200191610c43565b820191906000526020600020905b815481529060010190602001808311610c2657829003601f168201915b5050505050908060030160009054906101000a900473ffffffffffffffffffffffffffffffffffffffff16908060040154908060080160009054906101000a900460ff16905086565b60006060849050606083905060008560ff16118015610cae575060c88560ff16105b610d20576040517f08c379a000000000000000000000000000000000000000000000000000000000815260040180806020018281038252600f8152602001807f416765206e6f7420636f7272656374000000000000000000000000000000000081525060200191505060405180910390fd5b600082511415610d98576040517f08c379a00000000000000000000000000000000000000000000000000000000081526004018080602001828103825260118152602001807f506c6561736520656e746572206e616d6500000000000000000000000000000081525060200191505060405180910390fd5b600081511415610e10576040517f08c379a00000000000000000000000000000000000000000000000000000000081526004018080602001828103825260138152602001807f506c6561736520656e7465722067656e6465720000000000000000000000000081525060200191505060405180910390fd5b6040518061012001604052808781526020018660ff1681526020018581526020013373ffffffffffffffffffffffffffffffffffffffff16815260200160035481526020016000604051908082528060200260200182016040528015610e855781602001602082028038833980820191505090505b5081526020016000604051908082528060200260200182016040528015610ebb5781602001602082028038833980820191505090505b5081526020016000604051908082528060200260200182016040528015610ef15781602001602082028038833980820191505090505b5081526020016001151581525060008060035481526020019081526020016000206000820151816000019080519060200190610f2e9291906116b8565b5060208201518160010160006101000a81548160ff021916908360ff1602179055506040820151816002019080519060200190610f6c9291906116b8565b5060608201518160030160006101000a81548173ffffffffffffffffffffffffffffffffffffffff021916908373ffffffffffffffffffffffffffffffffffffffff1602179055506080820151816004015560a0820151816005019080519060200190610fda929190611738565b5060c0820151816006019080519060200190610ff79291906117c2565b5060e08201518160070190805190602001906110149291906117c2565b506101008201518160080160006101000a81548160ff02191690831515021790555090505060023390806001815401808255809150509060018203906000526020600020016000909192909190916101000a81548173ffffffffffffffffffffffffffffffffffffffff021916908373ffffffffffffffffffffffffffffffffffffffff160217905550506003600081548092919060010191905055506001925050509392505050565b606060006060600060608060606110d361180f565b6000808a815260200190815260200160002060405180610120016040529081600082018054600181600116156101000203166002900480601f01602080910402602001604051908101604052809291908181526020018280546001816001161561010002031660029004801561118a5780601f1061115f5761010080835404028352916020019161118a565b820191906000526020600020905b81548152906001019060200180831161116d57829003601f168201915b505050505081526020016001820160009054906101000a900460ff1660ff1660ff168152602001600282018054600181600116156101000203166002900480601f0160208091040260200160405190810160405280929190818152602001828054600181600116156101000203166002900480156112495780601f1061121e57610100808354040283529160200191611249565b820191906000526020600020905b81548152906001019060200180831161122c57829003601f168201915b505050505081526020016003820160009054906101000a900473ffffffffffffffffffffffffffffffffffffffff1673ffffffffffffffffffffffffffffffffffffffff1673ffffffffffffffffffffffffffffffffffffffff168152602001600482015481526020016005820180548060200260200160405190810160405280929190818152602001828054801561133757602002820191906000526020600020905b8160009054906101000a900473ffffffffffffffffffffffffffffffffffffffff1673ffffffffffffffffffffffffffffffffffffffff16815260200190600101908083116112ed575b505050505081526020016006820180548060200260200160405190810160405280929190818152602001828054801561138f57602002820191906000526020600020905b81548152602001906001019080831161137b575b50505050508152602001600782018054806020026020016040519081016040528092919081815260200182805480156113e757602002820191906000526020600020905b8154815260200190600101908083116113d3575b505050505081526020016008820160009054906101000a900460ff161515151581525050905080600001518160200151826040015183608001518460a001518560c001518660e00151869650849450829250819150809050975097509750975097509750975050919395979092949650565b60035481565b6000606082905060008090506000806000600290505b602a8110156116ab576101008402935084818151811061149157fe5b602001015160f81c60f81b60f81c60ff1692508460018201815181106114b357fe5b602001015160f81c60f81b60f81c60ff16915060618373ffffffffffffffffffffffffffffffffffffffff1610158015611504575060668373ffffffffffffffffffffffffffffffffffffffff1611155b15611514576057830392506115ae565b60418373ffffffffffffffffffffffffffffffffffffffff1610158015611552575060468373ffffffffffffffffffffffffffffffffffffffff1611155b15611562576037830392506115ad565b60308373ffffffffffffffffffffffffffffffffffffffff16101580156115a0575060398373ffffffffffffffffffffffffffffffffffffffff1611155b156115ac576030830392505b5b5b60618273ffffffffffffffffffffffffffffffffffffffff16101580156115ec575060668273ffffffffffffffffffffffffffffffffffffffff1611155b156115fc57605782039150611696565b60418273ffffffffffffffffffffffffffffffffffffffff161015801561163a575060468273ffffffffffffffffffffffffffffffffffffffff1611155b1561164a57603782039150611695565b60308273ffffffffffffffffffffffffffffffffffffffff1610158015611688575060398273ffffffffffffffffffffffffffffffffffffffff1611155b15611694576030820391505b5b5b81601084020184019350600281019050611475565b5082945050505050919050565b828054600181600116156101000203166002900490600052602060002090601f016020900481019282601f106116f957805160ff1916838001178555611727565b82800160010185558215611727579182015b8281111561172657825182559160200191906001019061170b565b5b5090506117349190611876565b5090565b8280548282559060005260206000209081019282156117b1579160200282015b828111156117b05782518260006101000a81548173ffffffffffffffffffffffffffffffffffffffff021916908373ffffffffffffffffffffffffffffffffffffffff16021790555091602001919060010190611758565b5b5090506117be919061189b565b5090565b8280548282559060005260206000209081019282156117fe579160200282015b828111156117fd5782518255916020019190600101906117e2565b5b50905061180b9190611876565b5090565b60405180610120016040528060608152602001600060ff16815260200160608152602001600073ffffffffffffffffffffffffffffffffffffffff168152602001600081526020016060815260200160608152602001606081526020016000151581525090565b61189891905b8082111561189457600081600090555060010161187c565b5090565b90565b6118db91905b808211156118d757600081816101000a81549073ffffffffffffffffffffffffffffffffffffffff0219169055506001016118a1565b5090565b9056fea265627a7a72315820eb17c6963a48e274c250d958ebf31d93b5901cd95bc033f0c9eac95438bdd1e364736f6c63430005100032",
  "source": "pragma solidity >=0.4.21 <0.7.0;\n// pragma experimental ABIEncoderV2;\n\ncontract User {\n\n    struct userS {\n        string Name;\n        uint8 Age;\n        string Gender;\n        address userid;\n        uint index;\n        // string address_string;\n        // bytes32 ProfilePic; // Hash of profilepic\n        address[] Posts;\n        uint[] Followers;    // Users who are following this user\n        uint[] Following;    // This user is following\n        bool Isuser;\n    }\n\n    //Mappings are useful for O(1) searching \n    mapping(uint => userS) public usersM;\n    mapping(uint => mapping(uint => int)) public followM; // Check if address1 follows address2\n\n    // array containing addresses of all the users as you cannot iterate over the mapping\n    address[] usersA;\n    // total_users is the total count of users\n    uint public total_users;\n\n    function getusersAAt(uint idx) public view returns(address){ \n        return usersA[idx];\n    }\n\n\n    modifier checkuser(uint id) {\n        userS memory u = usersM[id];\n        require(u.Isuser, \"User does not exist!\");\n        _;\n    }\n\n\n    function getUserInfo(uint idx) public view returns (string memory, uint8, string memory, uint, address[] memory, uint[] memory, uint[] memory){\n        // address temp_address = usersA[idx];\n        userS memory u = usersM[idx];\n        return (u.Name, u.Age, u.Gender,u.index, u.Posts, u.Followers, u.Following);\n    }\n\n    //TODO: check if user already exists\n    function registerUser(string memory _name, uint8 _age, string memory _gender) public returns (bool){\n        \n        // userS memory u = usersM[msg.sender];\n        bytes memory testname = bytes(_name);\n        bytes memory testgender = bytes(_gender);\n        require(_age > 0 && _age < 200, \"Age not correct\");\n        require(testname.length != 0, \"Please enter name\");\n        require(testgender.length != 0, \"Please enter gender\");\n        // require(!userpresent(), \"User already present\");\n        // string memory address_string = AddresstoString(msg.sender);\n        usersM[total_users] = (userS({Name:_name, Age:_age, Gender:_gender,index:total_users, userid:msg.sender,Posts:new address[](0), Followers:new uint[](0), Following:new uint[](0), Isuser:true}));\n        usersA.push(msg.sender);\n        total_users++;\n        return true;\n    }\n\n    function userpresent(string memory _address) public view returns (bool){\n        address add = parseAddr(_address);\n        int idx = -1;\n        for(uint i = 0;i < total_users;i++)\n        {\n            if(usersA[i]==add)\n            {\n                idx = int(i);\n                break;\n            }\n        }\n        if (idx==-1) {\n            return false;\n        } else {\n            return true;\n        }\n    }\n\n    function getidxFromAddress(string memory _address) public view returns (uint)\n    {\n        address add = parseAddr(_address);\n        uint idx = 0;\n        for(uint i = 0;i < total_users;i++)\n        {\n            if(usersA[i]==add)\n            {\n                idx = i;\n                break;\n            }\n        }\n        return idx;\n    }\n\n    function Follow(uint this_user, uint to_follow) public returns (bool)\n    {\n        // https://medium.com/coinmonks/what-the-hack-is-memory-and-storage-in-solidity-6b9e62577305\n        // If you use memory then you wont see changes so always use storage\n        // when updating contract\n        // add to_follow to this users' Following array\n        userS storage u = usersM[this_user];\n        u.Following.push(to_follow);\n        \n        // add this_user to to_follow users Followers array\n        u = usersM[to_follow];\n        u.Followers.push(this_user);\n        return true;\n\n    }\n\n    // function append(uint[] storage d, uint x) internal{\n    //     d.push(x);\n    // }\n\n\n    function parseAddr(string memory _a) internal pure returns (address _parsedAddress) {\n        bytes memory tmp = bytes(_a);\n        uint160 iaddr = 0;\n        uint160 b1;\n        uint160 b2;\n        for (uint i = 2; i < 2 + 2 * 20; i += 2) {\n            iaddr *= 256;\n            b1 = uint160(uint8(tmp[i]));\n            b2 = uint160(uint8(tmp[i + 1]));\n            if ((b1 >= 97) && (b1 <= 102)) {\n                b1 -= 87;\n            } else if ((b1 >= 65) && (b1 <= 70)) {\n                b1 -= 55;\n            } else if ((b1 >= 48) && (b1 <= 57)) {\n                b1 -= 48;\n            }\n            if ((b2 >= 97) && (b2 <= 102)) {\n                b2 -= 87;\n            } else if ((b2 >= 65) && (b2 <= 70)) {\n                b2 -= 55;\n            } else if ((b2 >= 48) && (b2 <= 57)) {\n                b2 -= 48;\n            }\n            iaddr += (b1 * 16 + b2);\n        }\n        return address(iaddr);\n    }\n\n\n\n\n\n\n\n}",
  "sourcePath": "/home/arpit/Desktop/github_repos/Dconnect/contracts/User.sol",
  "compiler": {
    "name": "solc",
    "version": "0.5.16+commit.9c3226ce.Emscripten.clang"
  },
  "schemaVersion": "3.0.23",
  "updatedAt": "2020-03-09T07:32:57.469Z",
  "networkType": "ethereum",
  "devdoc": {
    "methods": {}
  },
  "userdoc": {
    "methods": {}
  }
}