{
  "contractName": "User",
  "abi": [
    {
      "constant": true,
      "inputs": [
        {
          "internalType": "uint256",
          "name": "",
          "type": "uint256"
        },
        {
          "internalType": "uint256",
          "name": "",
          "type": "uint256"
        }
      ],
      "name": "followM",
      "outputs": [
        {
          "internalType": "int256",
          "name": "",
          "type": "int256"
        }
      ],
      "payable": false,
      "stateMutability": "view",
      "type": "function"
    },
    {
      "constant": true,
      "inputs": [],
      "name": "total_users",
      "outputs": [
        {
          "internalType": "uint256",
          "name": "",
          "type": "uint256"
        }
      ],
      "payable": false,
      "stateMutability": "view",
      "type": "function"
    },
    {
      "constant": true,
      "inputs": [
        {
          "internalType": "uint256",
          "name": "",
          "type": "uint256"
        }
      ],
      "name": "usersM",
      "outputs": [
        {
          "internalType": "string",
          "name": "Name",
          "type": "string"
        },
        {
          "internalType": "uint8",
          "name": "Age",
          "type": "uint8"
        },
        {
          "internalType": "string",
          "name": "Gender",
          "type": "string"
        },
        {
          "internalType": "address",
          "name": "userid",
          "type": "address"
        },
        {
          "internalType": "uint256",
          "name": "index",
          "type": "uint256"
        },
        {
          "internalType": "bool",
          "name": "Isuser",
          "type": "bool"
        }
      ],
      "payable": false,
      "stateMutability": "view",
      "type": "function"
    },
    {
      "constant": true,
      "inputs": [
        {
          "internalType": "uint256",
          "name": "idx",
          "type": "uint256"
        }
      ],
      "name": "getusersAAt",
      "outputs": [
        {
          "internalType": "address",
          "name": "",
          "type": "address"
        }
      ],
      "payable": false,
      "stateMutability": "view",
      "type": "function"
    },
    {
      "constant": true,
      "inputs": [
        {
          "internalType": "uint256",
          "name": "idx",
          "type": "uint256"
        }
      ],
      "name": "getUserInfo",
      "outputs": [
        {
          "internalType": "string",
          "name": "",
          "type": "string"
        },
        {
          "internalType": "uint8",
          "name": "",
          "type": "uint8"
        },
        {
          "internalType": "string",
          "name": "",
          "type": "string"
        },
        {
          "internalType": "uint256",
          "name": "",
          "type": "uint256"
        },
        {
          "internalType": "uint256[]",
          "name": "",
          "type": "uint256[]"
        },
        {
          "internalType": "uint256[]",
          "name": "",
          "type": "uint256[]"
        },
        {
          "internalType": "uint256[]",
          "name": "",
          "type": "uint256[]"
        }
      ],
      "payable": false,
      "stateMutability": "view",
      "type": "function"
    },
    {
      "constant": false,
      "inputs": [
        {
          "internalType": "string",
          "name": "_name",
          "type": "string"
        },
        {
          "internalType": "uint8",
          "name": "_age",
          "type": "uint8"
        },
        {
          "internalType": "string",
          "name": "_gender",
          "type": "string"
        }
      ],
      "name": "registerUser",
      "outputs": [
        {
          "internalType": "bool",
          "name": "",
          "type": "bool"
        }
      ],
      "payable": false,
      "stateMutability": "nonpayable",
      "type": "function"
    },
    {
      "constant": true,
      "inputs": [
        {
          "internalType": "string",
          "name": "_address",
          "type": "string"
        }
      ],
      "name": "userpresent",
      "outputs": [
        {
          "internalType": "bool",
          "name": "",
          "type": "bool"
        }
      ],
      "payable": false,
      "stateMutability": "view",
      "type": "function"
    },
    {
      "constant": true,
      "inputs": [
        {
          "internalType": "string",
          "name": "_address",
          "type": "string"
        }
      ],
      "name": "getidxFromAddress",
      "outputs": [
        {
          "internalType": "uint256",
          "name": "",
          "type": "uint256"
        }
      ],
      "payable": false,
      "stateMutability": "view",
      "type": "function"
    },
    {
      "constant": false,
      "inputs": [
        {
          "internalType": "string",
          "name": "_address",
          "type": "string"
        },
        {
          "internalType": "int256",
          "name": "to_follow",
          "type": "int256"
        }
      ],
      "name": "Follow",
      "outputs": [
        {
          "internalType": "bool",
          "name": "",
          "type": "bool"
        }
      ],
      "payable": false,
      "stateMutability": "nonpayable",
      "type": "function"
    },
    {
      "constant": false,
      "inputs": [
        {
          "internalType": "string",
          "name": "_address",
          "type": "string"
        },
        {
          "internalType": "uint256",
          "name": "id",
          "type": "uint256"
        }
      ],
      "name": "CheckFollow",
      "outputs": [
        {
          "internalType": "bool",
          "name": "",
          "type": "bool"
        }
      ],
      "payable": false,
      "stateMutability": "nonpayable",
      "type": "function"
    },
    {
      "constant": false,
      "inputs": [
        {
          "internalType": "uint256",
          "name": "_user",
          "type": "uint256"
        },
        {
          "internalType": "uint256",
          "name": "_post",
          "type": "uint256"
        }
      ],
      "name": "addPost",
      "outputs": [
        {
          "internalType": "bool",
          "name": "",
          "type": "bool"
        }
      ],
      "payable": false,
      "stateMutability": "nonpayable",
      "type": "function"
    }
  ],
  "bytecode": "0x608060405234801561001057600080fd5b50611da3806100206000396000f3fe608060405234801561001057600080fd5b50600436106100a95760003560e01c806383db15481161007157806383db1548146103e75780639e37121914610437578063a2b5e3201461059c578063d379dadf14610713578063e0e84ab114610912578063e7cc62bd146109ef576100a9565b806311796bfb146100ae5780631e79869b1461018157806323dfe814146101cd57806325ed0f651461023b5780634a30ff0a14610318575b600080fd5b610167600480360360208110156100c457600080fd5b81019080803590602001906401000000008111156100e157600080fd5b8201836020820111156100f357600080fd5b8035906020019184600183028401116401000000008311171561011557600080fd5b91908080601f016020809104026020016040519081016040528093929190818152602001838380828437600081840152601f19601f820116905080830192505050505050509192919290505050610a0d565b604051808215151515815260200191505060405180910390f35b6101b76004803603604081101561019757600080fd5b810190808035906020019092919080359060200190929190505050610b10565b6040518082815260200191505060405180910390f35b6101f9600480360360208110156101e357600080fd5b8101908080359060200190929190505050610b35565b604051808273ffffffffffffffffffffffffffffffffffffffff1673ffffffffffffffffffffffffffffffffffffffff16815260200191505060405180910390f35b6102fe6004803603604081101561025157600080fd5b810190808035906020019064010000000081111561026e57600080fd5b82018360208201111561028057600080fd5b803590602001918460018302840111640100000000831117156102a257600080fd5b91908080601f016020809104026020016040519081016040528093929190818152602001838380828437600081840152601f19601f82011690508083019250505050505050919291929080359060200190929190505050610b76565b604051808215151515815260200191505060405180910390f35b6103d16004803603602081101561032e57600080fd5b810190808035906020019064010000000081111561034b57600080fd5b82018360208201111561035d57600080fd5b8035906020019184600183028401116401000000008311171561037f57600080fd5b91908080601f016020809104026020016040519081016040528093929190818152602001838380828437600081840152601f19601f820116905080830192505050505050509192919290505050610c0d565b6040518082815260200191505060405180910390f35b61041d600480360360408110156103fd57600080fd5b810190808035906020019092919080359060200190929190505050610cbb565b604051808215151515815260200191505060405180910390f35b6104636004803603602081101561044d57600080fd5b8101908080359060200190929190505050610d06565b60405180806020018760ff1660ff168152602001806020018673ffffffffffffffffffffffffffffffffffffffff1673ffffffffffffffffffffffffffffffffffffffff16815260200185815260200184151515158152602001838103835289818151815260200191508051906020019080838360005b838110156104f55780820151818401526020810190506104da565b50505050905090810190601f1680156105225780820380516001836020036101000a031916815260200191505b50838103825287818151815260200191508051906020019080838360005b8381101561055b578082015181840152602081019050610540565b50505050905090810190601f1680156105885780820380516001836020036101000a031916815260200191505b509850505050505050505060405180910390f35b6106f9600480360360608110156105b257600080fd5b81019080803590602001906401000000008111156105cf57600080fd5b8201836020820111156105e157600080fd5b8035906020019184600183028401116401000000008311171561060357600080fd5b91908080601f016020809104026020016040519081016040528093929190818152602001838380828437600081840152601f19601f820116905080830192505050505050509192919290803560ff1690602001909291908035906020019064010000000081111561067357600080fd5b82018360208201111561068557600080fd5b803590602001918460018302840111640100000000831117156106a757600080fd5b91908080601f016020809104026020016040519081016040528093929190818152602001838380828437600081840152601f19601f820116905080830192505050505050509192919290505050610eac565b604051808215151515815260200191505060405180910390f35b61073f6004803603602081101561072957600080fd5b81019080803590602001909291905050506112de565b60405180806020018860ff1660ff1681526020018060200187815260200180602001806020018060200186810386528d818151815260200191508051906020019080838360005b838110156107a1578082015181840152602081019050610786565b50505050905090810190601f1680156107ce5780820380516001836020036101000a031916815260200191505b5086810385528b818151815260200191508051906020019080838360005b838110156108075780820151818401526020810190506107ec565b50505050905090810190601f1680156108345780820380516001836020036101000a031916815260200191505b50868103845289818151815260200191508051906020019060200280838360005b83811015610870578082015181840152602081019050610855565b50505050905001868103835288818151815260200191508051906020019060200280838360005b838110156108b2578082015181840152602081019050610897565b50505050905001868103825287818151815260200191508051906020019060200280838360005b838110156108f45780820151818401526020810190506108d9565b505050509050019c5050505050505050505050505060405180910390f35b6109d56004803603604081101561092857600080fd5b810190808035906020019064010000000081111561094557600080fd5b82018360208201111561095757600080fd5b8035906020019184600183028401116401000000008311171561097957600080fd5b91908080601f016020809104026020016040519081016040528093929190818152602001838380828437600081840152601f19601f82011690508083019250505050505050919291929080359060200190929190505050611643565b604051808215151515815260200191505060405180910390f35b6109f76119b6565b6040518082815260200191505060405180910390f35b600080610a19836119bc565b905060007fffffffffffffffffffffffffffffffffffffffffffffffffffffffffffffffff905060008090505b600354811015610ad0578273ffffffffffffffffffffffffffffffffffffffff1660028281548110610a7457fe5b9060005260206000200160009054906101000a900473ffffffffffffffffffffffffffffffffffffffff1673ffffffffffffffffffffffffffffffffffffffff161415610ac357809150610ad0565b8080600101915050610a46565b507fffffffffffffffffffffffffffffffffffffffffffffffffffffffffffffffff811415610b0457600092505050610b0b565b6001925050505b919050565b6001602052816000526040600020602052806000526040600020600091509150505481565b600060028281548110610b4457fe5b9060005260206000200160009054906101000a900473ffffffffffffffffffffffffffffffffffffffff169050919050565b600080610b8284610c0d565b9050600080828152602001908152602001600020600701839080600181540180825580915050906001820390600052602060002001600090919290919091505550600080848152602001908152602001600020600601819080600181540180825580915050906001820390600052602060002001600090919290919091505550600191505092915050565b600080610c19836119bc565b9050600080905060008090505b600354811015610cb0578273ffffffffffffffffffffffffffffffffffffffff1660028281548110610c5457fe5b9060005260206000200160009054906101000a900473ffffffffffffffffffffffffffffffffffffffff1673ffffffffffffffffffffffffffffffffffffffff161415610ca357809150610cb0565b8080600101915050610c26565b508092505050919050565b60008060008481526020019081526020016000206005018290806001815401808255809150509060018203906000526020600020016000909192909190915055506001905092915050565b6000602052806000526040600020600091509050806000018054600181600116156101000203166002900480601f016020809104026020016040519081016040528092919081815260200182805460018160011615610100020316600290048015610db25780601f10610d8757610100808354040283529160200191610db2565b820191906000526020600020905b815481529060010190602001808311610d9557829003601f168201915b5050505050908060010160009054906101000a900460ff1690806002018054600181600116156101000203166002900480601f016020809104026020016040519081016040528092919081815260200182805460018160011615610100020316600290048015610e635780601f10610e3857610100808354040283529160200191610e63565b820191906000526020600020905b815481529060010190602001808311610e4657829003601f168201915b5050505050908060030160009054906101000a900473ffffffffffffffffffffffffffffffffffffffff16908060040154908060080160009054906101000a900460ff16905086565b60006060849050606083905060008560ff16118015610ece575060c88560ff16105b610f40576040517f08c379a000000000000000000000000000000000000000000000000000000000815260040180806020018281038252600f8152602001807f416765206e6f7420636f7272656374000000000000000000000000000000000081525060200191505060405180910390fd5b600082511415610fb8576040517f08c379a00000000000000000000000000000000000000000000000000000000081526004018080602001828103825260118152602001807f506c6561736520656e746572206e616d6500000000000000000000000000000081525060200191505060405180910390fd5b600081511415611030576040517f08c379a00000000000000000000000000000000000000000000000000000000081526004018080602001828103825260138152602001807f506c6561736520656e7465722067656e6465720000000000000000000000000081525060200191505060405180910390fd5b6040518061012001604052808781526020018660ff1681526020018581526020013373ffffffffffffffffffffffffffffffffffffffff168152602001600354815260200160006040519080825280602002602001820160405280156110a55781602001602082028038833980820191505090505b50815260200160006040519080825280602002602001820160405280156110db5781602001602082028038833980820191505090505b50815260200160006040519080825280602002602001820160405280156111115781602001602082028038833980820191505090505b508152602001600115158152506000806003548152602001908152602001600020600082015181600001908051906020019061114e929190611c15565b5060208201518160010160006101000a81548160ff021916908360ff160217905550604082015181600201908051906020019061118c929190611c15565b5060608201518160030160006101000a81548173ffffffffffffffffffffffffffffffffffffffff021916908373ffffffffffffffffffffffffffffffffffffffff1602179055506080820151816004015560a08201518160050190805190602001906111fa929190611c95565b5060c0820151816006019080519060200190611217929190611c95565b5060e0820151816007019080519060200190611234929190611c95565b506101008201518160080160006101000a81548160ff02191690831515021790555090505060023390806001815401808255809150509060018203906000526020600020016000909192909190916101000a81548173ffffffffffffffffffffffffffffffffffffffff021916908373ffffffffffffffffffffffffffffffffffffffff160217905550506003600081548092919060010191905055506001925050509392505050565b606060006060600060608060606112f3611ce2565b6000808a815260200190815260200160002060405180610120016040529081600082018054600181600116156101000203166002900480601f0160208091040260200160405190810160405280929190818152602001828054600181600116156101000203166002900480156113aa5780601f1061137f576101008083540402835291602001916113aa565b820191906000526020600020905b81548152906001019060200180831161138d57829003601f168201915b505050505081526020016001820160009054906101000a900460ff1660ff1660ff168152602001600282018054600181600116156101000203166002900480601f0160208091040260200160405190810160405280929190818152602001828054600181600116156101000203166002900480156114695780601f1061143e57610100808354040283529160200191611469565b820191906000526020600020905b81548152906001019060200180831161144c57829003601f168201915b505050505081526020016003820160009054906101000a900473ffffffffffffffffffffffffffffffffffffffff1673ffffffffffffffffffffffffffffffffffffffff1673ffffffffffffffffffffffffffffffffffffffff168152602001600482015481526020016005820180548060200260200160405190810160405280929190818152602001828054801561152157602002820191906000526020600020905b81548152602001906001019080831161150d575b505050505081526020016006820180548060200260200160405190810160405280929190818152602001828054801561157957602002820191906000526020600020905b815481526020019060010190808311611565575b50505050508152602001600782018054806020026020016040519081016040528092919081815260200182805480156115d157602002820191906000526020600020905b8154815260200190600101908083116115bd575b505050505081526020016008820160009054906101000a900460ff161515151581525050905080600001518160200151826040015183608001518460a001518560c001518660e00151869650849450829250819150809050975097509750975097509750975050919395979092949650565b60008061164f84610c0d565b9050611659611ce2565b60008083815260200190815260200160002060405180610120016040529081600082018054600181600116156101000203166002900480601f0160208091040260200160405190810160405280929190818152602001828054600181600116156101000203166002900480156117105780601f106116e557610100808354040283529160200191611710565b820191906000526020600020905b8154815290600101906020018083116116f357829003601f168201915b505050505081526020016001820160009054906101000a900460ff1660ff1660ff168152602001600282018054600181600116156101000203166002900480601f0160208091040260200160405190810160405280929190818152602001828054600181600116156101000203166002900480156117cf5780601f106117a4576101008083540402835291602001916117cf565b820191906000526020600020905b8154815290600101906020018083116117b257829003601f168201915b505050505081526020016003820160009054906101000a900473ffffffffffffffffffffffffffffffffffffffff1673ffffffffffffffffffffffffffffffffffffffff1673ffffffffffffffffffffffffffffffffffffffff168152602001600482015481526020016005820180548060200260200160405190810160405280929190818152602001828054801561188757602002820191906000526020600020905b815481526020019060010190808311611873575b50505050508152602001600682018054806020026020016040519081016040528092919081815260200182805480156118df57602002820191906000526020600020905b8154815260200190600101908083116118cb575b505050505081526020016007820180548060200260200160405190810160405280929190818152602001828054801561193757602002820191906000526020600020905b815481526020019060010190808311611923575b505050505081526020016008820160009054906101000a900460ff161515151581525050905060008090505b8160e00151518110156119a8578160e00151818151811061198057fe5b602002602001015185141561199b57600193505050506119b0565b8080600101915050611963565b506000925050505b92915050565b60035481565b6000606082905060008090506000806000600290505b602a811015611c0857610100840293508481815181106119ee57fe5b602001015160f81c60f81b60f81c60ff169250846001820181518110611a1057fe5b602001015160f81c60f81b60f81c60ff16915060618373ffffffffffffffffffffffffffffffffffffffff1610158015611a61575060668373ffffffffffffffffffffffffffffffffffffffff1611155b15611a7157605783039250611b0b565b60418373ffffffffffffffffffffffffffffffffffffffff1610158015611aaf575060468373ffffffffffffffffffffffffffffffffffffffff1611155b15611abf57603783039250611b0a565b60308373ffffffffffffffffffffffffffffffffffffffff1610158015611afd575060398373ffffffffffffffffffffffffffffffffffffffff1611155b15611b09576030830392505b5b5b60618273ffffffffffffffffffffffffffffffffffffffff1610158015611b49575060668273ffffffffffffffffffffffffffffffffffffffff1611155b15611b5957605782039150611bf3565b60418273ffffffffffffffffffffffffffffffffffffffff1610158015611b97575060468273ffffffffffffffffffffffffffffffffffffffff1611155b15611ba757603782039150611bf2565b60308273ffffffffffffffffffffffffffffffffffffffff1610158015611be5575060398273ffffffffffffffffffffffffffffffffffffffff1611155b15611bf1576030820391505b5b5b816010840201840193506002810190506119d2565b5082945050505050919050565b828054600181600116156101000203166002900490600052602060002090601f016020900481019282601f10611c5657805160ff1916838001178555611c84565b82800160010185558215611c84579182015b82811115611c83578251825591602001919060010190611c68565b5b509050611c919190611d49565b5090565b828054828255906000526020600020908101928215611cd1579160200282015b82811115611cd0578251825591602001919060010190611cb5565b5b509050611cde9190611d49565b5090565b60405180610120016040528060608152602001600060ff16815260200160608152602001600073ffffffffffffffffffffffffffffffffffffffff168152602001600081526020016060815260200160608152602001606081526020016000151581525090565b611d6b91905b80821115611d67576000816000905550600101611d4f565b5090565b9056fea265627a7a72315820aded9158c3214904e75837e4c2cba7d829da92c0b615171e218950ceffcd033364736f6c63430005100032",
  "source": "pragma solidity >=0.4.21 <0.7.0;\n// pragma experimental ABIEncoderV2;\n\ncontract User {\n\n    struct userS {\n        string Name;\n        uint8 Age;\n        string Gender;\n        address userid;\n        uint index;\n        // string address_string;\n        // bytes32 ProfilePic; // Hash of profilepic\n        uint[] Posts;\n        uint[] Followers;    // Users who are following this user\n        uint[] Following;    // This user is following\n        bool Isuser;\n    }\n\n    //Mappings are useful for O(1) searching \n    mapping(uint => userS) public usersM;\n    mapping(uint => mapping(uint => int)) public followM; // Check if address1 follows address2\n\n    // array containing addresses of all the users as you cannot iterate over the mapping\n    address[] usersA;\n    // total_users is the total count of users\n    uint public total_users;\n\n    function getusersAAt(uint idx) public view returns(address){ \n        return usersA[idx];\n    }\n\n\n    modifier checkuser(uint id) {\n        userS memory u = usersM[id];\n        require(u.Isuser, \"User does not exist!\");\n        _;\n    }\n\n\n    function getUserInfo(uint idx) public view returns (string memory, uint8, string memory, uint, uint[] memory, uint[] memory, uint[] memory){\n        // address temp_address = usersA[idx];\n        userS memory u = usersM[idx];\n        return (u.Name, u.Age, u.Gender,u.index, u.Posts, u.Followers, u.Following);\n    }\n\n    //TODO: check if user already exists\n    function registerUser(string memory _name, uint8 _age, string memory _gender) public returns (bool){\n        \n        // userS memory u = usersM[msg.sender];\n        bytes memory testname = bytes(_name);\n        bytes memory testgender = bytes(_gender);\n        require(_age > 0 && _age < 200, \"Age not correct\");\n        require(testname.length != 0, \"Please enter name\");\n        require(testgender.length != 0, \"Please enter gender\");\n        // require(!userpresent(), \"User already present\");\n        // string memory address_string = AddresstoString(msg.sender);\n        usersM[total_users] = (userS({Name:_name, Age:_age, Gender:_gender,index:total_users, userid:msg.sender,Posts:new uint[](0), Followers:new uint[](0), Following:new uint[](0), Isuser:true}));\n        usersA.push(msg.sender);\n        total_users++;\n        return true;\n    }\n\n    function userpresent(string memory _address) public view returns (bool){\n        address add = parseAddr(_address);\n        int idx = -1;\n        for(uint i = 0;i < total_users;i++)\n        {\n            if(usersA[i]==add)\n            {\n                idx = int(i);\n                break;\n            }\n        }\n        if (idx==-1) {\n            return false;\n        } else {\n            return true;\n        }\n    }\n\n    function getidxFromAddress(string memory _address) public view returns (uint)\n    {\n        address add = parseAddr(_address);\n        uint idx = 0;\n        for(uint i = 0;i < total_users;i++)\n        {\n            if(usersA[i]==add)\n            {\n                idx = i;\n                break;\n            }\n        }\n        return idx;\n    }\n\n    function Follow(string memory _address, int to_follow) public returns (bool)\n    {\n        // https://medium.com/coinmonks/what-the-hack-is-memory-and-storage-in-solidity-6b9e62577305\n        // If you use memory then you wont see changes so always use storage\n        // when updating contract\n        // add to_follow to this users' Following array\n        uint this_user = getidxFromAddress(_address);\n        usersM[this_user].Following.push(uint(to_follow));\n        // add this_user to to_follow users Followers array\n        usersM[uint(to_follow)].Followers.push(this_user);\n        return true;\n\n    }\n\n    // If current user follows the user with index id\n    function CheckFollow(string memory _address, uint id) public returns(bool)\n    {\n        uint userid = getidxFromAddress(_address);\n        userS memory u = usersM[userid];\n\n        for(uint i = 0;i < u.Following.length;i++)\n        {\n            if(id == u.Following[i])\n            {\n                return true;\n            }\n        }\n        return false;\n    }\n\n    // Add _post id to _user\n    function addPost(uint _user, uint _post ) public returns(bool)\n    {\n        usersM[_user].Posts.push(_post);\n        return true;\n    }\n    function parseAddr(string memory _a) internal pure returns (address _parsedAddress) {\n        bytes memory tmp = bytes(_a);\n        uint160 iaddr = 0;\n        uint160 b1;\n        uint160 b2;\n        for (uint i = 2; i < 2 + 2 * 20; i += 2) {\n            iaddr *= 256;\n            b1 = uint160(uint8(tmp[i]));\n            b2 = uint160(uint8(tmp[i + 1]));\n            if ((b1 >= 97) && (b1 <= 102)) {\n                b1 -= 87;\n            } else if ((b1 >= 65) && (b1 <= 70)) {\n                b1 -= 55;\n            } else if ((b1 >= 48) && (b1 <= 57)) {\n                b1 -= 48;\n            }\n            if ((b2 >= 97) && (b2 <= 102)) {\n                b2 -= 87;\n            } else if ((b2 >= 65) && (b2 <= 70)) {\n                b2 -= 55;\n            } else if ((b2 >= 48) && (b2 <= 57)) {\n                b2 -= 48;\n            }\n            iaddr += (b1 * 16 + b2);\n        }\n        return address(iaddr);\n    }\n\n\n\n\n\n    // function append(uint[] storage d, uint x) internal{\n    //     d.push(x);\n    // }\n\n\n}",
  "sourcePath": "/home/arpit/Desktop/github_repos/Dconnect/contracts/User.sol",
  "compiler": {
    "name": "solc",
    "version": "0.5.16+commit.9c3226ce.Emscripten.clang"
  },
  "schemaVersion": "3.0.23",
  "updatedAt": "2020-03-11T12:35:31.753Z",
  "networkType": "ethereum",
  "devdoc": {
    "methods": {}
  },
  "userdoc": {
    "methods": {}
  }
}