{
  "contractName": "User",
  "abi": [
    {
      "constant": true,
      "inputs": [
        {
          "internalType": "address",
          "name": "",
          "type": "address"
        },
        {
          "internalType": "address",
          "name": "",
          "type": "address"
        }
      ],
      "name": "followM",
      "outputs": [
        {
          "internalType": "int256",
          "name": "",
          "type": "int256"
        }
      ],
      "payable": false,
      "stateMutability": "view",
      "type": "function"
    },
    {
      "constant": true,
      "inputs": [
        {
          "internalType": "address",
          "name": "",
          "type": "address"
        }
      ],
      "name": "usersM",
      "outputs": [
        {
          "internalType": "string",
          "name": "Name",
          "type": "string"
        },
        {
          "internalType": "uint8",
          "name": "Age",
          "type": "uint8"
        },
        {
          "internalType": "string",
          "name": "Gender",
          "type": "string"
        },
        {
          "internalType": "address",
          "name": "userid",
          "type": "address"
        },
        {
          "internalType": "bool",
          "name": "Isuser",
          "type": "bool"
        }
      ],
      "payable": false,
      "stateMutability": "view",
      "type": "function"
    },
    {
      "constant": true,
      "inputs": [],
      "name": "getUserInfo",
      "outputs": [
        {
          "internalType": "string",
          "name": "",
          "type": "string"
        },
        {
          "internalType": "uint8",
          "name": "",
          "type": "uint8"
        },
        {
          "internalType": "string",
          "name": "",
          "type": "string"
        },
        {
          "internalType": "address[]",
          "name": "",
          "type": "address[]"
        },
        {
          "internalType": "address[]",
          "name": "",
          "type": "address[]"
        },
        {
          "internalType": "address[]",
          "name": "",
          "type": "address[]"
        }
      ],
      "payable": false,
      "stateMutability": "view",
      "type": "function"
    },
    {
      "constant": false,
      "inputs": [
        {
          "internalType": "string",
          "name": "_name",
          "type": "string"
        },
        {
          "internalType": "uint8",
          "name": "_age",
          "type": "uint8"
        },
        {
          "internalType": "string",
          "name": "_gender",
          "type": "string"
        }
      ],
      "name": "registerUser",
      "outputs": [],
      "payable": false,
      "stateMutability": "nonpayable",
      "type": "function"
    },
    {
      "constant": true,
      "inputs": [
        {
          "internalType": "string",
          "name": "_address",
          "type": "string"
        }
      ],
      "name": "userpresent",
      "outputs": [
        {
          "internalType": "bool",
          "name": "",
          "type": "bool"
        }
      ],
      "payable": false,
      "stateMutability": "view",
      "type": "function"
    }
  ],
  "bytecode": "0x608060405234801561001057600080fd5b50611dd3806100206000396000f3fe608060405234801561001057600080fd5b50600436106100575760003560e01c806311796bfb1461005c5780635d8d15851461012f578063a2b5e32014610303578063ebba769b14610462578063f1e850f1146104da575b600080fd5b6101156004803603602081101561007257600080fd5b810190808035906020019064010000000081111561008f57600080fd5b8201836020820111156100a157600080fd5b803590602001918460018302840111640100000000831117156100c357600080fd5b91908080601f016020809104026020016040519081016040528093929190818152602001838380828437600081840152601f19601f82011690508083019250505050505050919291929050505061064e565b604051808215151515815260200191505060405180910390f35b610137610707565b60405180806020018760ff1660ff1681526020018060200180602001806020018060200186810386528c818151815260200191508051906020019080838360005b83811015610193578082015181840152602081019050610178565b50505050905090810190601f1680156101c05780820380516001836020036101000a031916815260200191505b5086810385528a818151815260200191508051906020019080838360005b838110156101f95780820151818401526020810190506101de565b50505050905090810190601f1680156102265780820380516001836020036101000a031916815260200191505b50868103845289818151815260200191508051906020019060200280838360005b83811015610262578082015181840152602081019050610247565b50505050905001868103835288818151815260200191508051906020019060200280838360005b838110156102a4578082015181840152602081019050610289565b50505050905001868103825287818151815260200191508051906020019060200280838360005b838110156102e65780820151818401526020810190506102cb565b505050509050019b50505050505050505050505060405180910390f35b6104606004803603606081101561031957600080fd5b810190808035906020019064010000000081111561033657600080fd5b82018360208201111561034857600080fd5b8035906020019184600183028401116401000000008311171561036a57600080fd5b91908080601f016020809104026020016040519081016040528093929190818152602001838380828437600081840152601f19601f820116905080830192505050505050509192919290803560ff169060200190929190803590602001906401000000008111156103da57600080fd5b8201836020820111156103ec57600080fd5b8035906020019184600183028401116401000000008311171561040e57600080fd5b91908080601f016020809104026020016040519081016040528093929190818152602001838380828437600081840152601f19601f820116905080830192505050505050509192919290505050610f6d565b005b6104c46004803603604081101561047857600080fd5b81019080803573ffffffffffffffffffffffffffffffffffffffff169060200190929190803573ffffffffffffffffffffffffffffffffffffffff1690602001909291905050506117ae565b6040518082815260200191505060405180910390f35b61051c600480360360208110156104f057600080fd5b81019080803573ffffffffffffffffffffffffffffffffffffffff1690602001909291905050506117d3565b60405180806020018660ff1660ff168152602001806020018573ffffffffffffffffffffffffffffffffffffffff1673ffffffffffffffffffffffffffffffffffffffff16815260200184151515158152602001838103835288818151815260200191508051906020019080838360005b838110156105a857808201518184015260208101905061058d565b50505050905090810190601f1680156105d55780820380516001836020036101000a031916815260200191505b50838103825286818151815260200191508051906020019080838360005b8381101561060e5780820151818401526020810190506105f3565b50505050905090810190601f16801561063b5780820380516001836020036101000a031916815260200191505b5097505050505050505060405180910390f35b60008061065a83611973565b9050600073ffffffffffffffffffffffffffffffffffffffff166000808373ffffffffffffffffffffffffffffffffffffffff1673ffffffffffffffffffffffffffffffffffffffff16815260200190815260200160002060030160009054906101000a900473ffffffffffffffffffffffffffffffffffffffff1673ffffffffffffffffffffffffffffffffffffffff1611156106fc576001915050610702565b60009150505b919050565b606060006060806060803361071a611bcc565b6000808373ffffffffffffffffffffffffffffffffffffffff1673ffffffffffffffffffffffffffffffffffffffff16815260200190815260200160002060405180610100016040529081600082018054600181600116156101000203166002900480601f0160208091040260200160405190810160405280929190818152602001828054600181600116156101000203166002900480156107fd5780601f106107d2576101008083540402835291602001916107fd565b820191906000526020600020905b8154815290600101906020018083116107e057829003601f168201915b505050505081526020016001820160009054906101000a900460ff1660ff1660ff168152602001600282018054600181600116156101000203166002900480601f0160208091040260200160405190810160405280929190818152602001828054600181600116156101000203166002900480156108bc5780601f10610891576101008083540402835291602001916108bc565b820191906000526020600020905b81548152906001019060200180831161089f57829003601f168201915b505050505081526020016003820160009054906101000a900473ffffffffffffffffffffffffffffffffffffffff1673ffffffffffffffffffffffffffffffffffffffff1673ffffffffffffffffffffffffffffffffffffffff168152602001600482018054806020026020016040519081016040528092919081815260200182805480156109a057602002820191906000526020600020905b8160009054906101000a900473ffffffffffffffffffffffffffffffffffffffff1673ffffffffffffffffffffffffffffffffffffffff1681526020019060010190808311610956575b5050505050815260200160058201805480602002602001604051908101604052809291908181526020018280548015610a2e57602002820191906000526020600020905b8160009054906101000a900473ffffffffffffffffffffffffffffffffffffffff1673ffffffffffffffffffffffffffffffffffffffff16815260200190600101908083116109e4575b5050505050815260200160068201805480602002602001604051908101604052809291908181526020018280548015610abc57602002820191906000526020600020905b8160009054906101000a900473ffffffffffffffffffffffffffffffffffffffff1673ffffffffffffffffffffffffffffffffffffffff1681526020019060010190808311610a72575b505050505081526020016007820160009054906101000a900460ff16151515158152505090508060e00151610b59576040517f08c379a00000000000000000000000000000000000000000000000000000000081526004018080602001828103825260148152602001807f5573657220646f6573206e6f742065786973742100000000000000000000000081525060200191505060405180910390fd5b610b61611bcc565b6000803373ffffffffffffffffffffffffffffffffffffffff1673ffffffffffffffffffffffffffffffffffffffff16815260200190815260200160002060405180610100016040529081600082018054600181600116156101000203166002900480601f016020809104026020016040519081016040528092919081815260200182805460018160011615610100020316600290048015610c445780601f10610c1957610100808354040283529160200191610c44565b820191906000526020600020905b815481529060010190602001808311610c2757829003601f168201915b505050505081526020016001820160009054906101000a900460ff1660ff1660ff168152602001600282018054600181600116156101000203166002900480601f016020809104026020016040519081016040528092919081815260200182805460018160011615610100020316600290048015610d035780601f10610cd857610100808354040283529160200191610d03565b820191906000526020600020905b815481529060010190602001808311610ce657829003601f168201915b505050505081526020016003820160009054906101000a900473ffffffffffffffffffffffffffffffffffffffff1673ffffffffffffffffffffffffffffffffffffffff1673ffffffffffffffffffffffffffffffffffffffff16815260200160048201805480602002602001604051908101604052809291908181526020018280548015610de757602002820191906000526020600020905b8160009054906101000a900473ffffffffffffffffffffffffffffffffffffffff1673ffffffffffffffffffffffffffffffffffffffff1681526020019060010190808311610d9d575b5050505050815260200160058201805480602002602001604051908101604052809291908181526020018280548015610e7557602002820191906000526020600020905b8160009054906101000a900473ffffffffffffffffffffffffffffffffffffffff1673ffffffffffffffffffffffffffffffffffffffff1681526020019060010190808311610e2b575b5050505050815260200160068201805480602002602001604051908101604052809291908181526020018280548015610f0357602002820191906000526020600020905b8160009054906101000a900473ffffffffffffffffffffffffffffffffffffffff1673ffffffffffffffffffffffffffffffffffffffff1681526020019060010190808311610eb9575b505050505081526020016007820160009054906101000a900460ff161515151581525050905080600001518160200151826040015183608001518460a001518560c00151859550839350829250819150809050985098509850985098509850505050909192939495565b610f75611bcc565b6000803373ffffffffffffffffffffffffffffffffffffffff1673ffffffffffffffffffffffffffffffffffffffff16815260200190815260200160002060405180610100016040529081600082018054600181600116156101000203166002900480601f0160208091040260200160405190810160405280929190818152602001828054600181600116156101000203166002900480156110585780601f1061102d57610100808354040283529160200191611058565b820191906000526020600020905b81548152906001019060200180831161103b57829003601f168201915b505050505081526020016001820160009054906101000a900460ff1660ff1660ff168152602001600282018054600181600116156101000203166002900480601f0160208091040260200160405190810160405280929190818152602001828054600181600116156101000203166002900480156111175780601f106110ec57610100808354040283529160200191611117565b820191906000526020600020905b8154815290600101906020018083116110fa57829003601f168201915b505050505081526020016003820160009054906101000a900473ffffffffffffffffffffffffffffffffffffffff1673ffffffffffffffffffffffffffffffffffffffff1673ffffffffffffffffffffffffffffffffffffffff168152602001600482018054806020026020016040519081016040528092919081815260200182805480156111fb57602002820191906000526020600020905b8160009054906101000a900473ffffffffffffffffffffffffffffffffffffffff1673ffffffffffffffffffffffffffffffffffffffff16815260200190600101908083116111b1575b505050505081526020016005820180548060200260200160405190810160405280929190818152602001828054801561128957602002820191906000526020600020905b8160009054906101000a900473ffffffffffffffffffffffffffffffffffffffff1673ffffffffffffffffffffffffffffffffffffffff168152602001906001019080831161123f575b505050505081526020016006820180548060200260200160405190810160405280929190818152602001828054801561131757602002820191906000526020600020905b8160009054906101000a900473ffffffffffffffffffffffffffffffffffffffff1673ffffffffffffffffffffffffffffffffffffffff16815260200190600101908083116112cd575b505050505081526020016007820160009054906101000a900460ff16151515158152505090506060849050606083905060008560ff1611801561135d575060c88560ff16105b6113cf576040517f08c379a000000000000000000000000000000000000000000000000000000000815260040180806020018281038252600f8152602001807f416765206e6f7420636f7272656374000000000000000000000000000000000081525060200191505060405180910390fd5b600082511415611447576040517f08c379a00000000000000000000000000000000000000000000000000000000081526004018080602001828103825260118152602001807f506c6561736520656e746572206e616d6500000000000000000000000000000081525060200191505060405180910390fd5b6000815114156114bf576040517f08c379a00000000000000000000000000000000000000000000000000000000081526004018080602001828103825260138152602001807f506c6561736520656e7465722067656e6465720000000000000000000000000081525060200191505060405180910390fd5b600073ffffffffffffffffffffffffffffffffffffffff16836060015173ffffffffffffffffffffffffffffffffffffffff161115611566576040517f08c379a00000000000000000000000000000000000000000000000000000000081526004018080602001828103825260148152602001807f5573657220616c72656164792070726573656e7400000000000000000000000081525060200191505060405180910390fd5b6040518061010001604052808781526020018660ff1681526020018581526020013373ffffffffffffffffffffffffffffffffffffffff16815260200160006040519080825280602002602001820160405280156115d35781602001602082028038833980820191505090505b50815260200160006040519080825280602002602001820160405280156116095781602001602082028038833980820191505090505b508152602001600060405190808252806020026020018201604052801561163f5781602001602082028038833980820191505090505b508152602001600115158152506000803373ffffffffffffffffffffffffffffffffffffffff1673ffffffffffffffffffffffffffffffffffffffff16815260200190815260200160002060008201518160000190805190602001906116a6929190611c2c565b5060208201518160010160006101000a81548160ff021916908360ff16021790555060408201518160020190805190602001906116e4929190611c2c565b5060608201518160030160006101000a81548173ffffffffffffffffffffffffffffffffffffffff021916908373ffffffffffffffffffffffffffffffffffffffff1602179055506080820151816004019080519060200190611748929190611cac565b5060a0820151816005019080519060200190611765929190611cac565b5060c0820151816006019080519060200190611782929190611cac565b5060e08201518160070160006101000a81548160ff021916908315150217905550905050505050505050565b6001602052816000526040600020602052806000526040600020600091509150505481565b6000602052806000526040600020600091509050806000018054600181600116156101000203166002900480601f01602080910402602001604051908101604052809291908181526020018280546001816001161561010002031660029004801561187f5780601f106118545761010080835404028352916020019161187f565b820191906000526020600020905b81548152906001019060200180831161186257829003601f168201915b5050505050908060010160009054906101000a900460ff1690806002018054600181600116156101000203166002900480601f0160208091040260200160405190810160405280929190818152602001828054600181600116156101000203166002900480156119305780601f1061190557610100808354040283529160200191611930565b820191906000526020600020905b81548152906001019060200180831161191357829003601f168201915b5050505050908060030160009054906101000a900473ffffffffffffffffffffffffffffffffffffffff16908060070160009054906101000a900460ff16905085565b6000606082905060008090506000806000600290505b602a811015611bbf57610100840293508481815181106119a557fe5b602001015160f81c60f81b60f81c60ff1692508460018201815181106119c757fe5b602001015160f81c60f81b60f81c60ff16915060618373ffffffffffffffffffffffffffffffffffffffff1610158015611a18575060668373ffffffffffffffffffffffffffffffffffffffff1611155b15611a2857605783039250611ac2565b60418373ffffffffffffffffffffffffffffffffffffffff1610158015611a66575060468373ffffffffffffffffffffffffffffffffffffffff1611155b15611a7657603783039250611ac1565b60308373ffffffffffffffffffffffffffffffffffffffff1610158015611ab4575060398373ffffffffffffffffffffffffffffffffffffffff1611155b15611ac0576030830392505b5b5b60618273ffffffffffffffffffffffffffffffffffffffff1610158015611b00575060668273ffffffffffffffffffffffffffffffffffffffff1611155b15611b1057605782039150611baa565b60418273ffffffffffffffffffffffffffffffffffffffff1610158015611b4e575060468273ffffffffffffffffffffffffffffffffffffffff1611155b15611b5e57603782039150611ba9565b60308273ffffffffffffffffffffffffffffffffffffffff1610158015611b9c575060398273ffffffffffffffffffffffffffffffffffffffff1611155b15611ba8576030820391505b5b5b81601084020184019350600281019050611989565b5082945050505050919050565b60405180610100016040528060608152602001600060ff16815260200160608152602001600073ffffffffffffffffffffffffffffffffffffffff1681526020016060815260200160608152602001606081526020016000151581525090565b828054600181600116156101000203166002900490600052602060002090601f016020900481019282601f10611c6d57805160ff1916838001178555611c9b565b82800160010185558215611c9b579182015b82811115611c9a578251825591602001919060010190611c7f565b5b509050611ca89190611d36565b5090565b828054828255906000526020600020908101928215611d25579160200282015b82811115611d245782518260006101000a81548173ffffffffffffffffffffffffffffffffffffffff021916908373ffffffffffffffffffffffffffffffffffffffff16021790555091602001919060010190611ccc565b5b509050611d329190611d5b565b5090565b611d5891905b80821115611d54576000816000905550600101611d3c565b5090565b90565b611d9b91905b80821115611d9757600081816101000a81549073ffffffffffffffffffffffffffffffffffffffff021916905550600101611d61565b5090565b9056fea265627a7a723158200f376ceeb416a01a586843377e5a46aeec9348bd76c4f89da0b84d72a918287d64736f6c63430005100032",
  "source": "pragma solidity >=0.4.21 <0.7.0;\n\n\ncontract User {\n\n    struct userS {\n        string Name;\n        uint8 Age;\n        string Gender;\n        address userid;\n        // bytes32 ProfilePic; // Hash of profilepic\n        address[] Posts;\n        address[] Followers;    // Users who are following this user\n        address[] Following;    // The user is following\n        bool Isuser;\n    }\n\n    //Mappings are useful for O(1) searching \n    mapping(address => userS) public usersM;\n    mapping(address => mapping(address => int)) public followM; // Check if address1 follows address2\n\n    modifier checkuser(address id) {\n        userS memory u = usersM[id];\n        require(u.Isuser, \"User does not exist!\");\n        _;\n    }\n\n\n\n    function getUserInfo() public view checkuser(msg.sender)\n    returns (string memory, uint8, string memory, address[] memory, address[] memory, address[] memory){\n        userS memory u = usersM[msg.sender];\n        return (u.Name, u.Age, u.Gender, u.Posts, u.Followers, u.Following);\n    }\n\n    function registerUser(string memory _name, uint8 _age, string memory _gender) public {\n        userS memory u = usersM[msg.sender];\n        bytes memory testname = bytes(_name);\n        bytes memory testgender = bytes(_gender);\n        require(_age > 0 && _age < 200, \"Age not correct\");\n        require(testname.length != 0, \"Please enter name\");\n        require(testgender.length != 0, \"Please enter gender\");\n        require(!(u.userid>address(0x0)), \"User already present\");\n        usersM[msg.sender] = userS({Name:_name, Age:_age, Gender:_gender, userid:msg.sender,Posts:new address[](0), Followers:new address[](0), Following:new address[](0), Isuser:true});\n        // return true;\n    }\n\n    function userpresent(string memory _address) public view returns (bool){\n        address add = parseAddr(_address);\n        if (usersM[add].userid>address(0x0)) {\n            return true;\n        } else {\n            return false;\n        }\n    }\n\n    function parseAddr(string memory _a) internal pure returns (address _parsedAddress) {\n        bytes memory tmp = bytes(_a);\n        uint160 iaddr = 0;\n        uint160 b1;\n        uint160 b2;\n        for (uint i = 2; i < 2 + 2 * 20; i += 2) {\n            iaddr *= 256;\n            b1 = uint160(uint8(tmp[i]));\n            b2 = uint160(uint8(tmp[i + 1]));\n            if ((b1 >= 97) && (b1 <= 102)) {\n                b1 -= 87;\n            } else if ((b1 >= 65) && (b1 <= 70)) {\n                b1 -= 55;\n            } else if ((b1 >= 48) && (b1 <= 57)) {\n                b1 -= 48;\n            }\n            if ((b2 >= 97) && (b2 <= 102)) {\n                b2 -= 87;\n            } else if ((b2 >= 65) && (b2 <= 70)) {\n                b2 -= 55;\n            } else if ((b2 >= 48) && (b2 <= 57)) {\n                b2 -= 48;\n            }\n            iaddr += (b1 * 16 + b2);\n        }\n        return address(iaddr);\n    }\n\n\n\n\n\n\n\n}",
  "sourcePath": "/home/arpit/Desktop/github_repos/Dconnect/contracts/User.sol",
  "compiler": {
    "name": "solc",
    "version": "0.5.16+commit.9c3226ce.Emscripten.clang"
  },
  "schemaVersion": "3.0.23",
  "updatedAt": "2020-03-06T07:24:21.942Z",
  "networkType": "ethereum",
  "devdoc": {
    "methods": {}
  },
  "userdoc": {
    "methods": {}
  }
}