{
  "contractName": "User",
  "abi": [
    {
      "constant": true,
      "inputs": [],
      "name": "total_users",
      "outputs": [
        {
          "internalType": "uint256",
          "name": "",
          "type": "uint256"
        }
      ],
      "payable": false,
      "stateMutability": "view",
      "type": "function"
    },
    {
      "constant": true,
      "inputs": [
        {
          "internalType": "uint256",
          "name": "",
          "type": "uint256"
        }
      ],
      "name": "usersM",
      "outputs": [
        {
          "internalType": "string",
          "name": "Name",
          "type": "string"
        },
        {
          "internalType": "string",
          "name": "Bio",
          "type": "string"
        },
        {
          "internalType": "address",
          "name": "userid",
          "type": "address"
        },
        {
          "internalType": "uint256",
          "name": "index",
          "type": "uint256"
        }
      ],
      "payable": false,
      "stateMutability": "view",
      "type": "function"
    },
    {
      "constant": true,
      "inputs": [
        {
          "internalType": "uint256",
          "name": "idx",
          "type": "uint256"
        }
      ],
      "name": "getusersAAt",
      "outputs": [
        {
          "internalType": "address",
          "name": "",
          "type": "address"
        }
      ],
      "payable": false,
      "stateMutability": "view",
      "type": "function"
    },
    {
      "constant": true,
      "inputs": [
        {
          "internalType": "uint256",
          "name": "idx",
          "type": "uint256"
        }
      ],
      "name": "getUserInfo",
      "outputs": [
        {
          "internalType": "string",
          "name": "",
          "type": "string"
        },
        {
          "internalType": "string",
          "name": "",
          "type": "string"
        },
        {
          "internalType": "uint256",
          "name": "",
          "type": "uint256"
        },
        {
          "internalType": "uint256[]",
          "name": "",
          "type": "uint256[]"
        },
        {
          "internalType": "uint256[]",
          "name": "",
          "type": "uint256[]"
        },
        {
          "internalType": "uint256[]",
          "name": "",
          "type": "uint256[]"
        },
        {
          "internalType": "uint256[]",
          "name": "",
          "type": "uint256[]"
        }
      ],
      "payable": false,
      "stateMutability": "view",
      "type": "function"
    },
    {
      "constant": true,
      "inputs": [
        {
          "internalType": "uint256",
          "name": "idx",
          "type": "uint256"
        }
      ],
      "name": "getUpvotedPosts",
      "outputs": [
        {
          "internalType": "uint256[]",
          "name": "",
          "type": "uint256[]"
        }
      ],
      "payable": false,
      "stateMutability": "view",
      "type": "function"
    },
    {
      "constant": false,
      "inputs": [
        {
          "internalType": "string",
          "name": "_name",
          "type": "string"
        },
        {
          "internalType": "string",
          "name": "_bio",
          "type": "string"
        }
      ],
      "name": "registerUser",
      "outputs": [
        {
          "internalType": "bool",
          "name": "",
          "type": "bool"
        }
      ],
      "payable": false,
      "stateMutability": "nonpayable",
      "type": "function"
    },
    {
      "constant": true,
      "inputs": [
        {
          "internalType": "string",
          "name": "_address",
          "type": "string"
        }
      ],
      "name": "userpresent",
      "outputs": [
        {
          "internalType": "bool",
          "name": "",
          "type": "bool"
        }
      ],
      "payable": false,
      "stateMutability": "view",
      "type": "function"
    },
    {
      "constant": true,
      "inputs": [
        {
          "internalType": "string",
          "name": "_address",
          "type": "string"
        }
      ],
      "name": "getidxFromAddress",
      "outputs": [
        {
          "internalType": "uint256",
          "name": "",
          "type": "uint256"
        }
      ],
      "payable": false,
      "stateMutability": "view",
      "type": "function"
    },
    {
      "constant": false,
      "inputs": [
        {
          "internalType": "string",
          "name": "_address",
          "type": "string"
        },
        {
          "internalType": "int256",
          "name": "to_follow",
          "type": "int256"
        }
      ],
      "name": "Follow",
      "outputs": [
        {
          "internalType": "bool",
          "name": "",
          "type": "bool"
        }
      ],
      "payable": false,
      "stateMutability": "nonpayable",
      "type": "function"
    },
    {
      "constant": true,
      "inputs": [
        {
          "internalType": "string",
          "name": "_address",
          "type": "string"
        },
        {
          "internalType": "uint256",
          "name": "id",
          "type": "uint256"
        }
      ],
      "name": "CheckFollow",
      "outputs": [
        {
          "internalType": "bool",
          "name": "",
          "type": "bool"
        }
      ],
      "payable": false,
      "stateMutability": "view",
      "type": "function"
    },
    {
      "constant": false,
      "inputs": [
        {
          "internalType": "uint256",
          "name": "_user",
          "type": "uint256"
        },
        {
          "internalType": "uint256",
          "name": "_post",
          "type": "uint256"
        }
      ],
      "name": "addPost",
      "outputs": [
        {
          "internalType": "bool",
          "name": "",
          "type": "bool"
        }
      ],
      "payable": false,
      "stateMutability": "nonpayable",
      "type": "function"
    },
    {
      "constant": false,
      "inputs": [
        {
          "internalType": "uint256",
          "name": "_userid",
          "type": "uint256"
        },
        {
          "internalType": "uint256",
          "name": "_postid",
          "type": "uint256"
        }
      ],
      "name": "BookmarkPost",
      "outputs": [
        {
          "internalType": "bool",
          "name": "",
          "type": "bool"
        }
      ],
      "payable": false,
      "stateMutability": "nonpayable",
      "type": "function"
    },
    {
      "constant": false,
      "inputs": [
        {
          "internalType": "uint256",
          "name": "_userid",
          "type": "uint256"
        },
        {
          "internalType": "uint256",
          "name": "_postid",
          "type": "uint256"
        }
      ],
      "name": "UpvotePost",
      "outputs": [
        {
          "internalType": "bool",
          "name": "",
          "type": "bool"
        }
      ],
      "payable": false,
      "stateMutability": "nonpayable",
      "type": "function"
    },
    {
      "constant": true,
      "inputs": [
        {
          "internalType": "uint256",
          "name": "_userid",
          "type": "uint256"
        },
        {
          "internalType": "uint256",
          "name": "_postid",
          "type": "uint256"
        }
      ],
      "name": "CheckBookmark",
      "outputs": [
        {
          "internalType": "bool",
          "name": "",
          "type": "bool"
        }
      ],
      "payable": false,
      "stateMutability": "view",
      "type": "function"
    }
  ],
  "bytecode": "0x608060405234801561001057600080fd5b50612715806100206000396000f3fe608060405234801561001057600080fd5b50600436106100ea5760003560e01c80637bcd3a241161008c578063d379dadf11610066578063d379dadf14610806578063d524a59714610a40578063e0e84ab114610a90578063e7cc62bd14610b6d576100ea565b80637bcd3a241461061957806383db1548146106695780639e371219146106b9576100ea565b806325ed0f65116100c857806325ed0f651461039a57806336ad1cd3146104775780634a30ff0a146104c757806352788dd014610596576100ea565b806311796bfb146100ef5780631d2e4afd146101c257806323dfe8141461032c575b600080fd5b6101a86004803603602081101561010557600080fd5b810190808035906020019064010000000081111561012257600080fd5b82018360208201111561013457600080fd5b8035906020019184600183028401116401000000008311171561015657600080fd5b91908080601f016020809104026020016040519081016040528093929190818152602001838380828437600081840152601f19601f820116905080830192505050505050509192919290505050610b8b565b604051808215151515815260200191505060405180910390f35b610312600480360360408110156101d857600080fd5b81019080803590602001906401000000008111156101f557600080fd5b82018360208201111561020757600080fd5b8035906020019184600183028401116401000000008311171561022957600080fd5b91908080601f016020809104026020016040519081016040528093929190818152602001838380828437600081840152601f19601f8201169050808301925050505050505091929192908035906020019064010000000081111561028c57600080fd5b82018360208201111561029e57600080fd5b803590602001918460018302840111640100000000831117156102c057600080fd5b91908080601f016020809104026020016040519081016040528093929190818152602001838380828437600081840152601f19601f820116905080830192505050505050509192919290505050610c8e565b604051808215151515815260200191505060405180910390f35b6103586004803603602081101561034257600080fd5b810190808035906020019092919050505061100c565b604051808273ffffffffffffffffffffffffffffffffffffffff1673ffffffffffffffffffffffffffffffffffffffff16815260200191505060405180910390f35b61045d600480360360408110156103b057600080fd5b81019080803590602001906401000000008111156103cd57600080fd5b8201836020820111156103df57600080fd5b8035906020019184600183028401116401000000008311171561040157600080fd5b91908080601f016020809104026020016040519081016040528093929190818152602001838380828437600081840152601f19601f8201169050808301925050505050505091929192908035906020019092919050505061104d565b604051808215151515815260200191505060405180910390f35b6104ad6004803603604081101561048d57600080fd5b8101908080359060200190929190803590602001909291905050506110e4565b604051808215151515815260200191505060405180910390f35b610580600480360360208110156104dd57600080fd5b81019080803590602001906401000000008111156104fa57600080fd5b82018360208201111561050c57600080fd5b8035906020019184600183028401116401000000008311171561052e57600080fd5b91908080601f016020809104026020016040519081016040528093929190818152602001838380828437600081840152601f19601f8201169050808301925050505050505091929192905050506114c1565b6040518082815260200191505060405180910390f35b6105c2600480360360208110156105ac57600080fd5b810190808035906020019092919050505061156f565b6040518080602001828103825283818151815260200191508051906020019060200280838360005b838110156106055780820151818401526020810190506105ea565b505050509050019250505060405180910390f35b61064f6004803603604081101561062f57600080fd5b810190808035906020019092919080359060200190929190505050611903565b604051808215151515815260200191505060405180910390f35b61069f6004803603604081101561067f57600080fd5b81019080803590602001909291908035906020019092919050505061194e565b604051808215151515815260200191505060405180910390f35b6106e5600480360360208110156106cf57600080fd5b8101908080359060200190929190505050611999565b6040518080602001806020018573ffffffffffffffffffffffffffffffffffffffff1673ffffffffffffffffffffffffffffffffffffffff168152602001848152602001838103835287818151815260200191508051906020019080838360005b83811015610761578082015181840152602081019050610746565b50505050905090810190601f16801561078e5780820380516001836020036101000a031916815260200191505b50838103825286818151815260200191508051906020019080838360005b838110156107c75780820151818401526020810190506107ac565b50505050905090810190601f1680156107f45780820380516001836020036101000a031916815260200191505b50965050505050505060405180910390f35b6108326004803603602081101561081c57600080fd5b8101908080359060200190929190505050611b19565b6040518080602001806020018881526020018060200180602001806020018060200187810387528e818151815260200191508051906020019080838360005b8381101561088c578082015181840152602081019050610871565b50505050905090810190601f1680156108b95780820380516001836020036101000a031916815260200191505b5087810386528d818151815260200191508051906020019080838360005b838110156108f25780820151818401526020810190506108d7565b50505050905090810190601f16801561091f5780820380516001836020036101000a031916815260200191505b5087810385528b818151815260200191508051906020019060200280838360005b8381101561095b578082015181840152602081019050610940565b5050505090500187810384528a818151815260200191508051906020019060200280838360005b8381101561099d578082015181840152602081019050610982565b50505050905001878103835289818151815260200191508051906020019060200280838360005b838110156109df5780820151818401526020810190506109c4565b50505050905001878103825288818151815260200191508051906020019060200280838360005b83811015610a21578082015181840152602081019050610a06565b505050509050019d505050505050505050505050505060405180910390f35b610a7660048036036040811015610a5657600080fd5b810190808035906020019092919080359060200190929190505050611ef7565b604051808215151515815260200191505060405180910390f35b610b5360048036036040811015610aa657600080fd5b8101908080359060200190640100000000811115610ac357600080fd5b820183602082011115610ad557600080fd5b80359060200191846001830284011164010000000083111715610af757600080fd5b91908080601f016020809104026020016040519081016040528093929190818152602001838380828437600081840152601f19601f82011690508083019250505050505050919291929080359060200190929190505050611f42565b604051808215151515815260200191505060405180910390f35b610b7561232d565b6040518082815260200191505060405180910390f35b600080610b9783612333565b905060007fffffffffffffffffffffffffffffffffffffffffffffffffffffffffffffffff905060008090505b600254811015610c4e578273ffffffffffffffffffffffffffffffffffffffff1660018281548110610bf257fe5b9060005260206000200160009054906101000a900473ffffffffffffffffffffffffffffffffffffffff1673ffffffffffffffffffffffffffffffffffffffff161415610c4157809150610c4e565b8080600101915050610bc4565b507fffffffffffffffffffffffffffffffffffffffffffffffffffffffffffffffff811415610c8257600092505050610c89565b6001925050505b919050565b60006060839050600081511415610d0d576040517f08c379a00000000000000000000000000000000000000000000000000000000081526004018080602001828103825260118152602001807f506c6561736520656e746572206e616d6500000000000000000000000000000081525060200191505060405180910390fd5b6040518061012001604052808581526020018481526020013373ffffffffffffffffffffffffffffffffffffffff16815260200160025481526020016000604051908082528060200260200182016040528015610d795781602001602082028038833980820191505090505b5081526020016000604051908082528060200260200182016040528015610daf5781602001602082028038833980820191505090505b5081526020016000604051908082528060200260200182016040528015610de55781602001602082028038833980820191505090505b5081526020016000604051908082528060200260200182016040528015610e1b5781602001602082028038833980820191505090505b5081526020016000604051908082528060200260200182016040528015610e515781602001602082028038833980820191505090505b5081525060008060025481526020019081526020016000206000820151816000019080519060200190610e8592919061258c565b506020820151816001019080519060200190610ea292919061258c565b5060408201518160020160006101000a81548173ffffffffffffffffffffffffffffffffffffffff021916908373ffffffffffffffffffffffffffffffffffffffff160217905550606082015181600301556080820151816004019080519060200190610f1092919061260c565b5060a0820151816005019080519060200190610f2d92919061260c565b5060c0820151816006019080519060200190610f4a92919061260c565b5060e0820151816007019080519060200190610f6792919061260c565b50610100820151816008019080519060200190610f8592919061260c565b5090505060013390806001815401808255809150509060018203906000526020600020016000909192909190916101000a81548173ffffffffffffffffffffffffffffffffffffffff021916908373ffffffffffffffffffffffffffffffffffffffff16021790555050600260008154809291906001019190505550600191505092915050565b60006001828154811061101b57fe5b9060005260206000200160009054906101000a900473ffffffffffffffffffffffffffffffffffffffff169050919050565b600080611059846114c1565b9050600080828152602001908152602001600020600601839080600181540180825580915050906001820390600052602060002001600090919290919091505550600080848152602001908152602001600020600501819080600181540180825580915050906001820390600052602060002001600090919290919091505550600191505092915050565b60006110ee612659565b60008085815260200190815260200160002060405180610120016040529081600082018054600181600116156101000203166002900480601f0160208091040260200160405190810160405280929190818152602001828054600181600116156101000203166002900480156111a55780601f1061117a576101008083540402835291602001916111a5565b820191906000526020600020905b81548152906001019060200180831161118857829003601f168201915b50505050508152602001600182018054600181600116156101000203166002900480601f0160208091040260200160405190810160405280929190818152602001828054600181600116156101000203166002900480156112475780601f1061121c57610100808354040283529160200191611247565b820191906000526020600020905b81548152906001019060200180831161122a57829003601f168201915b505050505081526020016002820160009054906101000a900473ffffffffffffffffffffffffffffffffffffffff1673ffffffffffffffffffffffffffffffffffffffff1673ffffffffffffffffffffffffffffffffffffffff16815260200160038201548152602001600482018054806020026020016040519081016040528092919081815260200182805480156112ff57602002820191906000526020600020905b8154815260200190600101908083116112eb575b505050505081526020016005820180548060200260200160405190810160405280929190818152602001828054801561135757602002820191906000526020600020905b815481526020019060010190808311611343575b50505050508152602001600682018054806020026020016040519081016040528092919081815260200182805480156113af57602002820191906000526020600020905b81548152602001906001019080831161139b575b505050505081526020016007820180548060200260200160405190810160405280929190818152602001828054801561140757602002820191906000526020600020905b8154815260200190600101908083116113f3575b505050505081526020016008820180548060200260200160405190810160405280929190818152602001828054801561145f57602002820191906000526020600020905b81548152602001906001019080831161144b575b505050505081525050905060008090505b8160e00151518110156114b457838260e00151828151811061148e57fe5b602002602001015114156114a7576001925050506114bb565b8080600101915050611470565b5060009150505b92915050565b6000806114cd83612333565b9050600080905060008090505b600254811015611564578273ffffffffffffffffffffffffffffffffffffffff166001828154811061150857fe5b9060005260206000200160009054906101000a900473ffffffffffffffffffffffffffffffffffffffff1673ffffffffffffffffffffffffffffffffffffffff16141561155757809150611564565b80806001019150506114da565b508092505050919050565b6060611579612659565b60008084815260200190815260200160002060405180610120016040529081600082018054600181600116156101000203166002900480601f0160208091040260200160405190810160405280929190818152602001828054600181600116156101000203166002900480156116305780601f1061160557610100808354040283529160200191611630565b820191906000526020600020905b81548152906001019060200180831161161357829003601f168201915b50505050508152602001600182018054600181600116156101000203166002900480601f0160208091040260200160405190810160405280929190818152602001828054600181600116156101000203166002900480156116d25780601f106116a7576101008083540402835291602001916116d2565b820191906000526020600020905b8154815290600101906020018083116116b557829003601f168201915b505050505081526020016002820160009054906101000a900473ffffffffffffffffffffffffffffffffffffffff1673ffffffffffffffffffffffffffffffffffffffff1673ffffffffffffffffffffffffffffffffffffffff168152602001600382015481526020016004820180548060200260200160405190810160405280929190818152602001828054801561178a57602002820191906000526020600020905b815481526020019060010190808311611776575b50505050508152602001600582018054806020026020016040519081016040528092919081815260200182805480156117e257602002820191906000526020600020905b8154815260200190600101908083116117ce575b505050505081526020016006820180548060200260200160405190810160405280929190818152602001828054801561183a57602002820191906000526020600020905b815481526020019060010190808311611826575b505050505081526020016007820180548060200260200160405190810160405280929190818152602001828054801561189257602002820191906000526020600020905b81548152602001906001019080831161187e575b50505050508152602001600882018054806020026020016040519081016040528092919081815260200182805480156118ea57602002820191906000526020600020905b8154815260200190600101908083116118d6575b5050505050815250509050806101000151915050919050565b60008060008481526020019081526020016000206007018290806001815401808255809150509060018203906000526020600020016000909192909190915055506001905092915050565b60008060008481526020019081526020016000206004018290806001815401808255809150509060018203906000526020600020016000909192909190915055506001905092915050565b6000602052806000526040600020600091509050806000018054600181600116156101000203166002900480601f016020809104026020016040519081016040528092919081815260200182805460018160011615610100020316600290048015611a455780601f10611a1a57610100808354040283529160200191611a45565b820191906000526020600020905b815481529060010190602001808311611a2857829003601f168201915b505050505090806001018054600181600116156101000203166002900480601f016020809104026020016040519081016040528092919081815260200182805460018160011615610100020316600290048015611ae35780601f10611ab857610100808354040283529160200191611ae3565b820191906000526020600020905b815481529060010190602001808311611ac657829003601f168201915b5050505050908060020160009054906101000a900473ffffffffffffffffffffffffffffffffffffffff16908060030154905084565b6060806000606080606080611b2c612659565b6000808a815260200190815260200160002060405180610120016040529081600082018054600181600116156101000203166002900480601f016020809104026020016040519081016040528092919081815260200182805460018160011615610100020316600290048015611be35780601f10611bb857610100808354040283529160200191611be3565b820191906000526020600020905b815481529060010190602001808311611bc657829003601f168201915b50505050508152602001600182018054600181600116156101000203166002900480601f016020809104026020016040519081016040528092919081815260200182805460018160011615610100020316600290048015611c855780601f10611c5a57610100808354040283529160200191611c85565b820191906000526020600020905b815481529060010190602001808311611c6857829003601f168201915b505050505081526020016002820160009054906101000a900473ffffffffffffffffffffffffffffffffffffffff1673ffffffffffffffffffffffffffffffffffffffff1673ffffffffffffffffffffffffffffffffffffffff1681526020016003820154815260200160048201805480602002602001604051908101604052809291908181526020018280548015611d3d57602002820191906000526020600020905b815481526020019060010190808311611d29575b5050505050815260200160058201805480602002602001604051908101604052809291908181526020018280548015611d9557602002820191906000526020600020905b815481526020019060010190808311611d81575b5050505050815260200160068201805480602002602001604051908101604052809291908181526020018280548015611ded57602002820191906000526020600020905b815481526020019060010190808311611dd9575b5050505050815260200160078201805480602002602001604051908101604052809291908181526020018280548015611e4557602002820191906000526020600020905b815481526020019060010190808311611e31575b5050505050815260200160088201805480602002602001604051908101604052809291908181526020018280548015611e9d57602002820191906000526020600020905b815481526020019060010190808311611e89575b505050505081525050905080600001518160200151826060015183608001518460a001518560c001518660e00151869650859550839350829250819150809050975097509750975097509750975050919395979092949650565b60008060008481526020019081526020016000206008018290806001815401808255809150509060018203906000526020600020016000909192909190915055506001905092915050565b600080611f4e846114c1565b9050611f58612659565b60008083815260200190815260200160002060405180610120016040529081600082018054600181600116156101000203166002900480601f01602080910402602001604051908101604052809291908181526020018280546001816001161561010002031660029004801561200f5780601f10611fe45761010080835404028352916020019161200f565b820191906000526020600020905b815481529060010190602001808311611ff257829003601f168201915b50505050508152602001600182018054600181600116156101000203166002900480601f0160208091040260200160405190810160405280929190818152602001828054600181600116156101000203166002900480156120b15780601f10612086576101008083540402835291602001916120b1565b820191906000526020600020905b81548152906001019060200180831161209457829003601f168201915b505050505081526020016002820160009054906101000a900473ffffffffffffffffffffffffffffffffffffffff1673ffffffffffffffffffffffffffffffffffffffff1673ffffffffffffffffffffffffffffffffffffffff168152602001600382015481526020016004820180548060200260200160405190810160405280929190818152602001828054801561216957602002820191906000526020600020905b815481526020019060010190808311612155575b50505050508152602001600582018054806020026020016040519081016040528092919081815260200182805480156121c157602002820191906000526020600020905b8154815260200190600101908083116121ad575b505050505081526020016006820180548060200260200160405190810160405280929190818152602001828054801561221957602002820191906000526020600020905b815481526020019060010190808311612205575b505050505081526020016007820180548060200260200160405190810160405280929190818152602001828054801561227157602002820191906000526020600020905b81548152602001906001019080831161225d575b50505050508152602001600882018054806020026020016040519081016040528092919081815260200182805480156122c957602002820191906000526020600020905b8154815260200190600101908083116122b5575b505050505081525050905060008090505b8160c001515181101561231f578160c0015181815181106122f757fe5b60200260200101518514156123125760019350505050612327565b80806001019150506122da565b506000925050505b92915050565b60025481565b6000606082905060008090506000806000600290505b602a81101561257f576101008402935084818151811061236557fe5b602001015160f81c60f81b60f81c60ff16925084600182018151811061238757fe5b602001015160f81c60f81b60f81c60ff16915060618373ffffffffffffffffffffffffffffffffffffffff16101580156123d8575060668373ffffffffffffffffffffffffffffffffffffffff1611155b156123e857605783039250612482565b60418373ffffffffffffffffffffffffffffffffffffffff1610158015612426575060468373ffffffffffffffffffffffffffffffffffffffff1611155b1561243657603783039250612481565b60308373ffffffffffffffffffffffffffffffffffffffff1610158015612474575060398373ffffffffffffffffffffffffffffffffffffffff1611155b15612480576030830392505b5b5b60618273ffffffffffffffffffffffffffffffffffffffff16101580156124c0575060668273ffffffffffffffffffffffffffffffffffffffff1611155b156124d05760578203915061256a565b60418273ffffffffffffffffffffffffffffffffffffffff161015801561250e575060468273ffffffffffffffffffffffffffffffffffffffff1611155b1561251e57603782039150612569565b60308273ffffffffffffffffffffffffffffffffffffffff161015801561255c575060398273ffffffffffffffffffffffffffffffffffffffff1611155b15612568576030820391505b5b5b81601084020184019350600281019050612349565b5082945050505050919050565b828054600181600116156101000203166002900490600052602060002090601f016020900481019282601f106125cd57805160ff19168380011785556125fb565b828001600101855582156125fb579182015b828111156125fa5782518255916020019190600101906125df565b5b50905061260891906126bb565b5090565b828054828255906000526020600020908101928215612648579160200282015b8281111561264757825182559160200191906001019061262c565b5b50905061265591906126bb565b5090565b6040518061012001604052806060815260200160608152602001600073ffffffffffffffffffffffffffffffffffffffff1681526020016000815260200160608152602001606081526020016060815260200160608152602001606081525090565b6126dd91905b808211156126d95760008160009055506001016126c1565b5090565b9056fea265627a7a72315820611dd079ef3c428edee2c9f26b28199c4559ec1ef36c55e32ab6fe6c2d75253a64736f6c63430005100032",
  "source": "pragma solidity >=0.4.21 <0.7.0;\n// pragma experimental ABIEncoderV2;\n\ncontract User {\n\n    struct userS {\n        string Name;\n        string Bio;\n        address userid;\n        uint index;\n        // string ProfilePicHash; // Hash of profilepic\n        uint[] Posts;\n        uint[] Followers;    // Users who are following this user\n        uint[] Following;    // This user is following\n        uint[] BookmarkedPosts; // Bookmarked posts\n        uint[] UpvotedPosts;    // Posts this user has upvoted\n    }\n\n    //Mappings are useful for O(1) searching \n    mapping(uint => userS) public usersM;\n    // mapping(uint => mapping(uint => int)) public followM; // Check if address1 follows address2\n\n    // array containing addresses of all the users as you cannot iterate over the mapping\n    address[] usersA;\n    // total_users is the total count of users\n    uint public total_users;\n\n    function getusersAAt(uint idx) public view returns(address){ \n        return usersA[idx];\n    }\n\n\n    // modifier checkuser(uint id) {\n    //     userS memory u = usersM[id];\n    //     require(u.Isuser, \"User does not exist!\");\n    //     _;\n    // }\n\n\n    function getUserInfo(uint idx) public view returns (string memory, string memory, uint, uint[] memory, uint[] memory, uint[] memory, uint[] memory) {\n        userS memory u = usersM[idx];\n        return (u.Name, u.Bio, u.index, u.Posts, u.Followers, u.Following, u.BookmarkedPosts);\n    }\n\n    function getUpvotedPosts(uint idx) public view returns(uint[] memory)\n    {\n        userS memory u = usersM[idx];\n        return u.UpvotedPosts;\n    }\n\n    function registerUser(string memory _name, string memory _bio) public returns (bool){\n        bytes memory testname = bytes(_name);\n        // bytes memory testbio = bytes(_bio);\n        require(testname.length != 0, \"Please enter name\");\n        // require(testbio.length != 0, \"Please enter gender\");\n        usersM[total_users] = (userS({Name:_name, Bio:_bio, userid:msg.sender, index:total_users, Posts:new uint[](0), Followers:new uint[](0), Following:new uint[](0), BookmarkedPosts:new uint[](0), UpvotedPosts:new uint[](0)}));\n        usersA.push(msg.sender);\n        total_users++;\n        return true;\n    }\n\n    function userpresent(string memory _address) public view returns (bool){\n        address add = parseAddr(_address);\n        int idx = -1;\n        for(uint i = 0;i < total_users;i++)\n        {\n            if(usersA[i]==add)\n            {\n                idx = int(i);\n                break;\n            }\n        }\n        if (idx==-1) {\n            return false;\n        } else {\n            return true;\n        }\n    }\n\n    function getidxFromAddress(string memory _address) public view returns (uint)\n    {\n        address add = parseAddr(_address);\n        uint idx = 0;\n        for(uint i = 0;i < total_users;i++)\n        {\n            if(usersA[i]==add)\n            {\n                idx = i;\n                break;\n            }\n        }\n        return idx;\n    }\n\n    function Follow(string memory _address, int to_follow) public returns (bool)\n    {\n        // https://medium.com/coinmonks/what-the-hack-is-memory-and-storage-in-solidity-6b9e62577305\n        // If you use memory then you wont see changes so always use storage\n        // when updating contract\n        // add to_follow to this users' Following array\n        uint this_user = getidxFromAddress(_address);\n        usersM[this_user].Following.push(uint(to_follow));\n        // add this_user to to_follow users Followers array\n        usersM[uint(to_follow)].Followers.push(this_user);\n        return true;\n\n    }\n\n    // If current user follows the user with index id\n    function CheckFollow(string memory _address, uint id) public view  returns(bool)\n    {\n        uint userid = getidxFromAddress(_address);\n        userS memory u = usersM[userid];\n\n        for(uint i = 0;i < u.Following.length;i++)\n        {\n            if(id == u.Following[i])\n            {\n                return true;\n            }\n        }\n        return false;\n    }\n\n    // Add _post id to _user\n    function addPost(uint _user, uint _post ) public returns(bool)\n    {\n        usersM[_user].Posts.push(_post);\n        return true;\n    }\n\n    // Add postid post to bookmarked post for this user\n    function BookmarkPost(uint _userid, uint _postid) public returns(bool)\n    {\n        usersM[_userid].BookmarkedPosts.push(_postid);\n        return true;\n    }\n\n    // Add postid post to Upvoted post for this user\n    function UpvotePost(uint _userid, uint _postid) public returns(bool)\n    {\n        usersM[_userid].UpvotedPosts.push(_postid);\n        return true;\n    }\n\n    // Check if this user has already bookmarked this post\n    function CheckBookmark(uint _userid, uint _postid) public view returns(bool)\n    {\n        userS memory u = usersM[_userid];\n        for(uint i = 0 ;i < u .BookmarkedPosts.length ; i++)\n        {\n            if(u.BookmarkedPosts[i]==_postid)\n            {\n                return true;\n            }\n        }\n        return false;\n    }\n\n    function parseAddr(string memory _a) internal pure returns (address _parsedAddress) {\n        bytes memory tmp = bytes(_a);\n        uint160 iaddr = 0;\n        uint160 b1;\n        uint160 b2;\n        for (uint i = 2; i < 2 + 2 * 20; i += 2) {\n            iaddr *= 256;\n            b1 = uint160(uint8(tmp[i]));\n            b2 = uint160(uint8(tmp[i + 1]));\n            if ((b1 >= 97) && (b1 <= 102)) {\n                b1 -= 87;\n            } else if ((b1 >= 65) && (b1 <= 70)) {\n                b1 -= 55;\n            } else if ((b1 >= 48) && (b1 <= 57)) {\n                b1 -= 48;\n            }\n            if ((b2 >= 97) && (b2 <= 102)) {\n                b2 -= 87;\n            } else if ((b2 >= 65) && (b2 <= 70)) {\n                b2 -= 55;\n            } else if ((b2 >= 48) && (b2 <= 57)) {\n                b2 -= 48;\n            }\n            iaddr += (b1 * 16 + b2);\n        }\n        return address(iaddr);\n    }\n\n\n}",
  "sourcePath": "/home/arpit/Desktop/github_repos/Dconnect/contracts/User.sol",
  "compiler": {
    "name": "solc",
    "version": "0.5.16+commit.9c3226ce.Emscripten.clang"
  },
  "schemaVersion": "3.0.23",
  "updatedAt": "2020-03-25T07:14:24.597Z",
  "networkType": "ethereum",
  "devdoc": {
    "methods": {}
  },
  "userdoc": {
    "methods": {}
  }
}