{
  "contractName": "User",
  "abi": [
    {
      "constant": true,
      "inputs": [
        {
          "internalType": "uint256",
          "name": "",
          "type": "uint256"
        },
        {
          "internalType": "uint256",
          "name": "",
          "type": "uint256"
        }
      ],
      "name": "followM",
      "outputs": [
        {
          "internalType": "int256",
          "name": "",
          "type": "int256"
        }
      ],
      "payable": false,
      "stateMutability": "view",
      "type": "function"
    },
    {
      "constant": true,
      "inputs": [],
      "name": "total_users",
      "outputs": [
        {
          "internalType": "uint256",
          "name": "",
          "type": "uint256"
        }
      ],
      "payable": false,
      "stateMutability": "view",
      "type": "function"
    },
    {
      "constant": true,
      "inputs": [
        {
          "internalType": "uint256",
          "name": "",
          "type": "uint256"
        }
      ],
      "name": "usersM",
      "outputs": [
        {
          "internalType": "string",
          "name": "Name",
          "type": "string"
        },
        {
          "internalType": "uint8",
          "name": "Age",
          "type": "uint8"
        },
        {
          "internalType": "string",
          "name": "Gender",
          "type": "string"
        },
        {
          "internalType": "address",
          "name": "userid",
          "type": "address"
        },
        {
          "internalType": "uint256",
          "name": "index",
          "type": "uint256"
        },
        {
          "internalType": "bool",
          "name": "Isuser",
          "type": "bool"
        }
      ],
      "payable": false,
      "stateMutability": "view",
      "type": "function"
    },
    {
      "constant": true,
      "inputs": [
        {
          "internalType": "uint256",
          "name": "idx",
          "type": "uint256"
        }
      ],
      "name": "getusersAAt",
      "outputs": [
        {
          "internalType": "address",
          "name": "",
          "type": "address"
        }
      ],
      "payable": false,
      "stateMutability": "view",
      "type": "function"
    },
    {
      "constant": true,
      "inputs": [
        {
          "internalType": "uint256",
          "name": "idx",
          "type": "uint256"
        }
      ],
      "name": "getUserInfo",
      "outputs": [
        {
          "internalType": "string",
          "name": "",
          "type": "string"
        },
        {
          "internalType": "uint8",
          "name": "",
          "type": "uint8"
        },
        {
          "internalType": "string",
          "name": "",
          "type": "string"
        },
        {
          "internalType": "uint256",
          "name": "",
          "type": "uint256"
        },
        {
          "internalType": "address[]",
          "name": "",
          "type": "address[]"
        },
        {
          "internalType": "uint256[]",
          "name": "",
          "type": "uint256[]"
        },
        {
          "internalType": "uint256[]",
          "name": "",
          "type": "uint256[]"
        }
      ],
      "payable": false,
      "stateMutability": "view",
      "type": "function"
    },
    {
      "constant": false,
      "inputs": [
        {
          "internalType": "string",
          "name": "_name",
          "type": "string"
        },
        {
          "internalType": "uint8",
          "name": "_age",
          "type": "uint8"
        },
        {
          "internalType": "string",
          "name": "_gender",
          "type": "string"
        }
      ],
      "name": "registerUser",
      "outputs": [
        {
          "internalType": "bool",
          "name": "",
          "type": "bool"
        }
      ],
      "payable": false,
      "stateMutability": "nonpayable",
      "type": "function"
    },
    {
      "constant": true,
      "inputs": [
        {
          "internalType": "string",
          "name": "_address",
          "type": "string"
        }
      ],
      "name": "userpresent",
      "outputs": [
        {
          "internalType": "bool",
          "name": "",
          "type": "bool"
        }
      ],
      "payable": false,
      "stateMutability": "view",
      "type": "function"
    },
    {
      "constant": true,
      "inputs": [
        {
          "internalType": "string",
          "name": "_address",
          "type": "string"
        }
      ],
      "name": "getidxFromAddress",
      "outputs": [
        {
          "internalType": "uint256",
          "name": "",
          "type": "uint256"
        }
      ],
      "payable": false,
      "stateMutability": "view",
      "type": "function"
    },
    {
      "constant": false,
      "inputs": [
        {
          "internalType": "string",
          "name": "_address",
          "type": "string"
        },
        {
          "internalType": "int256",
          "name": "to_follow",
          "type": "int256"
        }
      ],
      "name": "Follow",
      "outputs": [
        {
          "internalType": "bool",
          "name": "",
          "type": "bool"
        }
      ],
      "payable": false,
      "stateMutability": "nonpayable",
      "type": "function"
    },
    {
      "constant": false,
      "inputs": [
        {
          "internalType": "string",
          "name": "_address",
          "type": "string"
        },
        {
          "internalType": "uint256",
          "name": "id",
          "type": "uint256"
        }
      ],
      "name": "CheckFollow",
      "outputs": [
        {
          "internalType": "bool",
          "name": "",
          "type": "bool"
        }
      ],
      "payable": false,
      "stateMutability": "nonpayable",
      "type": "function"
    }
  ],
  "bytecode": "0x608060405234801561001057600080fd5b50611e36806100206000396000f3fe608060405234801561001057600080fd5b506004361061009e5760003560e01c80639e371219116100665780639e371219146103dc578063a2b5e32014610541578063d379dadf146106b8578063e0e84ab1146108b7578063e7cc62bd146109945761009e565b806311796bfb146100a35780631e79869b1461017657806323dfe814146101c257806325ed0f65146102305780634a30ff0a1461030d575b600080fd5b61015c600480360360208110156100b957600080fd5b81019080803590602001906401000000008111156100d657600080fd5b8201836020820111156100e857600080fd5b8035906020019184600183028401116401000000008311171561010a57600080fd5b91908080601f016020809104026020016040519081016040528093929190818152602001838380828437600081840152601f19601f8201169050808301925050505050505091929192905050506109b2565b604051808215151515815260200191505060405180910390f35b6101ac6004803603604081101561018c57600080fd5b810190808035906020019092919080359060200190929190505050610ab5565b6040518082815260200191505060405180910390f35b6101ee600480360360208110156101d857600080fd5b8101908080359060200190929190505050610ada565b604051808273ffffffffffffffffffffffffffffffffffffffff1673ffffffffffffffffffffffffffffffffffffffff16815260200191505060405180910390f35b6102f36004803603604081101561024657600080fd5b810190808035906020019064010000000081111561026357600080fd5b82018360208201111561027557600080fd5b8035906020019184600183028401116401000000008311171561029757600080fd5b91908080601f016020809104026020016040519081016040528093929190818152602001838380828437600081840152601f19601f82011690508083019250505050505050919291929080359060200190929190505050610b1b565b604051808215151515815260200191505060405180910390f35b6103c66004803603602081101561032357600080fd5b810190808035906020019064010000000081111561034057600080fd5b82018360208201111561035257600080fd5b8035906020019184600183028401116401000000008311171561037457600080fd5b91908080601f016020809104026020016040519081016040528093929190818152602001838380828437600081840152601f19601f820116905080830192505050505050509192919290505050610bb2565b6040518082815260200191505060405180910390f35b610408600480360360208110156103f257600080fd5b8101908080359060200190929190505050610c60565b60405180806020018760ff1660ff168152602001806020018673ffffffffffffffffffffffffffffffffffffffff1673ffffffffffffffffffffffffffffffffffffffff16815260200185815260200184151515158152602001838103835289818151815260200191508051906020019080838360005b8381101561049a57808201518184015260208101905061047f565b50505050905090810190601f1680156104c75780820380516001836020036101000a031916815260200191505b50838103825287818151815260200191508051906020019080838360005b838110156105005780820151818401526020810190506104e5565b50505050905090810190601f16801561052d5780820380516001836020036101000a031916815260200191505b509850505050505050505060405180910390f35b61069e6004803603606081101561055757600080fd5b810190808035906020019064010000000081111561057457600080fd5b82018360208201111561058657600080fd5b803590602001918460018302840111640100000000831117156105a857600080fd5b91908080601f016020809104026020016040519081016040528093929190818152602001838380828437600081840152601f19601f820116905080830192505050505050509192919290803560ff1690602001909291908035906020019064010000000081111561061857600080fd5b82018360208201111561062a57600080fd5b8035906020019184600183028401116401000000008311171561064c57600080fd5b91908080601f016020809104026020016040519081016040528093929190818152602001838380828437600081840152601f19601f820116905080830192505050505050509192919290505050610e06565b604051808215151515815260200191505060405180910390f35b6106e4600480360360208110156106ce57600080fd5b8101908080359060200190929190505050611238565b60405180806020018860ff1660ff1681526020018060200187815260200180602001806020018060200186810386528d818151815260200191508051906020019080838360005b8381101561074657808201518184015260208101905061072b565b50505050905090810190601f1680156107735780820380516001836020036101000a031916815260200191505b5086810385528b818151815260200191508051906020019080838360005b838110156107ac578082015181840152602081019050610791565b50505050905090810190601f1680156107d95780820380516001836020036101000a031916815260200191505b50868103845289818151815260200191508051906020019060200280838360005b838110156108155780820151818401526020810190506107fa565b50505050905001868103835288818151815260200191508051906020019060200280838360005b8381101561085757808201518184015260208101905061083c565b50505050905001868103825287818151815260200191508051906020019060200280838360005b8381101561089957808201518184015260208101905061087e565b505050509050019c5050505050505050505050505060405180910390f35b61097a600480360360408110156108cd57600080fd5b81019080803590602001906401000000008111156108ea57600080fd5b8201836020820111156108fc57600080fd5b8035906020019184600183028401116401000000008311171561091e57600080fd5b91908080601f016020809104026020016040519081016040528093929190818152602001838380828437600081840152601f19601f820116905080830192505050505050509192919290803590602001909291905050506115d3565b604051808215151515815260200191505060405180910390f35b61099c61197c565b6040518082815260200191505060405180910390f35b6000806109be83611982565b905060007fffffffffffffffffffffffffffffffffffffffffffffffffffffffffffffffff905060008090505b600354811015610a75578273ffffffffffffffffffffffffffffffffffffffff1660028281548110610a1957fe5b9060005260206000200160009054906101000a900473ffffffffffffffffffffffffffffffffffffffff1673ffffffffffffffffffffffffffffffffffffffff161415610a6857809150610a75565b80806001019150506109eb565b507fffffffffffffffffffffffffffffffffffffffffffffffffffffffffffffffff811415610aa957600092505050610ab0565b6001925050505b919050565b6001602052816000526040600020602052806000526040600020600091509150505481565b600060028281548110610ae957fe5b9060005260206000200160009054906101000a900473ffffffffffffffffffffffffffffffffffffffff169050919050565b600080610b2784610bb2565b9050600080828152602001908152602001600020600701839080600181540180825580915050906001820390600052602060002001600090919290919091505550600080848152602001908152602001600020600601819080600181540180825580915050906001820390600052602060002001600090919290919091505550600191505092915050565b600080610bbe83611982565b9050600080905060008090505b600354811015610c55578273ffffffffffffffffffffffffffffffffffffffff1660028281548110610bf957fe5b9060005260206000200160009054906101000a900473ffffffffffffffffffffffffffffffffffffffff1673ffffffffffffffffffffffffffffffffffffffff161415610c4857809150610c55565b8080600101915050610bcb565b508092505050919050565b6000602052806000526040600020600091509050806000018054600181600116156101000203166002900480601f016020809104026020016040519081016040528092919081815260200182805460018160011615610100020316600290048015610d0c5780601f10610ce157610100808354040283529160200191610d0c565b820191906000526020600020905b815481529060010190602001808311610cef57829003601f168201915b5050505050908060010160009054906101000a900460ff1690806002018054600181600116156101000203166002900480601f016020809104026020016040519081016040528092919081815260200182805460018160011615610100020316600290048015610dbd5780601f10610d9257610100808354040283529160200191610dbd565b820191906000526020600020905b815481529060010190602001808311610da057829003601f168201915b5050505050908060030160009054906101000a900473ffffffffffffffffffffffffffffffffffffffff16908060040154908060080160009054906101000a900460ff16905086565b60006060849050606083905060008560ff16118015610e28575060c88560ff16105b610e9a576040517f08c379a000000000000000000000000000000000000000000000000000000000815260040180806020018281038252600f8152602001807f416765206e6f7420636f7272656374000000000000000000000000000000000081525060200191505060405180910390fd5b600082511415610f12576040517f08c379a00000000000000000000000000000000000000000000000000000000081526004018080602001828103825260118152602001807f506c6561736520656e746572206e616d6500000000000000000000000000000081525060200191505060405180910390fd5b600081511415610f8a576040517f08c379a00000000000000000000000000000000000000000000000000000000081526004018080602001828103825260138152602001807f506c6561736520656e7465722067656e6465720000000000000000000000000081525060200191505060405180910390fd5b6040518061012001604052808781526020018660ff1681526020018581526020013373ffffffffffffffffffffffffffffffffffffffff16815260200160035481526020016000604051908082528060200260200182016040528015610fff5781602001602082028038833980820191505090505b50815260200160006040519080825280602002602001820160405280156110355781602001602082028038833980820191505090505b508152602001600060405190808252806020026020018201604052801561106b5781602001602082028038833980820191505090505b50815260200160011515815250600080600354815260200190815260200160002060008201518160000190805190602001906110a8929190611bdb565b5060208201518160010160006101000a81548160ff021916908360ff16021790555060408201518160020190805190602001906110e6929190611bdb565b5060608201518160030160006101000a81548173ffffffffffffffffffffffffffffffffffffffff021916908373ffffffffffffffffffffffffffffffffffffffff1602179055506080820151816004015560a0820151816005019080519060200190611154929190611c5b565b5060c0820151816006019080519060200190611171929190611ce5565b5060e082015181600701908051906020019061118e929190611ce5565b506101008201518160080160006101000a81548160ff02191690831515021790555090505060023390806001815401808255809150509060018203906000526020600020016000909192909190916101000a81548173ffffffffffffffffffffffffffffffffffffffff021916908373ffffffffffffffffffffffffffffffffffffffff160217905550506003600081548092919060010191905055506001925050509392505050565b6060600060606000606080606061124d611d32565b6000808a815260200190815260200160002060405180610120016040529081600082018054600181600116156101000203166002900480601f0160208091040260200160405190810160405280929190818152602001828054600181600116156101000203166002900480156113045780601f106112d957610100808354040283529160200191611304565b820191906000526020600020905b8154815290600101906020018083116112e757829003601f168201915b505050505081526020016001820160009054906101000a900460ff1660ff1660ff168152602001600282018054600181600116156101000203166002900480601f0160208091040260200160405190810160405280929190818152602001828054600181600116156101000203166002900480156113c35780601f10611398576101008083540402835291602001916113c3565b820191906000526020600020905b8154815290600101906020018083116113a657829003601f168201915b505050505081526020016003820160009054906101000a900473ffffffffffffffffffffffffffffffffffffffff1673ffffffffffffffffffffffffffffffffffffffff1673ffffffffffffffffffffffffffffffffffffffff16815260200160048201548152602001600582018054806020026020016040519081016040528092919081815260200182805480156114b157602002820191906000526020600020905b8160009054906101000a900473ffffffffffffffffffffffffffffffffffffffff1673ffffffffffffffffffffffffffffffffffffffff1681526020019060010190808311611467575b505050505081526020016006820180548060200260200160405190810160405280929190818152602001828054801561150957602002820191906000526020600020905b8154815260200190600101908083116114f5575b505050505081526020016007820180548060200260200160405190810160405280929190818152602001828054801561156157602002820191906000526020600020905b81548152602001906001019080831161154d575b505050505081526020016008820160009054906101000a900460ff161515151581525050905080600001518160200151826040015183608001518460a001518560c001518660e00151869650849450829250819150809050975097509750975097509750975050919395979092949650565b6000806115df84610bb2565b90506115e9611d32565b60008083815260200190815260200160002060405180610120016040529081600082018054600181600116156101000203166002900480601f0160208091040260200160405190810160405280929190818152602001828054600181600116156101000203166002900480156116a05780601f10611675576101008083540402835291602001916116a0565b820191906000526020600020905b81548152906001019060200180831161168357829003601f168201915b505050505081526020016001820160009054906101000a900460ff1660ff1660ff168152602001600282018054600181600116156101000203166002900480601f01602080910402602001604051908101604052809291908181526020018280546001816001161561010002031660029004801561175f5780601f106117345761010080835404028352916020019161175f565b820191906000526020600020905b81548152906001019060200180831161174257829003601f168201915b505050505081526020016003820160009054906101000a900473ffffffffffffffffffffffffffffffffffffffff1673ffffffffffffffffffffffffffffffffffffffff1673ffffffffffffffffffffffffffffffffffffffff168152602001600482015481526020016005820180548060200260200160405190810160405280929190818152602001828054801561184d57602002820191906000526020600020905b8160009054906101000a900473ffffffffffffffffffffffffffffffffffffffff1673ffffffffffffffffffffffffffffffffffffffff1681526020019060010190808311611803575b50505050508152602001600682018054806020026020016040519081016040528092919081815260200182805480156118a557602002820191906000526020600020905b815481526020019060010190808311611891575b50505050508152602001600782018054806020026020016040519081016040528092919081815260200182805480156118fd57602002820191906000526020600020905b8154815260200190600101908083116118e9575b505050505081526020016008820160009054906101000a900460ff161515151581525050905060008090505b8160e001515181101561196e578160e00151818151811061194657fe5b60200260200101518514156119615760019350505050611976565b8080600101915050611929565b506000925050505b92915050565b60035481565b6000606082905060008090506000806000600290505b602a811015611bce57610100840293508481815181106119b457fe5b602001015160f81c60f81b60f81c60ff1692508460018201815181106119d657fe5b602001015160f81c60f81b60f81c60ff16915060618373ffffffffffffffffffffffffffffffffffffffff1610158015611a27575060668373ffffffffffffffffffffffffffffffffffffffff1611155b15611a3757605783039250611ad1565b60418373ffffffffffffffffffffffffffffffffffffffff1610158015611a75575060468373ffffffffffffffffffffffffffffffffffffffff1611155b15611a8557603783039250611ad0565b60308373ffffffffffffffffffffffffffffffffffffffff1610158015611ac3575060398373ffffffffffffffffffffffffffffffffffffffff1611155b15611acf576030830392505b5b5b60618273ffffffffffffffffffffffffffffffffffffffff1610158015611b0f575060668273ffffffffffffffffffffffffffffffffffffffff1611155b15611b1f57605782039150611bb9565b60418273ffffffffffffffffffffffffffffffffffffffff1610158015611b5d575060468273ffffffffffffffffffffffffffffffffffffffff1611155b15611b6d57603782039150611bb8565b60308273ffffffffffffffffffffffffffffffffffffffff1610158015611bab575060398273ffffffffffffffffffffffffffffffffffffffff1611155b15611bb7576030820391505b5b5b81601084020184019350600281019050611998565b5082945050505050919050565b828054600181600116156101000203166002900490600052602060002090601f016020900481019282601f10611c1c57805160ff1916838001178555611c4a565b82800160010185558215611c4a579182015b82811115611c49578251825591602001919060010190611c2e565b5b509050611c579190611d99565b5090565b828054828255906000526020600020908101928215611cd4579160200282015b82811115611cd35782518260006101000a81548173ffffffffffffffffffffffffffffffffffffffff021916908373ffffffffffffffffffffffffffffffffffffffff16021790555091602001919060010190611c7b565b5b509050611ce19190611dbe565b5090565b828054828255906000526020600020908101928215611d21579160200282015b82811115611d20578251825591602001919060010190611d05565b5b509050611d2e9190611d99565b5090565b60405180610120016040528060608152602001600060ff16815260200160608152602001600073ffffffffffffffffffffffffffffffffffffffff168152602001600081526020016060815260200160608152602001606081526020016000151581525090565b611dbb91905b80821115611db7576000816000905550600101611d9f565b5090565b90565b611dfe91905b80821115611dfa57600081816101000a81549073ffffffffffffffffffffffffffffffffffffffff021916905550600101611dc4565b5090565b9056fea265627a7a72315820676a5aadc18b2884d05ada6af4bdb17990110185a1f777897084c87b4b75d57464736f6c63430005100032",
  "source": "pragma solidity >=0.4.21 <0.7.0;\n// pragma experimental ABIEncoderV2;\n\ncontract User {\n\n    struct userS {\n        string Name;\n        uint8 Age;\n        string Gender;\n        address userid;\n        uint index;\n        // string address_string;\n        // bytes32 ProfilePic; // Hash of profilepic\n        address[] Posts;\n        uint[] Followers;    // Users who are following this user\n        uint[] Following;    // This user is following\n        bool Isuser;\n    }\n\n    //Mappings are useful for O(1) searching \n    mapping(uint => userS) public usersM;\n    mapping(uint => mapping(uint => int)) public followM; // Check if address1 follows address2\n\n    // array containing addresses of all the users as you cannot iterate over the mapping\n    address[] usersA;\n    // total_users is the total count of users\n    uint public total_users;\n\n    function getusersAAt(uint idx) public view returns(address){ \n        return usersA[idx];\n    }\n\n\n    modifier checkuser(uint id) {\n        userS memory u = usersM[id];\n        require(u.Isuser, \"User does not exist!\");\n        _;\n    }\n\n\n    function getUserInfo(uint idx) public view returns (string memory, uint8, string memory, uint, address[] memory, uint[] memory, uint[] memory){\n        // address temp_address = usersA[idx];\n        userS memory u = usersM[idx];\n        return (u.Name, u.Age, u.Gender,u.index, u.Posts, u.Followers, u.Following);\n    }\n\n    //TODO: check if user already exists\n    function registerUser(string memory _name, uint8 _age, string memory _gender) public returns (bool){\n        \n        // userS memory u = usersM[msg.sender];\n        bytes memory testname = bytes(_name);\n        bytes memory testgender = bytes(_gender);\n        require(_age > 0 && _age < 200, \"Age not correct\");\n        require(testname.length != 0, \"Please enter name\");\n        require(testgender.length != 0, \"Please enter gender\");\n        // require(!userpresent(), \"User already present\");\n        // string memory address_string = AddresstoString(msg.sender);\n        usersM[total_users] = (userS({Name:_name, Age:_age, Gender:_gender,index:total_users, userid:msg.sender,Posts:new address[](0), Followers:new uint[](0), Following:new uint[](0), Isuser:true}));\n        usersA.push(msg.sender);\n        total_users++;\n        return true;\n    }\n\n    function userpresent(string memory _address) public view returns (bool){\n        address add = parseAddr(_address);\n        int idx = -1;\n        for(uint i = 0;i < total_users;i++)\n        {\n            if(usersA[i]==add)\n            {\n                idx = int(i);\n                break;\n            }\n        }\n        if (idx==-1) {\n            return false;\n        } else {\n            return true;\n        }\n    }\n\n    function getidxFromAddress(string memory _address) public view returns (uint)\n    {\n        address add = parseAddr(_address);\n        uint idx = 0;\n        for(uint i = 0;i < total_users;i++)\n        {\n            if(usersA[i]==add)\n            {\n                idx = i;\n                break;\n            }\n        }\n        return idx;\n    }\n\n    function Follow(string memory _address, int to_follow) public returns (bool)\n    {\n        // https://medium.com/coinmonks/what-the-hack-is-memory-and-storage-in-solidity-6b9e62577305\n        // If you use memory then you wont see changes so always use storage\n        // when updating contract\n        // add to_follow to this users' Following array\n        uint this_user = getidxFromAddress(_address);\n        usersM[this_user].Following.push(uint(to_follow));\n        // add this_user to to_follow users Followers array\n        usersM[uint(to_follow)].Followers.push(this_user);\n        return true;\n\n    }\n\n    // If current user follows the user with index id\n    function CheckFollow(string memory _address, uint id) public returns(bool)\n    {\n        uint userid = getidxFromAddress(_address);\n        userS memory u = usersM[userid];\n\n        for(uint i = 0;i < u.Following.length;i++)\n        {\n            if(id == u.Following[i])\n            {\n                return true;\n            }\n        }\n        return false;\n    }\n\n    function parseAddr(string memory _a) internal pure returns (address _parsedAddress) {\n        bytes memory tmp = bytes(_a);\n        uint160 iaddr = 0;\n        uint160 b1;\n        uint160 b2;\n        for (uint i = 2; i < 2 + 2 * 20; i += 2) {\n            iaddr *= 256;\n            b1 = uint160(uint8(tmp[i]));\n            b2 = uint160(uint8(tmp[i + 1]));\n            if ((b1 >= 97) && (b1 <= 102)) {\n                b1 -= 87;\n            } else if ((b1 >= 65) && (b1 <= 70)) {\n                b1 -= 55;\n            } else if ((b1 >= 48) && (b1 <= 57)) {\n                b1 -= 48;\n            }\n            if ((b2 >= 97) && (b2 <= 102)) {\n                b2 -= 87;\n            } else if ((b2 >= 65) && (b2 <= 70)) {\n                b2 -= 55;\n            } else if ((b2 >= 48) && (b2 <= 57)) {\n                b2 -= 48;\n            }\n            iaddr += (b1 * 16 + b2);\n        }\n        return address(iaddr);\n    }\n\n\n\n\n\n    // function append(uint[] storage d, uint x) internal{\n    //     d.push(x);\n    // }\n\n\n}",
  "sourcePath": "/home/arpit/Desktop/github_repos/Dconnect/contracts/User.sol",
  "compiler": {
    "name": "solc",
    "version": "0.5.16+commit.9c3226ce.Emscripten.clang"
  },
  "schemaVersion": "3.0.23",
  "updatedAt": "2020-03-10T04:19:15.527Z",
  "networkType": "ethereum",
  "devdoc": {
    "methods": {}
  },
  "userdoc": {
    "methods": {}
  }
}