{
  "contractName": "User",
  "abi": [
    {
      "constant": true,
      "inputs": [
        {
          "internalType": "uint256",
          "name": "",
          "type": "uint256"
        },
        {
          "internalType": "uint256",
          "name": "",
          "type": "uint256"
        }
      ],
      "name": "followM",
      "outputs": [
        {
          "internalType": "int256",
          "name": "",
          "type": "int256"
        }
      ],
      "payable": false,
      "stateMutability": "view",
      "type": "function"
    },
    {
      "constant": true,
      "inputs": [],
      "name": "total_users",
      "outputs": [
        {
          "internalType": "uint256",
          "name": "",
          "type": "uint256"
        }
      ],
      "payable": false,
      "stateMutability": "view",
      "type": "function"
    },
    {
      "constant": true,
      "inputs": [
        {
          "internalType": "uint256",
          "name": "",
          "type": "uint256"
        }
      ],
      "name": "usersM",
      "outputs": [
        {
          "internalType": "string",
          "name": "Name",
          "type": "string"
        },
        {
          "internalType": "uint8",
          "name": "Age",
          "type": "uint8"
        },
        {
          "internalType": "string",
          "name": "Gender",
          "type": "string"
        },
        {
          "internalType": "address",
          "name": "userid",
          "type": "address"
        },
        {
          "internalType": "uint256",
          "name": "index",
          "type": "uint256"
        },
        {
          "internalType": "string",
          "name": "ProfilePicHash",
          "type": "string"
        }
      ],
      "payable": false,
      "stateMutability": "view",
      "type": "function"
    },
    {
      "constant": true,
      "inputs": [
        {
          "internalType": "uint256",
          "name": "idx",
          "type": "uint256"
        }
      ],
      "name": "getusersAAt",
      "outputs": [
        {
          "internalType": "address",
          "name": "",
          "type": "address"
        }
      ],
      "payable": false,
      "stateMutability": "view",
      "type": "function"
    },
    {
      "constant": true,
      "inputs": [
        {
          "internalType": "uint256",
          "name": "idx",
          "type": "uint256"
        }
      ],
      "name": "getUserInfo",
      "outputs": [
        {
          "internalType": "string",
          "name": "",
          "type": "string"
        },
        {
          "internalType": "uint8",
          "name": "",
          "type": "uint8"
        },
        {
          "internalType": "string",
          "name": "",
          "type": "string"
        },
        {
          "internalType": "uint256",
          "name": "",
          "type": "uint256"
        },
        {
          "internalType": "string",
          "name": "",
          "type": "string"
        },
        {
          "internalType": "uint256[]",
          "name": "",
          "type": "uint256[]"
        },
        {
          "internalType": "uint256[]",
          "name": "",
          "type": "uint256[]"
        },
        {
          "internalType": "uint256[]",
          "name": "",
          "type": "uint256[]"
        }
      ],
      "payable": false,
      "stateMutability": "view",
      "type": "function"
    },
    {
      "constant": false,
      "inputs": [
        {
          "internalType": "string",
          "name": "_name",
          "type": "string"
        },
        {
          "internalType": "uint8",
          "name": "_age",
          "type": "uint8"
        },
        {
          "internalType": "string",
          "name": "_gender",
          "type": "string"
        },
        {
          "internalType": "string",
          "name": "_ProfilePicHash",
          "type": "string"
        }
      ],
      "name": "registerUser",
      "outputs": [
        {
          "internalType": "bool",
          "name": "",
          "type": "bool"
        }
      ],
      "payable": false,
      "stateMutability": "nonpayable",
      "type": "function"
    },
    {
      "constant": true,
      "inputs": [
        {
          "internalType": "string",
          "name": "_address",
          "type": "string"
        }
      ],
      "name": "userpresent",
      "outputs": [
        {
          "internalType": "bool",
          "name": "",
          "type": "bool"
        }
      ],
      "payable": false,
      "stateMutability": "view",
      "type": "function"
    },
    {
      "constant": true,
      "inputs": [
        {
          "internalType": "string",
          "name": "_address",
          "type": "string"
        }
      ],
      "name": "getidxFromAddress",
      "outputs": [
        {
          "internalType": "uint256",
          "name": "",
          "type": "uint256"
        }
      ],
      "payable": false,
      "stateMutability": "view",
      "type": "function"
    },
    {
      "constant": false,
      "inputs": [
        {
          "internalType": "string",
          "name": "_address",
          "type": "string"
        },
        {
          "internalType": "int256",
          "name": "to_follow",
          "type": "int256"
        }
      ],
      "name": "Follow",
      "outputs": [
        {
          "internalType": "bool",
          "name": "",
          "type": "bool"
        }
      ],
      "payable": false,
      "stateMutability": "nonpayable",
      "type": "function"
    },
    {
      "constant": true,
      "inputs": [
        {
          "internalType": "string",
          "name": "_address",
          "type": "string"
        },
        {
          "internalType": "uint256",
          "name": "id",
          "type": "uint256"
        }
      ],
      "name": "CheckFollow",
      "outputs": [
        {
          "internalType": "bool",
          "name": "",
          "type": "bool"
        }
      ],
      "payable": false,
      "stateMutability": "view",
      "type": "function"
    },
    {
      "constant": false,
      "inputs": [
        {
          "internalType": "uint256",
          "name": "_user",
          "type": "uint256"
        },
        {
          "internalType": "uint256",
          "name": "_post",
          "type": "uint256"
        }
      ],
      "name": "addPost",
      "outputs": [
        {
          "internalType": "bool",
          "name": "",
          "type": "bool"
        }
      ],
      "payable": false,
      "stateMutability": "nonpayable",
      "type": "function"
    },
    {
      "constant": false,
      "inputs": [
        {
          "internalType": "uint256",
          "name": "_userid",
          "type": "uint256"
        },
        {
          "internalType": "uint256",
          "name": "_postid",
          "type": "uint256"
        }
      ],
      "name": "BookmarkPost",
      "outputs": [
        {
          "internalType": "bool",
          "name": "",
          "type": "bool"
        }
      ],
      "payable": false,
      "stateMutability": "nonpayable",
      "type": "function"
    },
    {
      "constant": true,
      "inputs": [
        {
          "internalType": "uint256",
          "name": "_userid",
          "type": "uint256"
        },
        {
          "internalType": "uint256",
          "name": "_postid",
          "type": "uint256"
        }
      ],
      "name": "CheckBookmark",
      "outputs": [
        {
          "internalType": "bool",
          "name": "",
          "type": "bool"
        }
      ],
      "payable": false,
      "stateMutability": "view",
      "type": "function"
    }
  ],
  "bytecode": "0x608060405234801561001057600080fd5b50612709806100206000396000f3fe608060405234801561001057600080fd5b50600436106100cf5760003560e01c8063726a3be91161008c5780639e371219116100665780639e3712191461070b578063d379dadf146108d1578063e0e84ab114610b3c578063e7cc62bd14610c19576100cf565b8063726a3be91461045d5780637bcd3a241461066b57806383db1548146106bb576100cf565b806311796bfb146100d45780631e79869b146101a757806323dfe814146101f357806325ed0f651461026157806336ad1cd31461033e5780634a30ff0a1461038e575b600080fd5b61018d600480360360208110156100ea57600080fd5b810190808035906020019064010000000081111561010757600080fd5b82018360208201111561011957600080fd5b8035906020019184600183028401116401000000008311171561013b57600080fd5b91908080601f016020809104026020016040519081016040528093929190818152602001838380828437600081840152601f19601f820116905080830192505050505050509192919290505050610c37565b604051808215151515815260200191505060405180910390f35b6101dd600480360360408110156101bd57600080fd5b810190808035906020019092919080359060200190929190505050610d3a565b6040518082815260200191505060405180910390f35b61021f6004803603602081101561020957600080fd5b8101908080359060200190929190505050610d5f565b604051808273ffffffffffffffffffffffffffffffffffffffff1673ffffffffffffffffffffffffffffffffffffffff16815260200191505060405180910390f35b6103246004803603604081101561027757600080fd5b810190808035906020019064010000000081111561029457600080fd5b8201836020820111156102a657600080fd5b803590602001918460018302840111640100000000831117156102c857600080fd5b91908080601f016020809104026020016040519081016040528093929190818152602001838380828437600081840152601f19601f82011690508083019250505050505050919291929080359060200190929190505050610da0565b604051808215151515815260200191505060405180910390f35b6103746004803603604081101561035457600080fd5b810190808035906020019092919080359060200190929190505050610e37565b604051808215151515815260200191505060405180910390f35b610447600480360360208110156103a457600080fd5b81019080803590602001906401000000008111156103c157600080fd5b8201836020820111156103d357600080fd5b803590602001918460018302840111640100000000831117156103f557600080fd5b91908080601f016020809104026020016040519081016040528093929190818152602001838380828437600081840152601f19601f82011690508083019250505050505050919291929050505061127d565b6040518082815260200191505060405180910390f35b6106516004803603608081101561047357600080fd5b810190808035906020019064010000000081111561049057600080fd5b8201836020820111156104a257600080fd5b803590602001918460018302840111640100000000831117156104c457600080fd5b91908080601f016020809104026020016040519081016040528093929190818152602001838380828437600081840152601f19601f820116905080830192505050505050509192919290803560ff1690602001909291908035906020019064010000000081111561053457600080fd5b82018360208201111561054657600080fd5b8035906020019184600183028401116401000000008311171561056857600080fd5b91908080601f016020809104026020016040519081016040528093929190818152602001838380828437600081840152601f19601f820116905080830192505050505050509192919290803590602001906401000000008111156105cb57600080fd5b8201836020820111156105dd57600080fd5b803590602001918460018302840111640100000000831117156105ff57600080fd5b91908080601f016020809104026020016040519081016040528093929190818152602001838380828437600081840152601f19601f82011690508083019250505050505050919291929050505061132b565b604051808215151515815260200191505060405180910390f35b6106a16004803603604081101561068157600080fd5b8101908080359060200190929190803590602001909291905050506117ac565b604051808215151515815260200191505060405180910390f35b6106f1600480360360408110156106d157600080fd5b8101908080359060200190929190803590602001909291905050506117f7565b604051808215151515815260200191505060405180910390f35b6107376004803603602081101561072157600080fd5b8101908080359060200190929190505050611842565b60405180806020018760ff1660ff168152602001806020018673ffffffffffffffffffffffffffffffffffffffff1673ffffffffffffffffffffffffffffffffffffffff1681526020018581526020018060200184810384528a818151815260200191508051906020019080838360005b838110156107c35780820151818401526020810190506107a8565b50505050905090810190601f1680156107f05780820380516001836020036101000a031916815260200191505b50848103835288818151815260200191508051906020019080838360005b8381101561082957808201518184015260208101905061080e565b50505050905090810190601f1680156108565780820380516001836020036101000a031916815260200191505b50848103825285818151815260200191508051906020019080838360005b8381101561088f578082015181840152602081019050610874565b50505050905090810190601f1680156108bc5780820380516001836020036101000a031916815260200191505b50995050505050505050505060405180910390f35b6108fd600480360360208110156108e757600080fd5b8101908080359060200190929190505050611a73565b60405180806020018960ff1660ff168152602001806020018881526020018060200180602001806020018060200187810387528f818151815260200191508051906020019080838360005b83811015610963578082015181840152602081019050610948565b50505050905090810190601f1680156109905780820380516001836020036101000a031916815260200191505b5087810386528d818151815260200191508051906020019080838360005b838110156109c95780820151818401526020810190506109ae565b50505050905090810190601f1680156109f65780820380516001836020036101000a031916815260200191505b5087810385528b818151815260200191508051906020019080838360005b83811015610a2f578082015181840152602081019050610a14565b50505050905090810190601f168015610a5c5780820380516001836020036101000a031916815260200191505b5087810384528a818151815260200191508051906020019060200280838360005b83811015610a98578082015181840152602081019050610a7d565b50505050905001878103835289818151815260200191508051906020019060200280838360005b83811015610ada578082015181840152602081019050610abf565b50505050905001878103825288818151815260200191508051906020019060200280838360005b83811015610b1c578082015181840152602081019050610b01565b505050509050019e50505050505050505050505050505060405180910390f35b610bff60048036036040811015610b5257600080fd5b8101908080359060200190640100000000811115610b6f57600080fd5b820183602082011115610b8157600080fd5b80359060200191846001830284011164010000000083111715610ba357600080fd5b91908080601f016020809104026020016040519081016040528093929190818152602001838380828437600081840152601f19601f82011690508083019250505050505050919291929080359060200190929190505050611ec3565b604051808215151515815260200191505060405180910390f35b610c21612317565b6040518082815260200191505060405180910390f35b600080610c438361231d565b905060007fffffffffffffffffffffffffffffffffffffffffffffffffffffffffffffffff905060008090505b600354811015610cfa578273ffffffffffffffffffffffffffffffffffffffff1660028281548110610c9e57fe5b9060005260206000200160009054906101000a900473ffffffffffffffffffffffffffffffffffffffff1673ffffffffffffffffffffffffffffffffffffffff161415610ced57809150610cfa565b8080600101915050610c70565b507fffffffffffffffffffffffffffffffffffffffffffffffffffffffffffffffff811415610d2e57600092505050610d35565b6001925050505b919050565b6001602052816000526040600020602052806000526040600020600091509150505481565b600060028281548110610d6e57fe5b9060005260206000200160009054906101000a900473ffffffffffffffffffffffffffffffffffffffff169050919050565b600080610dac8461127d565b9050600080828152602001908152602001600020600801839080600181540180825580915050906001820390600052602060002001600090919290919091505550600080848152602001908152602001600020600701819080600181540180825580915050906001820390600052602060002001600090919290919091505550600191505092915050565b6000610e41612576565b60008085815260200190815260200160002060405180610140016040529081600082018054600181600116156101000203166002900480601f016020809104026020016040519081016040528092919081815260200182805460018160011615610100020316600290048015610ef85780601f10610ecd57610100808354040283529160200191610ef8565b820191906000526020600020905b815481529060010190602001808311610edb57829003601f168201915b505050505081526020016001820160009054906101000a900460ff1660ff1660ff168152602001600282018054600181600116156101000203166002900480601f016020809104026020016040519081016040528092919081815260200182805460018160011615610100020316600290048015610fb75780601f10610f8c57610100808354040283529160200191610fb7565b820191906000526020600020905b815481529060010190602001808311610f9a57829003601f168201915b505050505081526020016003820160009054906101000a900473ffffffffffffffffffffffffffffffffffffffff1673ffffffffffffffffffffffffffffffffffffffff1673ffffffffffffffffffffffffffffffffffffffff16815260200160048201548152602001600582018054600181600116156101000203166002900480601f0160208091040260200160405190810160405280929190818152602001828054600181600116156101000203166002900480156110b95780601f1061108e576101008083540402835291602001916110b9565b820191906000526020600020905b81548152906001019060200180831161109c57829003601f168201915b505050505081526020016006820180548060200260200160405190810160405280929190818152602001828054801561111157602002820191906000526020600020905b8154815260200190600101908083116110fd575b505050505081526020016007820180548060200260200160405190810160405280929190818152602001828054801561116957602002820191906000526020600020905b815481526020019060010190808311611155575b50505050508152602001600882018054806020026020016040519081016040528092919081815260200182805480156111c157602002820191906000526020600020905b8154815260200190600101908083116111ad575b505050505081526020016009820180548060200260200160405190810160405280929190818152602001828054801561121957602002820191906000526020600020905b815481526020019060010190808311611205575b505050505081525050905060008090505b816101200151518110156112705783826101200151828151811061124a57fe5b6020026020010151141561126357600192505050611277565b808060010191505061122a565b5060009150505b92915050565b6000806112898361231d565b9050600080905060008090505b600354811015611320578273ffffffffffffffffffffffffffffffffffffffff16600282815481106112c457fe5b9060005260206000200160009054906101000a900473ffffffffffffffffffffffffffffffffffffffff1673ffffffffffffffffffffffffffffffffffffffff16141561131357809150611320565b8080600101915050611296565b508092505050919050565b60006060859050606084905060008660ff1611801561134d575060c88660ff16105b6113bf576040517f08c379a000000000000000000000000000000000000000000000000000000000815260040180806020018281038252600f8152602001807f416765206e6f7420636f7272656374000000000000000000000000000000000081525060200191505060405180910390fd5b600082511415611437576040517f08c379a00000000000000000000000000000000000000000000000000000000081526004018080602001828103825260118152602001807f506c6561736520656e746572206e616d6500000000000000000000000000000081525060200191505060405180910390fd5b6000815114156114af576040517f08c379a00000000000000000000000000000000000000000000000000000000081526004018080602001828103825260138152602001807f506c6561736520656e7465722067656e6465720000000000000000000000000081525060200191505060405180910390fd5b6040518061014001604052808881526020018760ff1681526020018681526020013373ffffffffffffffffffffffffffffffffffffffff1681526020016003548152602001858152602001600060405190808252806020026020018201604052801561152a5781602001602082028038833980820191505090505b50815260200160006040519080825280602002602001820160405280156115605781602001602082028038833980820191505090505b50815260200160006040519080825280602002602001820160405280156115965781602001602082028038833980820191505090505b50815260200160006040519080825280602002602001820160405280156115cc5781602001602082028038833980820191505090505b50815250600080600354815260200190815260200160002060008201518160000190805190602001906116009291906125e2565b5060208201518160010160006101000a81548160ff021916908360ff160217905550604082015181600201908051906020019061163e9291906125e2565b5060608201518160030160006101000a81548173ffffffffffffffffffffffffffffffffffffffff021916908373ffffffffffffffffffffffffffffffffffffffff1602179055506080820151816004015560a08201518160050190805190602001906116ac9291906125e2565b5060c08201518160060190805190602001906116c9929190612662565b5060e08201518160070190805190602001906116e6929190612662565b50610100820151816008019080519060200190611704929190612662565b50610120820151816009019080519060200190611722929190612662565b5090505060023390806001815401808255809150509060018203906000526020600020016000909192909190916101000a81548173ffffffffffffffffffffffffffffffffffffffff021916908373ffffffffffffffffffffffffffffffffffffffff16021790555050600360008154809291906001019190505550600192505050949350505050565b60008060008481526020019081526020016000206009018290806001815401808255809150509060018203906000526020600020016000909192909190915055506001905092915050565b60008060008481526020019081526020016000206006018290806001815401808255809150509060018203906000526020600020016000909192909190915055506001905092915050565b6000602052806000526040600020600091509050806000018054600181600116156101000203166002900480601f0160208091040260200160405190810160405280929190818152602001828054600181600116156101000203166002900480156118ee5780601f106118c3576101008083540402835291602001916118ee565b820191906000526020600020905b8154815290600101906020018083116118d157829003601f168201915b5050505050908060010160009054906101000a900460ff1690806002018054600181600116156101000203166002900480601f01602080910402602001604051908101604052809291908181526020018280546001816001161561010002031660029004801561199f5780601f106119745761010080835404028352916020019161199f565b820191906000526020600020905b81548152906001019060200180831161198257829003601f168201915b5050505050908060030160009054906101000a900473ffffffffffffffffffffffffffffffffffffffff1690806004015490806005018054600181600116156101000203166002900480601f016020809104026020016040519081016040528092919081815260200182805460018160011615610100020316600290048015611a695780601f10611a3e57610100808354040283529160200191611a69565b820191906000526020600020905b815481529060010190602001808311611a4c57829003601f168201915b5050505050905086565b6060600060606000606080606080611a89612576565b6000808b815260200190815260200160002060405180610140016040529081600082018054600181600116156101000203166002900480601f016020809104026020016040519081016040528092919081815260200182805460018160011615610100020316600290048015611b405780601f10611b1557610100808354040283529160200191611b40565b820191906000526020600020905b815481529060010190602001808311611b2357829003601f168201915b505050505081526020016001820160009054906101000a900460ff1660ff1660ff168152602001600282018054600181600116156101000203166002900480601f016020809104026020016040519081016040528092919081815260200182805460018160011615610100020316600290048015611bff5780601f10611bd457610100808354040283529160200191611bff565b820191906000526020600020905b815481529060010190602001808311611be257829003601f168201915b505050505081526020016003820160009054906101000a900473ffffffffffffffffffffffffffffffffffffffff1673ffffffffffffffffffffffffffffffffffffffff1673ffffffffffffffffffffffffffffffffffffffff16815260200160048201548152602001600582018054600181600116156101000203166002900480601f016020809104026020016040519081016040528092919081815260200182805460018160011615610100020316600290048015611d015780601f10611cd657610100808354040283529160200191611d01565b820191906000526020600020905b815481529060010190602001808311611ce457829003601f168201915b5050505050815260200160068201805480602002602001604051908101604052809291908181526020018280548015611d5957602002820191906000526020600020905b815481526020019060010190808311611d45575b5050505050815260200160078201805480602002602001604051908101604052809291908181526020018280548015611db157602002820191906000526020600020905b815481526020019060010190808311611d9d575b5050505050815260200160088201805480602002602001604051908101604052809291908181526020018280548015611e0957602002820191906000526020600020905b815481526020019060010190808311611df5575b5050505050815260200160098201805480602002602001604051908101604052809291908181526020018280548015611e6157602002820191906000526020600020905b815481526020019060010190808311611e4d575b505050505081525050905080600001518160200151826040015183608001518460a001518560c001518660e001518761010001518797508595508393508292508191508090509850985098509850985098509850985050919395975091939597565b600080611ecf8461127d565b9050611ed9612576565b60008083815260200190815260200160002060405180610140016040529081600082018054600181600116156101000203166002900480601f016020809104026020016040519081016040528092919081815260200182805460018160011615610100020316600290048015611f905780601f10611f6557610100808354040283529160200191611f90565b820191906000526020600020905b815481529060010190602001808311611f7357829003601f168201915b505050505081526020016001820160009054906101000a900460ff1660ff1660ff168152602001600282018054600181600116156101000203166002900480601f01602080910402602001604051908101604052809291908181526020018280546001816001161561010002031660029004801561204f5780601f106120245761010080835404028352916020019161204f565b820191906000526020600020905b81548152906001019060200180831161203257829003601f168201915b505050505081526020016003820160009054906101000a900473ffffffffffffffffffffffffffffffffffffffff1673ffffffffffffffffffffffffffffffffffffffff1673ffffffffffffffffffffffffffffffffffffffff16815260200160048201548152602001600582018054600181600116156101000203166002900480601f0160208091040260200160405190810160405280929190818152602001828054600181600116156101000203166002900480156121515780601f1061212657610100808354040283529160200191612151565b820191906000526020600020905b81548152906001019060200180831161213457829003601f168201915b50505050508152602001600682018054806020026020016040519081016040528092919081815260200182805480156121a957602002820191906000526020600020905b815481526020019060010190808311612195575b505050505081526020016007820180548060200260200160405190810160405280929190818152602001828054801561220157602002820191906000526020600020905b8154815260200190600101908083116121ed575b505050505081526020016008820180548060200260200160405190810160405280929190818152602001828054801561225957602002820191906000526020600020905b815481526020019060010190808311612245575b50505050508152602001600982018054806020026020016040519081016040528092919081815260200182805480156122b157602002820191906000526020600020905b81548152602001906001019080831161229d575b505050505081525050905060008090505b816101000151518110156123095781610100015181815181106122e157fe5b60200260200101518514156122fc5760019350505050612311565b80806001019150506122c2565b506000925050505b92915050565b60035481565b6000606082905060008090506000806000600290505b602a811015612569576101008402935084818151811061234f57fe5b602001015160f81c60f81b60f81c60ff16925084600182018151811061237157fe5b602001015160f81c60f81b60f81c60ff16915060618373ffffffffffffffffffffffffffffffffffffffff16101580156123c2575060668373ffffffffffffffffffffffffffffffffffffffff1611155b156123d25760578303925061246c565b60418373ffffffffffffffffffffffffffffffffffffffff1610158015612410575060468373ffffffffffffffffffffffffffffffffffffffff1611155b156124205760378303925061246b565b60308373ffffffffffffffffffffffffffffffffffffffff161015801561245e575060398373ffffffffffffffffffffffffffffffffffffffff1611155b1561246a576030830392505b5b5b60618273ffffffffffffffffffffffffffffffffffffffff16101580156124aa575060668273ffffffffffffffffffffffffffffffffffffffff1611155b156124ba57605782039150612554565b60418273ffffffffffffffffffffffffffffffffffffffff16101580156124f8575060468273ffffffffffffffffffffffffffffffffffffffff1611155b1561250857603782039150612553565b60308273ffffffffffffffffffffffffffffffffffffffff1610158015612546575060398273ffffffffffffffffffffffffffffffffffffffff1611155b15612552576030820391505b5b5b81601084020184019350600281019050612333565b5082945050505050919050565b60405180610140016040528060608152602001600060ff16815260200160608152602001600073ffffffffffffffffffffffffffffffffffffffff1681526020016000815260200160608152602001606081526020016060815260200160608152602001606081525090565b828054600181600116156101000203166002900490600052602060002090601f016020900481019282601f1061262357805160ff1916838001178555612651565b82800160010185558215612651579182015b82811115612650578251825591602001919060010190612635565b5b50905061265e91906126af565b5090565b82805482825590600052602060002090810192821561269e579160200282015b8281111561269d578251825591602001919060010190612682565b5b5090506126ab91906126af565b5090565b6126d191905b808211156126cd5760008160009055506001016126b5565b5090565b9056fea265627a7a723158207704e0ca26496df56cea502851e4f2084fb44ef25a6e0e48c8c5c80f94728fc964736f6c63430005100032",
  "source": "pragma solidity >=0.4.21 <0.7.0;\n// pragma experimental ABIEncoderV2;\n\ncontract User {\n\n    struct userS {\n        string Name;\n        uint8 Age;\n        string Gender;\n        address userid;\n        uint index;\n        // string address_string;\n        string ProfilePicHash; // Hash of profilepic\n        uint[] Posts;\n        uint[] Followers;    // Users who are following this user\n        uint[] Following;    // This user is following\n        uint[] BookmarkedPosts; // Bookmarked posts\n        // bool Isuser;\n    }\n\n    //Mappings are useful for O(1) searching \n    mapping(uint => userS) public usersM;\n    mapping(uint => mapping(uint => int)) public followM; // Check if address1 follows address2\n\n    // array containing addresses of all the users as you cannot iterate over the mapping\n    address[] usersA;\n    // total_users is the total count of users\n    uint public total_users;\n\n    function getusersAAt(uint idx) public view returns(address){ \n        return usersA[idx];\n    }\n\n\n    // modifier checkuser(uint id) {\n    //     userS memory u = usersM[id];\n    //     require(u.Isuser, \"User does not exist!\");\n    //     _;\n    // }\n\n\n    function getUserInfo(uint idx) public view returns (string memory, uint8, string memory, uint,string memory, uint[] memory, uint[] memory, uint[] memory){\n        // address temp_address = usersA[idx];\n        userS memory u = usersM[idx];\n        return (u.Name, u.Age, u.Gender,u.index, u.ProfilePicHash, u.Posts, u.Followers, u.Following);\n    }\n\n    //TODO: check if user already exists\n    function registerUser(string memory _name, uint8 _age, string memory _gender, string memory _ProfilePicHash) public returns (bool){\n        \n        // userS memory u = usersM[msg.sender];\n        bytes memory testname = bytes(_name);\n        bytes memory testgender = bytes(_gender);\n        require(_age > 0 && _age < 200, \"Age not correct\");\n        require(testname.length != 0, \"Please enter name\");\n        require(testgender.length != 0, \"Please enter gender\");\n        // require(!userpresent(), \"User already present\");\n        // string memory address_string = AddresstoString(msg.sender);\n        usersM[total_users] = (userS({Name:_name, Age:_age, Gender:_gender,index:total_users, userid:msg.sender, ProfilePicHash:_ProfilePicHash, Posts:new uint[](0), Followers:new uint[](0), Following:new uint[](0),BookmarkedPosts:new uint[](0)}));\n        usersA.push(msg.sender);\n        total_users++;\n        return true;\n    }\n\n    function userpresent(string memory _address) public view returns (bool){\n        address add = parseAddr(_address);\n        int idx = -1;\n        for(uint i = 0;i < total_users;i++)\n        {\n            if(usersA[i]==add)\n            {\n                idx = int(i);\n                break;\n            }\n        }\n        if (idx==-1) {\n            return false;\n        } else {\n            return true;\n        }\n    }\n\n    function getidxFromAddress(string memory _address) public view returns (uint)\n    {\n        address add = parseAddr(_address);\n        uint idx = 0;\n        for(uint i = 0;i < total_users;i++)\n        {\n            if(usersA[i]==add)\n            {\n                idx = i;\n                break;\n            }\n        }\n        return idx;\n    }\n\n    function Follow(string memory _address, int to_follow) public returns (bool)\n    {\n        // https://medium.com/coinmonks/what-the-hack-is-memory-and-storage-in-solidity-6b9e62577305\n        // If you use memory then you wont see changes so always use storage\n        // when updating contract\n        // add to_follow to this users' Following array\n        uint this_user = getidxFromAddress(_address);\n        usersM[this_user].Following.push(uint(to_follow));\n        // add this_user to to_follow users Followers array\n        usersM[uint(to_follow)].Followers.push(this_user);\n        return true;\n\n    }\n\n    // If current user follows the user with index id\n    function CheckFollow(string memory _address, uint id) public view  returns(bool)\n    {\n        uint userid = getidxFromAddress(_address);\n        userS memory u = usersM[userid];\n\n        for(uint i = 0;i < u.Following.length;i++)\n        {\n            if(id == u.Following[i])\n            {\n                return true;\n            }\n        }\n        return false;\n    }\n\n    // Add _post id to _user\n    function addPost(uint _user, uint _post ) public returns(bool)\n    {\n        usersM[_user].Posts.push(_post);\n        return true;\n    }\n\n    // Add postid post to bookmarked post for this user\n    function BookmarkPost(uint _userid, uint _postid) public returns(bool)\n    {\n        usersM[_userid].BookmarkedPosts.push(_postid);\n        return true;\n    }\n\n    // Check if this user has already bookmarked this post\n    function CheckBookmark(uint _userid, uint _postid) public view returns(bool)\n    {\n        userS memory u = usersM[_userid];\n        for(uint i = 0 ;i < u .BookmarkedPosts.length ; i++)\n        {\n            if(u.BookmarkedPosts[i]==_postid)\n            {\n                return true;\n            }\n        }\n        return false;\n    }\n\n    function parseAddr(string memory _a) internal pure returns (address _parsedAddress) {\n        bytes memory tmp = bytes(_a);\n        uint160 iaddr = 0;\n        uint160 b1;\n        uint160 b2;\n        for (uint i = 2; i < 2 + 2 * 20; i += 2) {\n            iaddr *= 256;\n            b1 = uint160(uint8(tmp[i]));\n            b2 = uint160(uint8(tmp[i + 1]));\n            if ((b1 >= 97) && (b1 <= 102)) {\n                b1 -= 87;\n            } else if ((b1 >= 65) && (b1 <= 70)) {\n                b1 -= 55;\n            } else if ((b1 >= 48) && (b1 <= 57)) {\n                b1 -= 48;\n            }\n            if ((b2 >= 97) && (b2 <= 102)) {\n                b2 -= 87;\n            } else if ((b2 >= 65) && (b2 <= 70)) {\n                b2 -= 55;\n            } else if ((b2 >= 48) && (b2 <= 57)) {\n                b2 -= 48;\n            }\n            iaddr += (b1 * 16 + b2);\n        }\n        return address(iaddr);\n    }\n\n\n\n\n\n    // function append(uint[] storage d, uint x) internal{\n    //     d.push(x);\n    // }\n\n\n}",
  "sourcePath": "/home/arpit/Desktop/github_repos/Dconnect/contracts/User.sol",
  "compiler": {
    "name": "solc",
    "version": "0.5.16+commit.9c3226ce.Emscripten.clang"
  },
  "schemaVersion": "3.0.23",
  "updatedAt": "2020-03-19T05:23:54.020Z",
  "networkType": "ethereum",
  "devdoc": {
    "methods": {}
  },
  "userdoc": {
    "methods": {}
  }
}