{
  "contractName": "User",
  "abi": [
    {
      "constant": true,
      "inputs": [
        {
          "internalType": "uint256",
          "name": "",
          "type": "uint256"
        },
        {
          "internalType": "uint256",
          "name": "",
          "type": "uint256"
        }
      ],
      "name": "followM",
      "outputs": [
        {
          "internalType": "int256",
          "name": "",
          "type": "int256"
        }
      ],
      "payable": false,
      "stateMutability": "view",
      "type": "function"
    },
    {
      "constant": true,
      "inputs": [],
      "name": "total_users",
      "outputs": [
        {
          "internalType": "uint256",
          "name": "",
          "type": "uint256"
        }
      ],
      "payable": false,
      "stateMutability": "view",
      "type": "function"
    },
    {
      "constant": true,
      "inputs": [
        {
          "internalType": "uint256",
          "name": "",
          "type": "uint256"
        }
      ],
      "name": "usersM",
      "outputs": [
        {
          "internalType": "string",
          "name": "Name",
          "type": "string"
        },
        {
          "internalType": "uint8",
          "name": "Age",
          "type": "uint8"
        },
        {
          "internalType": "string",
          "name": "Gender",
          "type": "string"
        },
        {
          "internalType": "address",
          "name": "userid",
          "type": "address"
        },
        {
          "internalType": "uint256",
          "name": "index",
          "type": "uint256"
        },
        {
          "internalType": "string",
          "name": "ProfilePicHash",
          "type": "string"
        },
        {
          "internalType": "bool",
          "name": "Isuser",
          "type": "bool"
        }
      ],
      "payable": false,
      "stateMutability": "view",
      "type": "function"
    },
    {
      "constant": true,
      "inputs": [
        {
          "internalType": "uint256",
          "name": "idx",
          "type": "uint256"
        }
      ],
      "name": "getusersAAt",
      "outputs": [
        {
          "internalType": "address",
          "name": "",
          "type": "address"
        }
      ],
      "payable": false,
      "stateMutability": "view",
      "type": "function"
    },
    {
      "constant": true,
      "inputs": [
        {
          "internalType": "uint256",
          "name": "idx",
          "type": "uint256"
        }
      ],
      "name": "getUserInfo",
      "outputs": [
        {
          "internalType": "string",
          "name": "",
          "type": "string"
        },
        {
          "internalType": "uint8",
          "name": "",
          "type": "uint8"
        },
        {
          "internalType": "string",
          "name": "",
          "type": "string"
        },
        {
          "internalType": "uint256",
          "name": "",
          "type": "uint256"
        },
        {
          "internalType": "string",
          "name": "",
          "type": "string"
        },
        {
          "internalType": "uint256[]",
          "name": "",
          "type": "uint256[]"
        },
        {
          "internalType": "uint256[]",
          "name": "",
          "type": "uint256[]"
        },
        {
          "internalType": "uint256[]",
          "name": "",
          "type": "uint256[]"
        }
      ],
      "payable": false,
      "stateMutability": "view",
      "type": "function"
    },
    {
      "constant": false,
      "inputs": [
        {
          "internalType": "string",
          "name": "_name",
          "type": "string"
        },
        {
          "internalType": "uint8",
          "name": "_age",
          "type": "uint8"
        },
        {
          "internalType": "string",
          "name": "_gender",
          "type": "string"
        },
        {
          "internalType": "string",
          "name": "_ProfilePicHash",
          "type": "string"
        }
      ],
      "name": "registerUser",
      "outputs": [
        {
          "internalType": "bool",
          "name": "",
          "type": "bool"
        }
      ],
      "payable": false,
      "stateMutability": "nonpayable",
      "type": "function"
    },
    {
      "constant": true,
      "inputs": [
        {
          "internalType": "string",
          "name": "_address",
          "type": "string"
        }
      ],
      "name": "userpresent",
      "outputs": [
        {
          "internalType": "bool",
          "name": "",
          "type": "bool"
        }
      ],
      "payable": false,
      "stateMutability": "view",
      "type": "function"
    },
    {
      "constant": true,
      "inputs": [
        {
          "internalType": "string",
          "name": "_address",
          "type": "string"
        }
      ],
      "name": "getidxFromAddress",
      "outputs": [
        {
          "internalType": "uint256",
          "name": "",
          "type": "uint256"
        }
      ],
      "payable": false,
      "stateMutability": "view",
      "type": "function"
    },
    {
      "constant": false,
      "inputs": [
        {
          "internalType": "string",
          "name": "_address",
          "type": "string"
        },
        {
          "internalType": "int256",
          "name": "to_follow",
          "type": "int256"
        }
      ],
      "name": "Follow",
      "outputs": [
        {
          "internalType": "bool",
          "name": "",
          "type": "bool"
        }
      ],
      "payable": false,
      "stateMutability": "nonpayable",
      "type": "function"
    },
    {
      "constant": false,
      "inputs": [
        {
          "internalType": "string",
          "name": "_address",
          "type": "string"
        },
        {
          "internalType": "uint256",
          "name": "id",
          "type": "uint256"
        }
      ],
      "name": "CheckFollow",
      "outputs": [
        {
          "internalType": "bool",
          "name": "",
          "type": "bool"
        }
      ],
      "payable": false,
      "stateMutability": "nonpayable",
      "type": "function"
    },
    {
      "constant": false,
      "inputs": [
        {
          "internalType": "uint256",
          "name": "_user",
          "type": "uint256"
        },
        {
          "internalType": "uint256",
          "name": "_post",
          "type": "uint256"
        }
      ],
      "name": "addPost",
      "outputs": [
        {
          "internalType": "bool",
          "name": "",
          "type": "bool"
        }
      ],
      "payable": false,
      "stateMutability": "nonpayable",
      "type": "function"
    }
  ],
  "bytecode": "0x608060405234801561001057600080fd5b5061212e806100206000396000f3fe608060405234801561001057600080fd5b50600436106100a95760003560e01c8063726a3be911610071578063726a3be9146103e757806383db1548146105f55780639e37121914610645578063d379dadf14610816578063e0e84ab114610a81578063e7cc62bd14610b5e576100a9565b806311796bfb146100ae5780631e79869b1461018157806323dfe814146101cd57806325ed0f651461023b5780634a30ff0a14610318575b600080fd5b610167600480360360208110156100c457600080fd5b81019080803590602001906401000000008111156100e157600080fd5b8201836020820111156100f357600080fd5b8035906020019184600183028401116401000000008311171561011557600080fd5b91908080601f016020809104026020016040519081016040528093929190818152602001838380828437600081840152601f19601f820116905080830192505050505050509192919290505050610b7c565b604051808215151515815260200191505060405180910390f35b6101b76004803603604081101561019757600080fd5b810190808035906020019092919080359060200190929190505050610c7f565b6040518082815260200191505060405180910390f35b6101f9600480360360208110156101e357600080fd5b8101908080359060200190929190505050610ca4565b604051808273ffffffffffffffffffffffffffffffffffffffff1673ffffffffffffffffffffffffffffffffffffffff16815260200191505060405180910390f35b6102fe6004803603604081101561025157600080fd5b810190808035906020019064010000000081111561026e57600080fd5b82018360208201111561028057600080fd5b803590602001918460018302840111640100000000831117156102a257600080fd5b91908080601f016020809104026020016040519081016040528093929190818152602001838380828437600081840152601f19601f82011690508083019250505050505050919291929080359060200190929190505050610ce5565b604051808215151515815260200191505060405180910390f35b6103d16004803603602081101561032e57600080fd5b810190808035906020019064010000000081111561034b57600080fd5b82018360208201111561035d57600080fd5b8035906020019184600183028401116401000000008311171561037f57600080fd5b91908080601f016020809104026020016040519081016040528093929190818152602001838380828437600081840152601f19601f820116905080830192505050505050509192919290505050610d7c565b6040518082815260200191505060405180910390f35b6105db600480360360808110156103fd57600080fd5b810190808035906020019064010000000081111561041a57600080fd5b82018360208201111561042c57600080fd5b8035906020019184600183028401116401000000008311171561044e57600080fd5b91908080601f016020809104026020016040519081016040528093929190818152602001838380828437600081840152601f19601f820116905080830192505050505050509192919290803560ff169060200190929190803590602001906401000000008111156104be57600080fd5b8201836020820111156104d057600080fd5b803590602001918460018302840111640100000000831117156104f257600080fd5b91908080601f016020809104026020016040519081016040528093929190818152602001838380828437600081840152601f19601f8201169050808301925050505050505091929192908035906020019064010000000081111561055557600080fd5b82018360208201111561056757600080fd5b8035906020019184600183028401116401000000008311171561058957600080fd5b91908080601f016020809104026020016040519081016040528093929190818152602001838380828437600081840152601f19601f820116905080830192505050505050509192919290505050610e2a565b604051808215151515815260200191505060405180910390f35b61062b6004803603604081101561060b57600080fd5b810190808035906020019092919080359060200190929190505050611281565b604051808215151515815260200191505060405180910390f35b6106716004803603602081101561065b57600080fd5b81019080803590602001909291905050506112cc565b60405180806020018860ff1660ff168152602001806020018773ffffffffffffffffffffffffffffffffffffffff1673ffffffffffffffffffffffffffffffffffffffff168152602001868152602001806020018515151515815260200184810384528b818151815260200191508051906020019080838360005b838110156107075780820151818401526020810190506106ec565b50505050905090810190601f1680156107345780820380516001836020036101000a031916815260200191505b50848103835289818151815260200191508051906020019080838360005b8381101561076d578082015181840152602081019050610752565b50505050905090810190601f16801561079a5780820380516001836020036101000a031916815260200191505b50848103825286818151815260200191508051906020019080838360005b838110156107d35780820151818401526020810190506107b8565b50505050905090810190601f1680156108005780820380516001836020036101000a031916815260200191505b509a505050505050505050505060405180910390f35b6108426004803603602081101561082c57600080fd5b8101908080359060200190929190505050611510565b60405180806020018960ff1660ff168152602001806020018881526020018060200180602001806020018060200187810387528f818151815260200191508051906020019080838360005b838110156108a857808201518184015260208101905061088d565b50505050905090810190601f1680156108d55780820380516001836020036101000a031916815260200191505b5087810386528d818151815260200191508051906020019080838360005b8381101561090e5780820151818401526020810190506108f3565b50505050905090810190601f16801561093b5780820380516001836020036101000a031916815260200191505b5087810385528b818151815260200191508051906020019080838360005b83811015610974578082015181840152602081019050610959565b50505050905090810190601f1680156109a15780820380516001836020036101000a031916815260200191505b5087810384528a818151815260200191508051906020019060200280838360005b838110156109dd5780820151818401526020810190506109c2565b50505050905001878103835289818151815260200191508051906020019060200280838360005b83811015610a1f578082015181840152602081019050610a04565b50505050905001878103825288818151815260200191508051906020019060200280838360005b83811015610a61578082015181840152602081019050610a46565b505050509050019e50505050505050505050505050505060405180910390f35b610b4460048036036040811015610a9757600080fd5b8101908080359060200190640100000000811115610ab457600080fd5b820183602082011115610ac657600080fd5b80359060200191846001830284011164010000000083111715610ae857600080fd5b91908080601f016020809104026020016040519081016040528093929190818152602001838380828437600081840152601f19601f82011690508083019250505050505050919291929080359060200190929190505050611923565b604051808215151515815260200191505060405180910390f35b610b66611d3a565b6040518082815260200191505060405180910390f35b600080610b8883611d40565b905060007fffffffffffffffffffffffffffffffffffffffffffffffffffffffffffffffff905060008090505b600354811015610c3f578273ffffffffffffffffffffffffffffffffffffffff1660028281548110610be357fe5b9060005260206000200160009054906101000a900473ffffffffffffffffffffffffffffffffffffffff1673ffffffffffffffffffffffffffffffffffffffff161415610c3257809150610c3f565b8080600101915050610bb5565b507fffffffffffffffffffffffffffffffffffffffffffffffffffffffffffffffff811415610c7357600092505050610c7a565b6001925050505b919050565b6001602052816000526040600020602052806000526040600020600091509150505481565b600060028281548110610cb357fe5b9060005260206000200160009054906101000a900473ffffffffffffffffffffffffffffffffffffffff169050919050565b600080610cf184610d7c565b9050600080828152602001908152602001600020600801839080600181540180825580915050906001820390600052602060002001600090919290919091505550600080848152602001908152602001600020600701819080600181540180825580915050906001820390600052602060002001600090919290919091505550600191505092915050565b600080610d8883611d40565b9050600080905060008090505b600354811015610e1f578273ffffffffffffffffffffffffffffffffffffffff1660028281548110610dc357fe5b9060005260206000200160009054906101000a900473ffffffffffffffffffffffffffffffffffffffff1673ffffffffffffffffffffffffffffffffffffffff161415610e1257809150610e1f565b8080600101915050610d95565b508092505050919050565b60006060859050606084905060008660ff16118015610e4c575060c88660ff16105b610ebe576040517f08c379a000000000000000000000000000000000000000000000000000000000815260040180806020018281038252600f8152602001807f416765206e6f7420636f7272656374000000000000000000000000000000000081525060200191505060405180910390fd5b600082511415610f36576040517f08c379a00000000000000000000000000000000000000000000000000000000081526004018080602001828103825260118152602001807f506c6561736520656e746572206e616d6500000000000000000000000000000081525060200191505060405180910390fd5b600081511415610fae576040517f08c379a00000000000000000000000000000000000000000000000000000000081526004018080602001828103825260138152602001807f506c6561736520656e7465722067656e6465720000000000000000000000000081525060200191505060405180910390fd5b6040518061014001604052808881526020018760ff1681526020018681526020013373ffffffffffffffffffffffffffffffffffffffff168152602001600354815260200185815260200160006040519080825280602002602001820160405280156110295781602001602082028038833980820191505090505b508152602001600060405190808252806020026020018201604052801561105f5781602001602082028038833980820191505090505b50815260200160006040519080825280602002602001820160405280156110955781602001602082028038833980820191505090505b50815260200160011515815250600080600354815260200190815260200160002060008201518160000190805190602001906110d2929190611f99565b5060208201518160010160006101000a81548160ff021916908360ff1602179055506040820151816002019080519060200190611110929190611f99565b5060608201518160030160006101000a81548173ffffffffffffffffffffffffffffffffffffffff021916908373ffffffffffffffffffffffffffffffffffffffff1602179055506080820151816004015560a082015181600501908051906020019061117e929190611f99565b5060c082015181600601908051906020019061119b929190612019565b5060e08201518160070190805190602001906111b8929190612019565b506101008201518160080190805190602001906111d6929190612019565b506101208201518160090160006101000a81548160ff02191690831515021790555090505060023390806001815401808255809150509060018203906000526020600020016000909192909190916101000a81548173ffffffffffffffffffffffffffffffffffffffff021916908373ffffffffffffffffffffffffffffffffffffffff16021790555050600360008154809291906001019190505550600192505050949350505050565b60008060008481526020019081526020016000206006018290806001815401808255809150509060018203906000526020600020016000909192909190915055506001905092915050565b6000602052806000526040600020600091509050806000018054600181600116156101000203166002900480601f0160208091040260200160405190810160405280929190818152602001828054600181600116156101000203166002900480156113785780601f1061134d57610100808354040283529160200191611378565b820191906000526020600020905b81548152906001019060200180831161135b57829003601f168201915b5050505050908060010160009054906101000a900460ff1690806002018054600181600116156101000203166002900480601f0160208091040260200160405190810160405280929190818152602001828054600181600116156101000203166002900480156114295780601f106113fe57610100808354040283529160200191611429565b820191906000526020600020905b81548152906001019060200180831161140c57829003601f168201915b5050505050908060030160009054906101000a900473ffffffffffffffffffffffffffffffffffffffff1690806004015490806005018054600181600116156101000203166002900480601f0160208091040260200160405190810160405280929190818152602001828054600181600116156101000203166002900480156114f35780601f106114c8576101008083540402835291602001916114f3565b820191906000526020600020905b8154815290600101906020018083116114d657829003601f168201915b5050505050908060090160009054906101000a900460ff16905087565b6060600060606000606080606080611526612066565b6000808b815260200190815260200160002060405180610140016040529081600082018054600181600116156101000203166002900480601f0160208091040260200160405190810160405280929190818152602001828054600181600116156101000203166002900480156115dd5780601f106115b2576101008083540402835291602001916115dd565b820191906000526020600020905b8154815290600101906020018083116115c057829003601f168201915b505050505081526020016001820160009054906101000a900460ff1660ff1660ff168152602001600282018054600181600116156101000203166002900480601f01602080910402602001604051908101604052809291908181526020018280546001816001161561010002031660029004801561169c5780601f106116715761010080835404028352916020019161169c565b820191906000526020600020905b81548152906001019060200180831161167f57829003601f168201915b505050505081526020016003820160009054906101000a900473ffffffffffffffffffffffffffffffffffffffff1673ffffffffffffffffffffffffffffffffffffffff1673ffffffffffffffffffffffffffffffffffffffff16815260200160048201548152602001600582018054600181600116156101000203166002900480601f01602080910402602001604051908101604052809291908181526020018280546001816001161561010002031660029004801561179e5780601f106117735761010080835404028352916020019161179e565b820191906000526020600020905b81548152906001019060200180831161178157829003601f168201915b50505050508152602001600682018054806020026020016040519081016040528092919081815260200182805480156117f657602002820191906000526020600020905b8154815260200190600101908083116117e2575b505050505081526020016007820180548060200260200160405190810160405280929190818152602001828054801561184e57602002820191906000526020600020905b81548152602001906001019080831161183a575b50505050508152602001600882018054806020026020016040519081016040528092919081815260200182805480156118a657602002820191906000526020600020905b815481526020019060010190808311611892575b505050505081526020016009820160009054906101000a900460ff161515151581525050905080600001518160200151826040015183608001518460a001518560c001518660e001518761010001518797508595508393508292508191508090509850985098509850985098509850985050919395975091939597565b60008061192f84610d7c565b9050611939612066565b60008083815260200190815260200160002060405180610140016040529081600082018054600181600116156101000203166002900480601f0160208091040260200160405190810160405280929190818152602001828054600181600116156101000203166002900480156119f05780601f106119c5576101008083540402835291602001916119f0565b820191906000526020600020905b8154815290600101906020018083116119d357829003601f168201915b505050505081526020016001820160009054906101000a900460ff1660ff1660ff168152602001600282018054600181600116156101000203166002900480601f016020809104026020016040519081016040528092919081815260200182805460018160011615610100020316600290048015611aaf5780601f10611a8457610100808354040283529160200191611aaf565b820191906000526020600020905b815481529060010190602001808311611a9257829003601f168201915b505050505081526020016003820160009054906101000a900473ffffffffffffffffffffffffffffffffffffffff1673ffffffffffffffffffffffffffffffffffffffff1673ffffffffffffffffffffffffffffffffffffffff16815260200160048201548152602001600582018054600181600116156101000203166002900480601f016020809104026020016040519081016040528092919081815260200182805460018160011615610100020316600290048015611bb15780601f10611b8657610100808354040283529160200191611bb1565b820191906000526020600020905b815481529060010190602001808311611b9457829003601f168201915b5050505050815260200160068201805480602002602001604051908101604052809291908181526020018280548015611c0957602002820191906000526020600020905b815481526020019060010190808311611bf5575b5050505050815260200160078201805480602002602001604051908101604052809291908181526020018280548015611c6157602002820191906000526020600020905b815481526020019060010190808311611c4d575b5050505050815260200160088201805480602002602001604051908101604052809291908181526020018280548015611cb957602002820191906000526020600020905b815481526020019060010190808311611ca5575b505050505081526020016009820160009054906101000a900460ff161515151581525050905060008090505b81610100015151811015611d2c578161010001518181518110611d0457fe5b6020026020010151851415611d1f5760019350505050611d34565b8080600101915050611ce5565b506000925050505b92915050565b60035481565b6000606082905060008090506000806000600290505b602a811015611f8c5761010084029350848181518110611d7257fe5b602001015160f81c60f81b60f81c60ff169250846001820181518110611d9457fe5b602001015160f81c60f81b60f81c60ff16915060618373ffffffffffffffffffffffffffffffffffffffff1610158015611de5575060668373ffffffffffffffffffffffffffffffffffffffff1611155b15611df557605783039250611e8f565b60418373ffffffffffffffffffffffffffffffffffffffff1610158015611e33575060468373ffffffffffffffffffffffffffffffffffffffff1611155b15611e4357603783039250611e8e565b60308373ffffffffffffffffffffffffffffffffffffffff1610158015611e81575060398373ffffffffffffffffffffffffffffffffffffffff1611155b15611e8d576030830392505b5b5b60618273ffffffffffffffffffffffffffffffffffffffff1610158015611ecd575060668273ffffffffffffffffffffffffffffffffffffffff1611155b15611edd57605782039150611f77565b60418273ffffffffffffffffffffffffffffffffffffffff1610158015611f1b575060468273ffffffffffffffffffffffffffffffffffffffff1611155b15611f2b57603782039150611f76565b60308273ffffffffffffffffffffffffffffffffffffffff1610158015611f69575060398273ffffffffffffffffffffffffffffffffffffffff1611155b15611f75576030820391505b5b5b81601084020184019350600281019050611d56565b5082945050505050919050565b828054600181600116156101000203166002900490600052602060002090601f016020900481019282601f10611fda57805160ff1916838001178555612008565b82800160010185558215612008579182015b82811115612007578251825591602001919060010190611fec565b5b50905061201591906120d4565b5090565b828054828255906000526020600020908101928215612055579160200282015b82811115612054578251825591602001919060010190612039565b5b50905061206291906120d4565b5090565b60405180610140016040528060608152602001600060ff16815260200160608152602001600073ffffffffffffffffffffffffffffffffffffffff16815260200160008152602001606081526020016060815260200160608152602001606081526020016000151581525090565b6120f691905b808211156120f25760008160009055506001016120da565b5090565b9056fea265627a7a723158200c344af2b9e642a757b35a62d3e928df9cdd475a7589138da05b10d31e3723fe64736f6c63430005100032",
  "source": "pragma solidity >=0.4.21 <0.7.0;\n// pragma experimental ABIEncoderV2;\n\ncontract User {\n\n    struct userS {\n        string Name;\n        uint8 Age;\n        string Gender;\n        address userid;\n        uint index;\n        // string address_string;\n        string ProfilePicHash; // Hash of profilepic\n        uint[] Posts;\n        uint[] Followers;    // Users who are following this user\n        uint[] Following;    // This user is following\n        bool Isuser;\n    }\n\n    //Mappings are useful for O(1) searching \n    mapping(uint => userS) public usersM;\n    mapping(uint => mapping(uint => int)) public followM; // Check if address1 follows address2\n\n    // array containing addresses of all the users as you cannot iterate over the mapping\n    address[] usersA;\n    // total_users is the total count of users\n    uint public total_users;\n\n    function getusersAAt(uint idx) public view returns(address){ \n        return usersA[idx];\n    }\n\n\n    modifier checkuser(uint id) {\n        userS memory u = usersM[id];\n        require(u.Isuser, \"User does not exist!\");\n        _;\n    }\n\n\n    function getUserInfo(uint idx) public view returns (string memory, uint8, string memory, uint,string memory, uint[] memory, uint[] memory, uint[] memory){\n        // address temp_address = usersA[idx];\n        userS memory u = usersM[idx];\n        return (u.Name, u.Age, u.Gender,u.index, u.ProfilePicHash, u.Posts, u.Followers, u.Following);\n    }\n\n    //TODO: check if user already exists\n    function registerUser(string memory _name, uint8 _age, string memory _gender, string memory _ProfilePicHash) public returns (bool){\n        \n        // userS memory u = usersM[msg.sender];\n        bytes memory testname = bytes(_name);\n        bytes memory testgender = bytes(_gender);\n        require(_age > 0 && _age < 200, \"Age not correct\");\n        require(testname.length != 0, \"Please enter name\");\n        require(testgender.length != 0, \"Please enter gender\");\n        // require(!userpresent(), \"User already present\");\n        // string memory address_string = AddresstoString(msg.sender);\n        usersM[total_users] = (userS({Name:_name, Age:_age, Gender:_gender,index:total_users, userid:msg.sender, ProfilePicHash:_ProfilePicHash, Posts:new uint[](0), Followers:new uint[](0), Following:new uint[](0), Isuser:true}));\n        usersA.push(msg.sender);\n        total_users++;\n        return true;\n    }\n\n    function userpresent(string memory _address) public view returns (bool){\n        address add = parseAddr(_address);\n        int idx = -1;\n        for(uint i = 0;i < total_users;i++)\n        {\n            if(usersA[i]==add)\n            {\n                idx = int(i);\n                break;\n            }\n        }\n        if (idx==-1) {\n            return false;\n        } else {\n            return true;\n        }\n    }\n\n    function getidxFromAddress(string memory _address) public view returns (uint)\n    {\n        address add = parseAddr(_address);\n        uint idx = 0;\n        for(uint i = 0;i < total_users;i++)\n        {\n            if(usersA[i]==add)\n            {\n                idx = i;\n                break;\n            }\n        }\n        return idx;\n    }\n\n    function Follow(string memory _address, int to_follow) public returns (bool)\n    {\n        // https://medium.com/coinmonks/what-the-hack-is-memory-and-storage-in-solidity-6b9e62577305\n        // If you use memory then you wont see changes so always use storage\n        // when updating contract\n        // add to_follow to this users' Following array\n        uint this_user = getidxFromAddress(_address);\n        usersM[this_user].Following.push(uint(to_follow));\n        // add this_user to to_follow users Followers array\n        usersM[uint(to_follow)].Followers.push(this_user);\n        return true;\n\n    }\n\n    // If current user follows the user with index id\n    function CheckFollow(string memory _address, uint id) public returns(bool)\n    {\n        uint userid = getidxFromAddress(_address);\n        userS memory u = usersM[userid];\n\n        for(uint i = 0;i < u.Following.length;i++)\n        {\n            if(id == u.Following[i])\n            {\n                return true;\n            }\n        }\n        return false;\n    }\n\n    // Add _post id to _user\n    function addPost(uint _user, uint _post ) public returns(bool)\n    {\n        usersM[_user].Posts.push(_post);\n        return true;\n    }\n    function parseAddr(string memory _a) internal pure returns (address _parsedAddress) {\n        bytes memory tmp = bytes(_a);\n        uint160 iaddr = 0;\n        uint160 b1;\n        uint160 b2;\n        for (uint i = 2; i < 2 + 2 * 20; i += 2) {\n            iaddr *= 256;\n            b1 = uint160(uint8(tmp[i]));\n            b2 = uint160(uint8(tmp[i + 1]));\n            if ((b1 >= 97) && (b1 <= 102)) {\n                b1 -= 87;\n            } else if ((b1 >= 65) && (b1 <= 70)) {\n                b1 -= 55;\n            } else if ((b1 >= 48) && (b1 <= 57)) {\n                b1 -= 48;\n            }\n            if ((b2 >= 97) && (b2 <= 102)) {\n                b2 -= 87;\n            } else if ((b2 >= 65) && (b2 <= 70)) {\n                b2 -= 55;\n            } else if ((b2 >= 48) && (b2 <= 57)) {\n                b2 -= 48;\n            }\n            iaddr += (b1 * 16 + b2);\n        }\n        return address(iaddr);\n    }\n\n\n\n\n\n    // function append(uint[] storage d, uint x) internal{\n    //     d.push(x);\n    // }\n\n\n}",
  "sourcePath": "/home/arpit/Desktop/github_repos/Dconnect/contracts/User.sol",
  "compiler": {
    "name": "solc",
    "version": "0.5.16+commit.9c3226ce.Emscripten.clang"
  },
  "schemaVersion": "3.0.23",
  "updatedAt": "2020-03-18T05:31:34.114Z",
  "networkType": "ethereum",
  "devdoc": {
    "methods": {}
  },
  "userdoc": {
    "methods": {}
  }
}