{
  "contractName": "User",
  "abi": [
    {
      "constant": true,
      "inputs": [],
      "name": "total_users",
      "outputs": [
        {
          "internalType": "uint256",
          "name": "",
          "type": "uint256"
        }
      ],
      "payable": false,
      "stateMutability": "view",
      "type": "function"
    },
    {
      "constant": true,
      "inputs": [
        {
          "internalType": "uint256",
          "name": "",
          "type": "uint256"
        }
      ],
      "name": "usersM",
      "outputs": [
        {
          "internalType": "string",
          "name": "Name",
          "type": "string"
        },
        {
          "internalType": "string",
          "name": "Bio",
          "type": "string"
        },
        {
          "internalType": "address",
          "name": "userid",
          "type": "address"
        },
        {
          "internalType": "uint256",
          "name": "index",
          "type": "uint256"
        }
      ],
      "payable": false,
      "stateMutability": "view",
      "type": "function"
    },
    {
      "constant": true,
      "inputs": [
        {
          "internalType": "uint256",
          "name": "idx",
          "type": "uint256"
        }
      ],
      "name": "getusersAAt",
      "outputs": [
        {
          "internalType": "address",
          "name": "",
          "type": "address"
        }
      ],
      "payable": false,
      "stateMutability": "view",
      "type": "function"
    },
    {
      "constant": true,
      "inputs": [
        {
          "internalType": "uint256",
          "name": "idx",
          "type": "uint256"
        }
      ],
      "name": "getUserInfo",
      "outputs": [
        {
          "internalType": "string",
          "name": "",
          "type": "string"
        },
        {
          "internalType": "string",
          "name": "",
          "type": "string"
        },
        {
          "internalType": "uint256",
          "name": "",
          "type": "uint256"
        },
        {
          "internalType": "uint256[]",
          "name": "",
          "type": "uint256[]"
        },
        {
          "internalType": "uint256[]",
          "name": "",
          "type": "uint256[]"
        },
        {
          "internalType": "uint256[]",
          "name": "",
          "type": "uint256[]"
        },
        {
          "internalType": "uint256[]",
          "name": "",
          "type": "uint256[]"
        }
      ],
      "payable": false,
      "stateMutability": "view",
      "type": "function"
    },
    {
      "constant": true,
      "inputs": [
        {
          "internalType": "uint256",
          "name": "idx",
          "type": "uint256"
        }
      ],
      "name": "getUpvotedPosts",
      "outputs": [
        {
          "internalType": "uint256[]",
          "name": "",
          "type": "uint256[]"
        }
      ],
      "payable": false,
      "stateMutability": "view",
      "type": "function"
    },
    {
      "constant": false,
      "inputs": [
        {
          "internalType": "string",
          "name": "_name",
          "type": "string"
        },
        {
          "internalType": "string",
          "name": "_bio",
          "type": "string"
        }
      ],
      "name": "registerUser",
      "outputs": [
        {
          "internalType": "bool",
          "name": "",
          "type": "bool"
        }
      ],
      "payable": false,
      "stateMutability": "nonpayable",
      "type": "function"
    },
    {
      "constant": false,
      "inputs": [
        {
          "internalType": "uint256",
          "name": "idx",
          "type": "uint256"
        },
        {
          "internalType": "string",
          "name": "name",
          "type": "string"
        },
        {
          "internalType": "string",
          "name": "bio",
          "type": "string"
        }
      ],
      "name": "EditUser",
      "outputs": [
        {
          "internalType": "bool",
          "name": "",
          "type": "bool"
        }
      ],
      "payable": false,
      "stateMutability": "nonpayable",
      "type": "function"
    },
    {
      "constant": true,
      "inputs": [
        {
          "internalType": "string",
          "name": "_address",
          "type": "string"
        }
      ],
      "name": "userpresent",
      "outputs": [
        {
          "internalType": "bool",
          "name": "",
          "type": "bool"
        }
      ],
      "payable": false,
      "stateMutability": "view",
      "type": "function"
    },
    {
      "constant": true,
      "inputs": [
        {
          "internalType": "string",
          "name": "_address",
          "type": "string"
        }
      ],
      "name": "getidxFromAddress",
      "outputs": [
        {
          "internalType": "uint256",
          "name": "",
          "type": "uint256"
        }
      ],
      "payable": false,
      "stateMutability": "view",
      "type": "function"
    },
    {
      "constant": false,
      "inputs": [
        {
          "internalType": "string",
          "name": "_address",
          "type": "string"
        },
        {
          "internalType": "int256",
          "name": "to_follow",
          "type": "int256"
        }
      ],
      "name": "Follow",
      "outputs": [
        {
          "internalType": "bool",
          "name": "",
          "type": "bool"
        }
      ],
      "payable": false,
      "stateMutability": "nonpayable",
      "type": "function"
    },
    {
      "constant": true,
      "inputs": [
        {
          "internalType": "string",
          "name": "_address",
          "type": "string"
        },
        {
          "internalType": "uint256",
          "name": "id",
          "type": "uint256"
        }
      ],
      "name": "CheckFollow",
      "outputs": [
        {
          "internalType": "bool",
          "name": "",
          "type": "bool"
        }
      ],
      "payable": false,
      "stateMutability": "view",
      "type": "function"
    },
    {
      "constant": false,
      "inputs": [
        {
          "internalType": "uint256",
          "name": "_user",
          "type": "uint256"
        },
        {
          "internalType": "uint256",
          "name": "_post",
          "type": "uint256"
        }
      ],
      "name": "addPost",
      "outputs": [
        {
          "internalType": "bool",
          "name": "",
          "type": "bool"
        }
      ],
      "payable": false,
      "stateMutability": "nonpayable",
      "type": "function"
    },
    {
      "constant": false,
      "inputs": [
        {
          "internalType": "uint256",
          "name": "_userid",
          "type": "uint256"
        },
        {
          "internalType": "uint256",
          "name": "_postid",
          "type": "uint256"
        }
      ],
      "name": "BookmarkPost",
      "outputs": [
        {
          "internalType": "bool",
          "name": "",
          "type": "bool"
        }
      ],
      "payable": false,
      "stateMutability": "nonpayable",
      "type": "function"
    },
    {
      "constant": false,
      "inputs": [
        {
          "internalType": "uint256",
          "name": "_userid",
          "type": "uint256"
        },
        {
          "internalType": "uint256",
          "name": "_postid",
          "type": "uint256"
        }
      ],
      "name": "UpvotePost",
      "outputs": [
        {
          "internalType": "bool",
          "name": "",
          "type": "bool"
        }
      ],
      "payable": false,
      "stateMutability": "nonpayable",
      "type": "function"
    },
    {
      "constant": true,
      "inputs": [
        {
          "internalType": "uint256",
          "name": "_userid",
          "type": "uint256"
        },
        {
          "internalType": "uint256",
          "name": "_postid",
          "type": "uint256"
        }
      ],
      "name": "CheckBookmark",
      "outputs": [
        {
          "internalType": "bool",
          "name": "",
          "type": "bool"
        }
      ],
      "payable": false,
      "stateMutability": "view",
      "type": "function"
    }
  ],
  "bytecode": "0x608060405234801561001057600080fd5b50612975806100206000396000f3fe608060405234801561001057600080fd5b50600436106100f55760003560e01c80637bcd3a2411610097578063d524a59711610066578063d524a59714610a4b578063e0e84ab114610a9b578063e7cc62bd14610b78578063ffc3a05614610b96576100f5565b80637bcd3a241461062457806383db1548146106745780639e371219146106c4578063d379dadf14610811576100f5565b806325ed0f65116100d357806325ed0f65146103a557806336ad1cd3146104825780634a30ff0a146104d257806352788dd0146105a1576100f5565b806311796bfb146100fa5780631d2e4afd146101cd57806323dfe81414610337575b600080fd5b6101b36004803603602081101561011057600080fd5b810190808035906020019064010000000081111561012d57600080fd5b82018360208201111561013f57600080fd5b8035906020019184600183028401116401000000008311171561016157600080fd5b91908080601f016020809104026020016040519081016040528093929190818152602001838380828437600081840152601f19601f820116905080830192505050505050509192919290505050610d0a565b604051808215151515815260200191505060405180910390f35b61031d600480360360408110156101e357600080fd5b810190808035906020019064010000000081111561020057600080fd5b82018360208201111561021257600080fd5b8035906020019184600183028401116401000000008311171561023457600080fd5b91908080601f016020809104026020016040519081016040528093929190818152602001838380828437600081840152601f19601f8201169050808301925050505050505091929192908035906020019064010000000081111561029757600080fd5b8201836020820111156102a957600080fd5b803590602001918460018302840111640100000000831117156102cb57600080fd5b91908080601f016020809104026020016040519081016040528093929190818152602001838380828437600081840152601f19601f820116905080830192505050505050509192919290505050610e0d565b604051808215151515815260200191505060405180910390f35b6103636004803603602081101561034d57600080fd5b810190808035906020019092919050505061118b565b604051808273ffffffffffffffffffffffffffffffffffffffff1673ffffffffffffffffffffffffffffffffffffffff16815260200191505060405180910390f35b610468600480360360408110156103bb57600080fd5b81019080803590602001906401000000008111156103d857600080fd5b8201836020820111156103ea57600080fd5b8035906020019184600183028401116401000000008311171561040c57600080fd5b91908080601f016020809104026020016040519081016040528093929190818152602001838380828437600081840152601f19601f820116905080830192505050505050509192919290803590602001909291905050506111cc565b604051808215151515815260200191505060405180910390f35b6104b86004803603604081101561049857600080fd5b810190808035906020019092919080359060200190929190505050611263565b604051808215151515815260200191505060405180910390f35b61058b600480360360208110156104e857600080fd5b810190808035906020019064010000000081111561050557600080fd5b82018360208201111561051757600080fd5b8035906020019184600183028401116401000000008311171561053957600080fd5b91908080601f016020809104026020016040519081016040528093929190818152602001838380828437600081840152601f19601f820116905080830192505050505050509192919290505050611640565b6040518082815260200191505060405180910390f35b6105cd600480360360208110156105b757600080fd5b81019080803590602001909291905050506116ee565b6040518080602001828103825283818151815260200191508051906020019060200280838360005b838110156106105780820151818401526020810190506105f5565b505050509050019250505060405180910390f35b61065a6004803603604081101561063a57600080fd5b810190808035906020019092919080359060200190929190505050611a82565b604051808215151515815260200191505060405180910390f35b6106aa6004803603604081101561068a57600080fd5b810190808035906020019092919080359060200190929190505050611acd565b604051808215151515815260200191505060405180910390f35b6106f0600480360360208110156106da57600080fd5b8101908080359060200190929190505050611b18565b6040518080602001806020018573ffffffffffffffffffffffffffffffffffffffff1673ffffffffffffffffffffffffffffffffffffffff168152602001848152602001838103835287818151815260200191508051906020019080838360005b8381101561076c578082015181840152602081019050610751565b50505050905090810190601f1680156107995780820380516001836020036101000a031916815260200191505b50838103825286818151815260200191508051906020019080838360005b838110156107d25780820151818401526020810190506107b7565b50505050905090810190601f1680156107ff5780820380516001836020036101000a031916815260200191505b50965050505050505060405180910390f35b61083d6004803603602081101561082757600080fd5b8101908080359060200190929190505050611c98565b6040518080602001806020018881526020018060200180602001806020018060200187810387528e818151815260200191508051906020019080838360005b8381101561089757808201518184015260208101905061087c565b50505050905090810190601f1680156108c45780820380516001836020036101000a031916815260200191505b5087810386528d818151815260200191508051906020019080838360005b838110156108fd5780820151818401526020810190506108e2565b50505050905090810190601f16801561092a5780820380516001836020036101000a031916815260200191505b5087810385528b818151815260200191508051906020019060200280838360005b8381101561096657808201518184015260208101905061094b565b5050505090500187810384528a818151815260200191508051906020019060200280838360005b838110156109a857808201518184015260208101905061098d565b50505050905001878103835289818151815260200191508051906020019060200280838360005b838110156109ea5780820151818401526020810190506109cf565b50505050905001878103825288818151815260200191508051906020019060200280838360005b83811015610a2c578082015181840152602081019050610a11565b505050509050019d505050505050505050505050505060405180910390f35b610a8160048036036040811015610a6157600080fd5b810190808035906020019092919080359060200190929190505050612076565b604051808215151515815260200191505060405180910390f35b610b5e60048036036040811015610ab157600080fd5b8101908080359060200190640100000000811115610ace57600080fd5b820183602082011115610ae057600080fd5b80359060200191846001830284011164010000000083111715610b0257600080fd5b91908080601f016020809104026020016040519081016040528093929190818152602001838380828437600081840152601f19601f820116905080830192505050505050509192919290803590602001909291905050506120c1565b604051808215151515815260200191505060405180910390f35b610b806124ac565b6040518082815260200191505060405180910390f35b610cf060048036036060811015610bac57600080fd5b810190808035906020019092919080359060200190640100000000811115610bd357600080fd5b820183602082011115610be557600080fd5b80359060200191846001830284011164010000000083111715610c0757600080fd5b91908080601f016020809104026020016040519081016040528093929190818152602001838380828437600081840152601f19601f82011690508083019250505050505050919291929080359060200190640100000000811115610c6a57600080fd5b820183602082011115610c7c57600080fd5b80359060200191846001830284011164010000000083111715610c9e57600080fd5b91908080601f016020809104026020016040519081016040528093929190818152602001838380828437600081840152601f19601f8201169050808301925050505050505091929192905050506124b2565b604051808215151515815260200191505060405180910390f35b600080610d1683612513565b905060007fffffffffffffffffffffffffffffffffffffffffffffffffffffffffffffffff905060008090505b600254811015610dcd578273ffffffffffffffffffffffffffffffffffffffff1660018281548110610d7157fe5b9060005260206000200160009054906101000a900473ffffffffffffffffffffffffffffffffffffffff1673ffffffffffffffffffffffffffffffffffffffff161415610dc057809150610dcd565b8080600101915050610d43565b507fffffffffffffffffffffffffffffffffffffffffffffffffffffffffffffffff811415610e0157600092505050610e08565b6001925050505b919050565b60006060839050600081511415610e8c576040517f08c379a00000000000000000000000000000000000000000000000000000000081526004018080602001828103825260118152602001807f506c6561736520656e746572206e616d6500000000000000000000000000000081525060200191505060405180910390fd5b6040518061012001604052808581526020018481526020013373ffffffffffffffffffffffffffffffffffffffff16815260200160025481526020016000604051908082528060200260200182016040528015610ef85781602001602082028038833980820191505090505b5081526020016000604051908082528060200260200182016040528015610f2e5781602001602082028038833980820191505090505b5081526020016000604051908082528060200260200182016040528015610f645781602001602082028038833980820191505090505b5081526020016000604051908082528060200260200182016040528015610f9a5781602001602082028038833980820191505090505b5081526020016000604051908082528060200260200182016040528015610fd05781602001602082028038833980820191505090505b508152506000806002548152602001908152602001600020600082015181600001908051906020019061100492919061276c565b50602082015181600101908051906020019061102192919061276c565b5060408201518160020160006101000a81548173ffffffffffffffffffffffffffffffffffffffff021916908373ffffffffffffffffffffffffffffffffffffffff16021790555060608201518160030155608082015181600401908051906020019061108f9291906127ec565b5060a08201518160050190805190602001906110ac9291906127ec565b5060c08201518160060190805190602001906110c99291906127ec565b5060e08201518160070190805190602001906110e69291906127ec565b506101008201518160080190805190602001906111049291906127ec565b5090505060013390806001815401808255809150509060018203906000526020600020016000909192909190916101000a81548173ffffffffffffffffffffffffffffffffffffffff021916908373ffffffffffffffffffffffffffffffffffffffff16021790555050600260008154809291906001019190505550600191505092915050565b60006001828154811061119a57fe5b9060005260206000200160009054906101000a900473ffffffffffffffffffffffffffffffffffffffff169050919050565b6000806111d884611640565b9050600080828152602001908152602001600020600601839080600181540180825580915050906001820390600052602060002001600090919290919091505550600080848152602001908152602001600020600501819080600181540180825580915050906001820390600052602060002001600090919290919091505550600191505092915050565b600061126d612839565b60008085815260200190815260200160002060405180610120016040529081600082018054600181600116156101000203166002900480601f0160208091040260200160405190810160405280929190818152602001828054600181600116156101000203166002900480156113245780601f106112f957610100808354040283529160200191611324565b820191906000526020600020905b81548152906001019060200180831161130757829003601f168201915b50505050508152602001600182018054600181600116156101000203166002900480601f0160208091040260200160405190810160405280929190818152602001828054600181600116156101000203166002900480156113c65780601f1061139b576101008083540402835291602001916113c6565b820191906000526020600020905b8154815290600101906020018083116113a957829003601f168201915b505050505081526020016002820160009054906101000a900473ffffffffffffffffffffffffffffffffffffffff1673ffffffffffffffffffffffffffffffffffffffff1673ffffffffffffffffffffffffffffffffffffffff168152602001600382015481526020016004820180548060200260200160405190810160405280929190818152602001828054801561147e57602002820191906000526020600020905b81548152602001906001019080831161146a575b50505050508152602001600582018054806020026020016040519081016040528092919081815260200182805480156114d657602002820191906000526020600020905b8154815260200190600101908083116114c2575b505050505081526020016006820180548060200260200160405190810160405280929190818152602001828054801561152e57602002820191906000526020600020905b81548152602001906001019080831161151a575b505050505081526020016007820180548060200260200160405190810160405280929190818152602001828054801561158657602002820191906000526020600020905b815481526020019060010190808311611572575b50505050508152602001600882018054806020026020016040519081016040528092919081815260200182805480156115de57602002820191906000526020600020905b8154815260200190600101908083116115ca575b505050505081525050905060008090505b8160e001515181101561163357838260e00151828151811061160d57fe5b602002602001015114156116265760019250505061163a565b80806001019150506115ef565b5060009150505b92915050565b60008061164c83612513565b9050600080905060008090505b6002548110156116e3578273ffffffffffffffffffffffffffffffffffffffff166001828154811061168757fe5b9060005260206000200160009054906101000a900473ffffffffffffffffffffffffffffffffffffffff1673ffffffffffffffffffffffffffffffffffffffff1614156116d6578091506116e3565b8080600101915050611659565b508092505050919050565b60606116f8612839565b60008084815260200190815260200160002060405180610120016040529081600082018054600181600116156101000203166002900480601f0160208091040260200160405190810160405280929190818152602001828054600181600116156101000203166002900480156117af5780601f10611784576101008083540402835291602001916117af565b820191906000526020600020905b81548152906001019060200180831161179257829003601f168201915b50505050508152602001600182018054600181600116156101000203166002900480601f0160208091040260200160405190810160405280929190818152602001828054600181600116156101000203166002900480156118515780601f1061182657610100808354040283529160200191611851565b820191906000526020600020905b81548152906001019060200180831161183457829003601f168201915b505050505081526020016002820160009054906101000a900473ffffffffffffffffffffffffffffffffffffffff1673ffffffffffffffffffffffffffffffffffffffff1673ffffffffffffffffffffffffffffffffffffffff168152602001600382015481526020016004820180548060200260200160405190810160405280929190818152602001828054801561190957602002820191906000526020600020905b8154815260200190600101908083116118f5575b505050505081526020016005820180548060200260200160405190810160405280929190818152602001828054801561196157602002820191906000526020600020905b81548152602001906001019080831161194d575b50505050508152602001600682018054806020026020016040519081016040528092919081815260200182805480156119b957602002820191906000526020600020905b8154815260200190600101908083116119a5575b5050505050815260200160078201805480602002602001604051908101604052809291908181526020018280548015611a1157602002820191906000526020600020905b8154815260200190600101908083116119fd575b5050505050815260200160088201805480602002602001604051908101604052809291908181526020018280548015611a6957602002820191906000526020600020905b815481526020019060010190808311611a55575b5050505050815250509050806101000151915050919050565b60008060008481526020019081526020016000206007018290806001815401808255809150509060018203906000526020600020016000909192909190915055506001905092915050565b60008060008481526020019081526020016000206004018290806001815401808255809150509060018203906000526020600020016000909192909190915055506001905092915050565b6000602052806000526040600020600091509050806000018054600181600116156101000203166002900480601f016020809104026020016040519081016040528092919081815260200182805460018160011615610100020316600290048015611bc45780601f10611b9957610100808354040283529160200191611bc4565b820191906000526020600020905b815481529060010190602001808311611ba757829003601f168201915b505050505090806001018054600181600116156101000203166002900480601f016020809104026020016040519081016040528092919081815260200182805460018160011615610100020316600290048015611c625780601f10611c3757610100808354040283529160200191611c62565b820191906000526020600020905b815481529060010190602001808311611c4557829003601f168201915b5050505050908060020160009054906101000a900473ffffffffffffffffffffffffffffffffffffffff16908060030154905084565b6060806000606080606080611cab612839565b6000808a815260200190815260200160002060405180610120016040529081600082018054600181600116156101000203166002900480601f016020809104026020016040519081016040528092919081815260200182805460018160011615610100020316600290048015611d625780601f10611d3757610100808354040283529160200191611d62565b820191906000526020600020905b815481529060010190602001808311611d4557829003601f168201915b50505050508152602001600182018054600181600116156101000203166002900480601f016020809104026020016040519081016040528092919081815260200182805460018160011615610100020316600290048015611e045780601f10611dd957610100808354040283529160200191611e04565b820191906000526020600020905b815481529060010190602001808311611de757829003601f168201915b505050505081526020016002820160009054906101000a900473ffffffffffffffffffffffffffffffffffffffff1673ffffffffffffffffffffffffffffffffffffffff1673ffffffffffffffffffffffffffffffffffffffff1681526020016003820154815260200160048201805480602002602001604051908101604052809291908181526020018280548015611ebc57602002820191906000526020600020905b815481526020019060010190808311611ea8575b5050505050815260200160058201805480602002602001604051908101604052809291908181526020018280548015611f1457602002820191906000526020600020905b815481526020019060010190808311611f00575b5050505050815260200160068201805480602002602001604051908101604052809291908181526020018280548015611f6c57602002820191906000526020600020905b815481526020019060010190808311611f58575b5050505050815260200160078201805480602002602001604051908101604052809291908181526020018280548015611fc457602002820191906000526020600020905b815481526020019060010190808311611fb0575b505050505081526020016008820180548060200260200160405190810160405280929190818152602001828054801561201c57602002820191906000526020600020905b815481526020019060010190808311612008575b505050505081525050905080600001518160200151826060015183608001518460a001518560c001518660e00151869650859550839350829250819150809050975097509750975097509750975050919395979092949650565b60008060008481526020019081526020016000206008018290806001815401808255809150509060018203906000526020600020016000909192909190915055506001905092915050565b6000806120cd84611640565b90506120d7612839565b60008083815260200190815260200160002060405180610120016040529081600082018054600181600116156101000203166002900480601f01602080910402602001604051908101604052809291908181526020018280546001816001161561010002031660029004801561218e5780601f106121635761010080835404028352916020019161218e565b820191906000526020600020905b81548152906001019060200180831161217157829003601f168201915b50505050508152602001600182018054600181600116156101000203166002900480601f0160208091040260200160405190810160405280929190818152602001828054600181600116156101000203166002900480156122305780601f1061220557610100808354040283529160200191612230565b820191906000526020600020905b81548152906001019060200180831161221357829003601f168201915b505050505081526020016002820160009054906101000a900473ffffffffffffffffffffffffffffffffffffffff1673ffffffffffffffffffffffffffffffffffffffff1673ffffffffffffffffffffffffffffffffffffffff16815260200160038201548152602001600482018054806020026020016040519081016040528092919081815260200182805480156122e857602002820191906000526020600020905b8154815260200190600101908083116122d4575b505050505081526020016005820180548060200260200160405190810160405280929190818152602001828054801561234057602002820191906000526020600020905b81548152602001906001019080831161232c575b505050505081526020016006820180548060200260200160405190810160405280929190818152602001828054801561239857602002820191906000526020600020905b815481526020019060010190808311612384575b50505050508152602001600782018054806020026020016040519081016040528092919081815260200182805480156123f057602002820191906000526020600020905b8154815260200190600101908083116123dc575b505050505081526020016008820180548060200260200160405190810160405280929190818152602001828054801561244857602002820191906000526020600020905b815481526020019060010190808311612434575b505050505081525050905060008090505b8160c001515181101561249e578160c00151818151811061247657fe5b602002602001015185141561249157600193505050506124a6565b8080600101915050612459565b506000925050505b92915050565b60025481565b60008260008086815260200190815260200160002060000190805190602001906124dd92919061289b565b5081600080868152602001908152602001600020600101908051906020019061250792919061289b565b50600190509392505050565b6000606082905060008090506000806000600290505b602a81101561275f576101008402935084818151811061254557fe5b602001015160f81c60f81b60f81c60ff16925084600182018151811061256757fe5b602001015160f81c60f81b60f81c60ff16915060618373ffffffffffffffffffffffffffffffffffffffff16101580156125b8575060668373ffffffffffffffffffffffffffffffffffffffff1611155b156125c857605783039250612662565b60418373ffffffffffffffffffffffffffffffffffffffff1610158015612606575060468373ffffffffffffffffffffffffffffffffffffffff1611155b1561261657603783039250612661565b60308373ffffffffffffffffffffffffffffffffffffffff1610158015612654575060398373ffffffffffffffffffffffffffffffffffffffff1611155b15612660576030830392505b5b5b60618273ffffffffffffffffffffffffffffffffffffffff16101580156126a0575060668273ffffffffffffffffffffffffffffffffffffffff1611155b156126b05760578203915061274a565b60418273ffffffffffffffffffffffffffffffffffffffff16101580156126ee575060468273ffffffffffffffffffffffffffffffffffffffff1611155b156126fe57603782039150612749565b60308273ffffffffffffffffffffffffffffffffffffffff161015801561273c575060398273ffffffffffffffffffffffffffffffffffffffff1611155b15612748576030820391505b5b5b81601084020184019350600281019050612529565b5082945050505050919050565b828054600181600116156101000203166002900490600052602060002090601f016020900481019282601f106127ad57805160ff19168380011785556127db565b828001600101855582156127db579182015b828111156127da5782518255916020019190600101906127bf565b5b5090506127e8919061291b565b5090565b828054828255906000526020600020908101928215612828579160200282015b8281111561282757825182559160200191906001019061280c565b5b509050612835919061291b565b5090565b6040518061012001604052806060815260200160608152602001600073ffffffffffffffffffffffffffffffffffffffff1681526020016000815260200160608152602001606081526020016060815260200160608152602001606081525090565b828054600181600116156101000203166002900490600052602060002090601f016020900481019282601f106128dc57805160ff191683800117855561290a565b8280016001018555821561290a579182015b828111156129095782518255916020019190600101906128ee565b5b509050612917919061291b565b5090565b61293d91905b80821115612939576000816000905550600101612921565b5090565b9056fea265627a7a72315820af6fbef51145356824bbe9ef4fac6539d3f8a76027b2f23990ca99bcb63c85c264736f6c63430005100032",
  "source": "pragma solidity >=0.4.21 <0.7.0;\n// pragma experimental ABIEncoderV2;\n\ncontract User {\n\n    struct userS {\n        string Name;\n        string Bio;\n        address userid;\n        uint index;\n        // string ProfilePicHash; // Hash of profilepic\n        uint[] Posts;\n        uint[] Followers;    // Users who are following this user\n        uint[] Following;    // This user is following\n        uint[] BookmarkedPosts; // Bookmarked posts\n        uint[] UpvotedPosts;    // Posts this user has upvoted\n    }\n\n    //Mappings are useful for O(1) searching \n    mapping(uint => userS) public usersM;\n    // mapping(uint => mapping(uint => int)) public followM; // Check if address1 follows address2\n\n    // array containing addresses of all the users as you cannot iterate over the mapping\n    address[] usersA;\n    // total_users is the total count of users\n    uint public total_users;\n\n    function getusersAAt(uint idx) public view returns(address){ \n        return usersA[idx];\n    }\n\n\n    // modifier checkuser(uint id) {\n    //     userS memory u = usersM[id];\n    //     require(u.Isuser, \"User does not exist!\");\n    //     _;\n    // }\n\n\n    function getUserInfo(uint idx) public view returns (string memory, string memory, uint, uint[] memory, uint[] memory, uint[] memory, uint[] memory) {\n        userS memory u = usersM[idx];\n        return (u.Name, u.Bio, u.index, u.Posts, u.Followers, u.Following, u.BookmarkedPosts);\n    }\n\n    function getUpvotedPosts(uint idx) public view returns(uint[] memory)\n    {\n        userS memory u = usersM[idx];\n        return u.UpvotedPosts;\n    }\n\n    function registerUser(string memory _name, string memory _bio) public returns (bool){\n        bytes memory testname = bytes(_name);\n        // bytes memory testbio = bytes(_bio);\n        require(testname.length != 0, \"Please enter name\");\n        // require(testbio.length != 0, \"Please enter gender\");\n        usersM[total_users] = (userS({Name:_name, Bio:_bio, userid:msg.sender, index:total_users, Posts:new uint[](0), Followers:new uint[](0), Following:new uint[](0), BookmarkedPosts:new uint[](0), UpvotedPosts:new uint[](0)}));\n        usersA.push(msg.sender);\n        total_users++;\n        return true;\n    }\n\n    function EditUser(uint idx, string memory name, string memory bio) public returns(bool) {\n        usersM[idx].Name = name;\n        usersM[idx].Bio = bio;\n        return true;\n    }\n\n    function userpresent(string memory _address) public view returns (bool){\n        address add = parseAddr(_address);\n        int idx = -1;\n        for(uint i = 0;i < total_users;i++)\n        {\n            if(usersA[i]==add)\n            {\n                idx = int(i);\n                break;\n            }\n        }\n        if (idx==-1) {\n            return false;\n        } else {\n            return true;\n        }\n    }\n\n    function getidxFromAddress(string memory _address) public view returns (uint)\n    {\n        address add = parseAddr(_address);\n        uint idx = 0;\n        for(uint i = 0;i < total_users;i++)\n        {\n            if(usersA[i]==add)\n            {\n                idx = i;\n                break;\n            }\n        }\n        return idx;\n    }\n\n    function Follow(string memory _address, int to_follow) public returns (bool)\n    {\n        // https://medium.com/coinmonks/what-the-hack-is-memory-and-storage-in-solidity-6b9e62577305\n        // If you use memory then you wont see changes so always use storage\n        // when updating contract\n        // add to_follow to this users' Following array\n        uint this_user = getidxFromAddress(_address);\n        usersM[this_user].Following.push(uint(to_follow));\n        // add this_user to to_follow users Followers array\n        usersM[uint(to_follow)].Followers.push(this_user);\n        return true;\n\n    }\n\n    // If current user follows the user with index id\n    function CheckFollow(string memory _address, uint id) public view  returns(bool)\n    {\n        uint userid = getidxFromAddress(_address);\n        userS memory u = usersM[userid];\n\n        for(uint i = 0;i < u.Following.length;i++)\n        {\n            if(id == u.Following[i])\n            {\n                return true;\n            }\n        }\n        return false;\n    }\n\n    // Add _post id to _user\n    function addPost(uint _user, uint _post ) public returns(bool)\n    {\n        usersM[_user].Posts.push(_post);\n        return true;\n    }\n\n    // Add postid post to bookmarked post for this user\n    function BookmarkPost(uint _userid, uint _postid) public returns(bool)\n    {\n        usersM[_userid].BookmarkedPosts.push(_postid);\n        return true;\n    }\n\n    // Add postid post to Upvoted post for this user\n    function UpvotePost(uint _userid, uint _postid) public returns(bool)\n    {\n        usersM[_userid].UpvotedPosts.push(_postid);\n        return true;\n    }\n\n    // Check if this user has already bookmarked this post\n    function CheckBookmark(uint _userid, uint _postid) public view returns(bool)\n    {\n        userS memory u = usersM[_userid];\n        for(uint i = 0 ;i < u .BookmarkedPosts.length ; i++)\n        {\n            if(u.BookmarkedPosts[i]==_postid)\n            {\n                return true;\n            }\n        }\n        return false;\n    }\n\n    function parseAddr(string memory _a) internal pure returns (address _parsedAddress) {\n        bytes memory tmp = bytes(_a);\n        uint160 iaddr = 0;\n        uint160 b1;\n        uint160 b2;\n        for (uint i = 2; i < 2 + 2 * 20; i += 2) {\n            iaddr *= 256;\n            b1 = uint160(uint8(tmp[i]));\n            b2 = uint160(uint8(tmp[i + 1]));\n            if ((b1 >= 97) && (b1 <= 102)) {\n                b1 -= 87;\n            } else if ((b1 >= 65) && (b1 <= 70)) {\n                b1 -= 55;\n            } else if ((b1 >= 48) && (b1 <= 57)) {\n                b1 -= 48;\n            }\n            if ((b2 >= 97) && (b2 <= 102)) {\n                b2 -= 87;\n            } else if ((b2 >= 65) && (b2 <= 70)) {\n                b2 -= 55;\n            } else if ((b2 >= 48) && (b2 <= 57)) {\n                b2 -= 48;\n            }\n            iaddr += (b1 * 16 + b2);\n        }\n        return address(iaddr);\n    }\n\n\n}",
  "sourcePath": "/home/arpit/Desktop/github_repos/Dconnect/contracts/User.sol",
  "compiler": {
    "name": "solc",
    "version": "0.5.16+commit.9c3226ce.Emscripten.clang"
  },
  "schemaVersion": "3.0.23",
  "updatedAt": "2020-03-29T05:31:54.845Z",
  "networkType": "ethereum",
  "devdoc": {
    "methods": {}
  },
  "userdoc": {
    "methods": {}
  }
}